:020000040800F2
:10000000083E0020C10200085D940008357B00080E
:10001000DD90000887330008252B01080000000050
:10002000000000000000000000000000B7CC000845
:100030001B3D000800000000D7020008FDE3000897
:10004000DB020008DB020008DB020008DB0200081C
:10005000DB020008DB020008DB020008DB0200080C
:10006000DB020008DB020008DB020008DB020008FC
:10007000DB020008DB020008DB020008DB020008EC
:100080002D3A0008713A0008DB020008DB02000884
:10009000AD230108DB020008DB020008DB020008D8
:1000A000DB020008DB020008DB020008DB020008BC
:1000B000DB020008DB020008DB020008DB020008AC
:1000C000DB020008DB020008DB020008DB0200089C
:1000D000DB020008711F0108A52001082921010881
:1000E000DB020008DB020008DB020008DB0200087C
:1000F000DB020008DB020008DB020008DB0200086C
:10010000DB020008DB020008DB020008DB0200085B
:10011000ED1E0108DB020008DB020008DB0200081C
:10012000DB020008DB020008DB020008DB0200083B
:1001300000F002F800F0B4F80AA090E8000C824445
:100140008344AAF10107DA4501D100F0A9F8AFF222
:10015000090EBAE80F0013F0010F18BFFB1A43F0A5
:1001600001031847F8600100186101000A444FF0CC
:10017000000C10F8013B13F0070408BF10F8014B06
:100180001D1108BF10F8015B641E05D010F8016B4B
:10019000641E01F8016BF9D113F0080F1EBF10F8AF
:1001A000014BAD1C0C1B09D16D1E58BF01F801CBD2
:1001B000FAD505E014F8016B01F8016B6D1EF9D555
:1001C0009142D6D37047000000230024002500266A
:1001D000103A28BF78C1FBD8520728BF30C148BFAA
:1001E0000B6070476E2900F04185702900F0B381E3
:1001F000662914F0CF87652914F0CC87672914F09D
:10020000C9876129AFF3008003681B0A28BF41F04A
:100210008001692900F02481642900F02181752979
:1002200000F01E816F2901F03D80782900F07F8168
:10023000E92900F0D787E42900F0D487F52900F0F8
:10024000D187EF2901F03A80F82900F07E81036818
:10025000DB0928BF41F08001632900F0588773292A
:1002600000F05D87E32901F07981F32901F07E81B7
:10027000002070471FB59DE8030000F02FFC01F03F
:10028000BFF804000020002114F048F9401C606011
:100290000020002114F02CF9E0601FBD10B510BD46
:1002A00001F06CFA1146FFF7E5FF13F005FE01F0CF
:1002B00098FA03B4FFF7F2FF03BC01F0C5FA00009F
:1002C0000948804709480047FEE7FEE7FEE7FEE7EA
:1002D000FEE7FEE7FEE7FEE7FEE7FEE70448054926
:1002E000054A064B70470000BDE7000831010008D1
:1002F00008380020083E0020083A0020083A002074
:1003000070B5064600F0CAFB056806F10B0020F048
:100310000704B4429CBF002070BD2B466A68BAB186
:100320001068A04210D304F1080188423CBF506815
:10033000586007D35168101941601168091B0160AA
:1003400058601460101D70BD13465268002AE7D132
:100350002146284600F0AEFB0028DED170BD00002B
:100360007CB51D4616460C00009001D02044401E6E
:10037000074B7B442A4669460190304600F09DFEBB
:1003800005461CB10020694600F0AAFE28467CBD47
:10039000750D00000FB41CB5084B06AA7B446946D6
:1003A0000090059800F089FE04460020694600F0A0
:1003B00097FE20461CBC5DF814FB0000410D0000B8
:1003C00070B5044685690068C10601D5302600E095
:1003D0002026C00707D070BDD4E9012130469047E0
:1003E000206A401C20626D1EF6D570BD70B50446B3
:1003F00085690078C00707D170BDD4E901212020AC
:100400009047206A401C20626D1EF6D570BD70B505
:100410000C460546012A05D02878800600D5EA69F1
:10042000002302E0012305E05B1C934202D2E05C62
:100430000028F9D1A869E618C01AA861286A1844EA
:1004400028622846FFF7BCFF04E0D5E9012114F833
:10045000010B9047B442F8D32846FFF7C7FF70BDA1
:100460002DE9F0410646002410687529314616A58D
:1004700010D000F090FB002802DA404213A507E0FC
:1004800031688A0701D512A502E0490704D511A5F4
:10049000012401E000F088FB00210A2206F1240774
:1004A00009E0B0FBF2FCB0FBF2F302FB1C003030C1
:1004B00078541846491C0028F3D123462A46304672
:1004C000BDE8F04100F079BB000000002D00000005
:1004D0002B00000020000000F0B40D460188090543
:1004E00002D5214C7C4402E01F4C7C440E34002198
:1004F00000F1240608E002F00F071209E75D42EA66
:1005000003721B097754491C52EA0307F3D102789E
:100510000023120704D5702D06D009B1022311342F
:100520002246F0BC00F049BB01231034F8E770B557
:1005300004460D462146106800F036FB0246294667
:100540002046BDE870400023C6E7D21D22F0070315
:10055000D3E90023C0E70368126843F02003036077
:100560000823C3610023B7E7585A01002DE9F05F63
:10057000894604464FF0000ADFF874B1FB44C0F826
:1005800020A02046E1688847002874D0252806D09E
:10059000D4E901219047206A401C2062F1E700263F
:1005A0005F462046E16888472028054607DB312D55
:1005B00005D2781910F8200C08B10643F1E7B0070E
:1005C00001D526F00406C4F81CA00027C4F818A022
:1005D0002A2D09D0284613F039F938B304EB8708DF
:1005E000303DC8F8185019E059F8041B204604EBB8
:1005F00087029161E1688847012F054618D1E069BB
:10060000002820DA26F020061DE0D8F8180000EBBC
:10061000800005EB40003038C8F818002046E1683B
:100620008847054613F012F90028EED1012F0AD0B1
:100630002E2D08D12046E16888477F1C0546022FF1
:1006400046F02006C4DBA069002803DA404246F0E9
:100650000106A061F00701D026F010066C2D0BD02A
:10066000682D09D04C2D39D06A2D35D0742D35D058
:100670007A2D33D016E038E0E1682F4620468847CF
:10068000B842054609D16C2F26D04FF48060E1684E
:10069000064320468847054604E06C2F1AD04FF4E5
:1006A000807006430DB3A5F14100192802D820350A
:1006B00046F400664A462946204626604E46FFF725
:1006C00091FD80B101280BD0F61D26F0070000F146
:1006D000080956E74020E4E78020D8E70020D6E765
:1006E00006F104094DE7284652E7206ABDE8F09F6D
:1006F000E859010070B5064600F0D4F904680546D3
:1007000030460A22002100F0E3FD2C6070BD00009D
:10071000014A00F015BE0000AC01002040EA0103D0
:1007200010B59B070FD1042A0DD310C808C9121F9A
:100730009C42F8D020BA19BA884201D9012010BDD4
:100740004FF0FF3010BD1AB1D30703D0521C07E0A1
:10075000002010BD10F8013B11F8014B1B1B07D105
:1007600010F8013B11F8014B1B1B01D1921EF1D176
:10077000184610BD40EA0103024630B59B0710D170
:100780004FF0013400E008C208C91D1B9D4315EA63
:10079000C41FF8D013F0FF0102F8011B0DD01B0A93
:1007A000F8E711F8013B002B02F8013B05D011F8E6
:1007B000013B002B02F8013BF3D130BD10B5431CC7
:1007C00002E010F8011B71B18107FAD14FF001323C
:1007D00002C88C1A8C4314EAC211F9D0C01A0A0656
:1007E00003D0C01E10BDC01A10BD0A0401D0801E67
:1007F00010BD0902FCD0401E10BD40EA010370B5D7
:100800009B072ED14FF00136042A2AD308C810C9FD
:100810009D1B9D43121F15EAC61517D0D8B2E1B231
:10082000401A50EA056110D198B2A1B2401A50EABC
:1008300005410AD123F07F4024F07F41401A50EA5D
:10084000052102D1180EA0EB146070BDA342DBD0CD
:1008500018BA21BA884201D9012070BD4FF0FF308B
:1008600070BD0AB9002070BD10F8013B11F8014BB2
:1008700063B1A3420AD1521E08D010F8013B11F80F
:10088000014B1BB1A34201D1521EEDD1181B70BD0B
:10089000032A40F2308010F0030C00F0158011F8AC
:1008A000013BBCF1020F624498BF11F801CB00F884
:1008B000013B38BF11F8013BA2F1040298BF00F8D8
:1008C00001CB38BF00F8013B11F0030300F05A855B
:1008D000083AC0F0088051F8043B083A51F804CBBC
:1008E000A0E80810F5E7121D5CBF51F8043B40F882
:1008F000043BAFF30080D20724BF11F8013B11F88D
:1009000001CB48BF11F8012B24BF00F8013B00F8D0
:1009100001CB48BF00F8012B704702F0FF0343EA08
:10092000032242EA024200F002B84FF0000204291A
:10093000C0F0128010F0030C00F01B80CCF1040C0E
:10094000BCF1020F18BF00F8012BA8BF20F8022B42
:10095000A1EB0C0100F00DB85FEAC17C24BF00F8E8
:10096000012B00F8012B48BF00F8012B70474FF016
:10097000000200B5134694469646203922BFA0E8EF
:100980000C50A0E80C50B1F12001BFF4F7AF0907FB
:1009900028BFA0E80C5048BF0CC05DF804EB8900EC
:1009A00028BF40F8042B08BF704748BF20F8022B2F
:1009B00011F0804F18BF00F8012B704710B50446A6
:1009C00010F0030F08BF11F0030F40F015804FF037
:1009D000013E121FC0F20E8051F8043BA3EB0E0C37
:1009E0002CEA030C1CEACE1C08BF40F8043BF0D0F4
:1009F000A1F1040102F10402521E08DB11F8013BCF
:100A0000002B00F8013BF7D11146FFF78EFF20467F
:100A100010BD00004FF0013C50F8042B51F8043B8E
:100A20009A4221D1A2EB0C03934313EACC1317D1C2
:100A300050F8042B51F8043B9A4215D1A2EB0C0359
:100A4000934313EACC130BD150F8042B51F8043B19
:100A50009A4209D1A2EB0C03934313EACC13DBD0E7
:100A60004FF00000704700BFD01A01BAB1FA81F10F
:100A700001F0180122FA01F0CB40C1F12001DBB2F4
:100A8000C0B2C01A2CFA01F3D11A914311EAC31172
:100A9000E6D17047704770477047000000487047C4
:100AA000AC37002000487047A437002070477047DB
:100AB0007047704738B504460A4600206946AFF3D0
:100AC0000080002808BF38BD02460099204600F08B
:100AD0009BFC012038BD012000F02ABEF8B5AFF321
:100AE0000080054600200C46102000BF0646A819CD
:100AF000A0420DD9324669460020AFF300800700BE
:100B000008BF00F015FE0098A04218BF0546C419A2
:100B1000FFF7C4FF05600746F01D20F007004619E7
:100B2000284600F00AF8B44208BFF8BDA21B3146BF
:100B30003868BDE8F84000F067BC00210160C0E9FA
:100B4000011070471020704770B50446051FFFF76D
:100B5000A5FF0068002C14BF446870BD002C18BFAE
:100B6000AC423CBF20466468F8D301680A18AA4228
:100B700018BF456003D12A68054611440160286802
:100B80004119A1421CBF6C6070BD61686960216839
:100B90000844286070BD09684A0501D540B2704715
:100BA000C905FCD500B2704709684A0501D5C0B235
:100BB0007047C905FCD580B270472DE9F0470D4656
:100BC00099469246044600F124080168880604D537
:100BD000E06921F01001216000E00120A84201DD60
:100BE000471B00E00027A1697A1902EB0900081AE7
:100BF000A0612078C00602D42046FFF7E1FB002662
:100C000008E0D4E901211AF806009047206A401C48
:100C1000761C20624E45F4DB2078C0060AD52046BB
:100C2000FFF7CEFB06E0D4E9012130209047206A8F
:100C3000401C2062381EA7F10107F4DC07E0D4E96C
:100C4000012118F805009047206A401C2062281EE8
:100C5000A5F10105F3DC2046FFF7C8FB207800066C
:100C600002D50220BDE8F0870120FBE71168026889
:100C7000006A530501D508700AE0D30501D5088044
:100C800006E0130603D5C217C1E9000200E00860C0
:100C90000120704770472DE9FF4F0C461E464FF06C
:100CA000FF378BB0D2E90001DDF860800A908A46F8
:100CB000C1F30A5505B93D46002108464FF0000032
:100CC000BAF1000F00F4400005DA00EB80004FF4A9
:100CD000400101EA50004FEA9059B9F1010F00DDDF
:100CE000B9460A9850EA4A000ED044F61050A5F2D0
:100CF000FF3545432F14B8F1000F1ED07542291E51
:100D00001EDDC9F100021CE0B8F1010F4FF0000038
:100D100001D0302103E0F24305E02154401CB042F1
:100D2000FBDB30460022002121540B99C1F80880DA
:100D3000C1E900200FB0BDE8F08FBD1B6D1CDEE7E0
:100D40004A4600DA694206A800F064FC06AB93E864
:100D5000070003AB83E8070050460A9900F09AFDAC
:100D60008DE80700A0F500501F3800900398002D73
:100D700009DD42F21F014A46084403A90390684670
:100D800000F0F9FF08E0A0F500504A461F3803A91B
:100D90000390684601F003F88DE807000004000C9A
:100DA00003D04FF0FF30410800E01046B8F1000FCB
:100DB00003D00022009215461EE0751E05D400F0F7
:100DC0003DFB303262556D1EF9D5B3460122084312
:100DD00002D000227F1C04E02078302801D10022BC
:100DE0007F1E002A099786D01DE0112D07DA00F03A
:100DF00025FB303262556D1C50EA0102F5D10843E3
:100E000002D00098C8B10EE00021681E05E0235C06
:100E1000625C63542254401E491C8142F7DBAB469E
:100E2000A81B401E0990002004F80B000B98099A9B
:100E3000C0F80880C0E9002B7CE711264FF00008BD
:100E400059E72DE9F04F88460446D21D22F00701EC
:100E500091B0D1E90001CDE90A0112F071FC02461E
:100E60000B98C00F01D02D2007E02068810701D525
:100E70002B2002E0202101EAC000032A099001D0C2
:100E8000072A05DB03464146204600F01DFB0BE127
:100E90002078800601D5E06900E00620B8F1650FF2
:100EA000814606D0B8F1660F18D0B8F1670F70D13F
:100EB00031E00020B9F1110F009001DB112301E0B6
:100EC00009F101030AAA01A90CA8FFF7E4FEDDE974
:100ED0000C70002609F10105834647E001204B46CE
:100EE00000904FF000470AAA01A90CA8FFF7D3FE13
:100EF000DDE90DB00C995D46002610B909F101003D
:100F00000D18B9EB050003D4C0F1FF3609F1010556
:100F1000A5EB09002BE0B9F1010F01DA4FF001094F
:100F20000020B9F1110F0090484601DD112300E0C7
:100F300003460AAA01A90CA8FFF7ADFEDDE90C7073
:100F40004D4600268346207800070AD4AB4500DAD8
:100F50005D4601A8012D04DD411911F8011C30295D
:100F600007D04F4502DA17F1040F04DA0120824658
:100F70000FE06D1EEEE7002F02DCED1B3E4403E0A8
:100F8000781CA84200DD7D1CB81B00F1010A4FF05F
:100F900000472078000703D4AA4501DB4FF0FF3A51
:100FA0000021B7F1004F0DF143088DF8431024D014
:100FB00002202B23002F01DA7F422D230A21021E5B
:100FC000A0F1010000DC5FB197FBF1FC97FBF1F2AF
:100FD00001FB1C7C17460CF1300C08F801CDEEE744
:100FE000A8F1010003702188090501D5452100E021
:100FF0006521A0F1010800F8011C09980FA9A1EBD7
:101000000807FF1D00B10120411901EBEA70A16939
:101010003844081A401EA0612078C00602D4204639
:10102000FFF7CEF9099828B1D4E901219047206A49
:10103000401C20622078C00622D52046FFF7C0F968
:101040001EE0002E04DBB34502DD01A8805D00E058
:101050003020D4E901219047206A401C2062761C90
:10106000AAF101005FEA000A0AD100F0C9F9C068DC
:101070000168405CD4E901219047206A401C20624D
:10108000281EA5F10105DCDC07E0D4E9012118F8F0
:10109000010B9047206A401C2062381EA7F101070F
:1010A000F3DC2046FFF7A2F9032011B043E600006D
:1010B00001694A1C02610878704700B58FB0CDE91C
:1010C00001310021059105497944CDE9031011460C
:1010D0006846FFF74BFA0FB000BD0000E5FFFFFFC9
:1010E0000A6802F8010B0A607047D1E900239A42AE
:1010F00002D2531C0B601070704710B5436913B1D6
:10110000AFF3008001E0FFF782F9012010BD1278F3
:1011100000F124010A7000224A700122EDE71168F3
:101120004FF0FF32E9E700002DE9FF5F15468A46E0
:101130000446DFF8AC80F8440027D8E900103E46AA
:10114000CDE9001010E03AF816106A4602A800F047
:10115000CFFA411C07D02178890603D5E2693918F6
:1011600091420DD80744761C2078800602D5E069AC
:10117000B84205DDAE42E6DB3AF816000028E2D1BF
:10118000A069C01BA0612046FFF71AF9D8E900103A
:10119000CDE90010002017E03AF818106A4602A8BE
:1011A00000F0A6FAB0F1FF3F81460BD000250DF10B
:1011B000080B05E0D4E901211BF8050090476D1CE0
:1011C0004D45F7D308F10100B0428046E4DB206AC8
:1011D000384420622046FFF709F9BDE8FF9F000070
:1011E000424E01002DE9F0418046D21D22F0070257
:1011F0000025D2E90002F52915A614D0011E72F1CE
:10120000000106DA0023D0EB030063EB020211A613
:1012100008E0D8F800108B0701D50FA602E04907B7
:1012200001D50EA601251146002408F1240704E08B
:1012300000F004F930323A55641C50EA0102F7D14B
:101240002B46324621464046BDE8F041FFF7B5BC8B
:10125000000000002D0000002B0000002000000016
:1012600030B4002100F1240408E002F00705D208A0
:10127000303542EA4372DB086554491C52EA0305E3
:10128000F3D10468002310A2250708D504F0200438
:101290000C4304D0C46901230CA2641EC46130BC99
:1012A000FFF78BBC10B5044621461068FFF77CFCA5
:1012B00002462046BDE810400023D1E7D21D22F0AF
:1012C0000701D1E90023CBE7000000003000000057
:1012D0002DE9F04791460F4680460446002614F853
:1012E000015B2DB100F084F80068405DC007F6D1C5
:1012F0002B2D02D02D2D18D0641E4A46394620468B
:1013000000F038F927B13968A14201D1C7F800804F
:101310004FF0020471050BD54042002803DDFFF7B2
:10132000C1FB0460A007BDE8F08746F48066E4E7EF
:101330000028F8DAFFF7B6FB04606FF00040F2E730
:101340002DE9F04115460E46040002D12C6804B97F
:101350000BA4204600F003FA0444207870B127461D
:101360003146384600F0EBF90444207810B10020F3
:1013700004F8010B38462C60BDE8F0810027F9E73E
:101380000000000010B5203AC0F00B80B1E8185002
:10139000203AA0E81850B1E81850A0E81850BFF45F
:1013A000F5AF5FEA027C24BFB1E81850A0E81850FE
:1013B00044BF18C918C0BDE810405FEA827C24BF52
:1013C00051F8043B40F8043B08BF7047D20728BFE0
:1013D00031F8023B48BF11F8012B28BF20F8023B2F
:1013E00048BF00F8012B704700487047A437002021
:1013F00010B500F005F8001D10BD00BF213101003F
:1014000000487047C4370020034640688C460028D7
:1014100018BF88423CBF03464068F8D31868184498
:10142000884207D00CF1030020F00700001D411A8C
:10143000521A0146081D0A60FFF786BB30B5B0F1AD
:101440000A024FEA900E71F100034EEA817EB0EB82
:101450000E0061EB91014FEA101E4EEA017E10EB87
:101460000E0041EB11114FEA102E4EEA016E10EB07
:101470000E0041EB11214FEA104E4EEA014E10EBE7
:101480000E0041EB1141401841F100014FEAD0003C
:1014900040EA41704FEAD10110EB80054FEA810428
:1014A00044EA907444EB01046D1944EB0404521BAC
:1014B000A3414FF0000348BF0A3200D530BD401CA5
:1014C00041F1000130BD00002DE9F0411F46044606
:1014D00003260168072A01F4006004DB08B116A5A1
:1014E00005E016A503E008B115A500E015A521F05B
:1014F00010002060A069C01EA0610FB1401EA06155
:101500002046FEF75DFF4FB1D4E9012138469047F0
:10151000206A401C2062C01C206206E0206AFAE7B4
:10152000D4E9012115F8010B9047761EF8D2204628
:10153000FEF75CFFBDE8F0814E414E006E616E002B
:10154000494E4600696E660010B5436913B1AFF3AA
:10155000008001E0FFF7E8FD012010BD128800F1D6
:10156000240182840022C2840122EDE711684FF039
:10157000FF32E9E72DE9F05F824615468B460027EA
:101580000AF10104B9460078302801D09DB113E07A
:1015900014F8010B0127782803D0582801D045B151
:1015A0000AE00DB1102D07D1002714F8010B10250A
:1015B00002E0082500E00A250026B0460EE005FB03
:1015C000080005FB06F101271FFA80F801EB104621
:1015D000B6F5803F00D3B94614F8010B294600F058
:1015E000F2F80028EBDABBF1000F05D00FB1641E52
:1015F00000E05446CBF80040B9F1000F06D0FFF7E9
:1016000051FA02210160C81EBDE8F09F48EA064079
:10161000FAE700002DE9F047814616468AB03348C4
:1016200078440DC88DE80D0030487844801C03AC28
:101630000DC884E80D0041F69B300844372190FB2B
:10164000F1F290FBF1F5A5F1800501FB12041B3CC2
:1016500002D56442012000E00020DFF890A080461F
:101660000027FA44AAF1BE0A0DE0E00709D032468D
:10167000684607EB47010AEB810100F090FB8DE81B
:10168000070064107F1C002CEFD1184F7F44AC3F43
:1016900018E0E80714D007EB04100DF1180A90E8E1
:1016A0000E008AE80E00C068F04201D19819089037
:1016B000324606A903A800F072FB03AB83E80700DB
:1016C0006D10641C002DE4D132466946B8F1000F5C
:1016D00003A802D000F04FFB01E000F060FBC9E975
:1016E0000001C9F808200AB0BDE8F087DC49010014
:1016F00070B516460C460546FFF77AFE036893F868
:101700000101012806D0FF2C0FD8185D68B1012017
:101710002C7070BDD3F807013246214603F207133F
:1017200003442846BDE8704018474FF0FF3070BDB5
:1017300010B500F061F8BDE8104000F058B830B5C1
:1017400003461D781DB10A4603E0AC4201D1181AC8
:1017500030BD12F8014B002CF7D15B1CF1E730B51E
:1017600003461D783DB10A4612F8014B1CB1AC424C
:10177000FAD15B1CF5E7181A30BD70477546FFF7C4
:1017800033FEAE4605006946534620F00700854605
:1017900018B020B5FEF7A2FDBDE820404FF00006CE
:1017A0004FF000074FF000084FF0000B21F0070149
:1017B000AC46ACE8C009ACE8C009ACE8C009ACE88C
:1017C000C0098D4670473A2800D2303820F02002F8
:1017D000412A01D3A2F13700884201D34FF0FF30F4
:1017E00070470446AFF300802046FEF762FD0028F4
:1017F00001D000F029B8704710B5012805D00021AC
:1018000003A000F027F8012010BD09A1F8E70000AF
:1018100053494752544D454D3A204F7574206F66D9
:101820002068656170206D656D6F72790000000041
:101830003A2048656170206D656D6F727920636F25
:10184000727275707465640001491820ABBEFEE7C2
:101850002600020070B505460C460A2000E06D1C0B
:1018600000F011F835B128780028F8D102E0641CA6
:1018700000F009F814B120780028F8D1BDE87040D4
:101880000A20AFF3008008B569468DF800000320F8
:10189000ABBE08BD5FEA400C08BF91F0000F4FEAF5
:1018A0008C234FEAC12243EA51514FEA1C5018BF22
:1018B00000F5F0404FEA300018BF41F000415FEA08
:1018C0006C5C00F02980BCF1FF3F08BF40F0804015
:1018D0007047130C06BF12044FF0100C4FF0000CB1
:1018E000130E04BF12020CF1080C130F04BF1201F7
:1018F0000CF1040C930F04BF92000CF1020CD30FF7
:1019000004BF52000CF1010C11464FF00002A0F18F
:101910001F00A0EB0C00704711F0004F08BF70478C
:1019200031F000413FF4D5AF0B0C06BF09044FF076
:10193000100C4FF0000C0B0E04BF09020CF1080C48
:101940000B0F04BF09010CF1040C8B0F04BF8900BD
:101950000CF1020CCB0F04BF49000CF1010CCCF1CF
:101960002003A0EB0C0022FA03F302FA0CF241EA86
:10197000030100F10100704720F07F4C80EA030072
:1019800023F07F47ACEB070303F57C5300F00040E6
:1019900003F1FF032DE980494FEA154B09B44FEAE3
:1019A000144325EA0B4E24EA03480FF2042606EB03
:1019B000132749083E785FEA320203FB0667C7F542
:1019C000000707FB06F64FEA54374FEAD64606F102
:1019D000020607FB066CCCF1005C4FEA1C472CEAC0
:1019E000074C07FB06F40CFB06F504EB15464FEA23
:1019F000961634BF00204FF000404FEAD13706FB67
:101A000007FC4FEA1C4C0CFB0BF7D21B03FB0CF73B
:101A100061EB07010CFB0EF7B0EB074072EB1742CE
:101A20000CFB08F734BFA2EB0742B2EB074261EBB5
:101A300017414FEA0C444FEA910706FB07FC4FEAB7
:101A40001C4C0CFB0BF7B0EBC74072EB573203FB9F
:101A50000CF734BFA2EBC742B2EBC74261EB573180
:101A60000CFB0EF7B0EBC70072EB57720CFB08F7DC
:101A700034BFA2EBC702B2EBC70261EB5771039F01
:101A80004FEA816141EA921104EBCC044FEAD1376D
:101A90004FEA826206FB07FC42EA90124FEA80603E
:101AA0004FEA1C4C0CFB0BF7D21B03FB0CF761EB52
:101AB00007010CFB0EF7B0EB074072EB17420CFB73
:101AC00008F734BFA2EB0742B2EB074261EB1741C4
:101AD0004FEA8C554FEA910704EB9C2406FB07FC68
:101AE0004FEA1C4C0CFB0BF7B0EBC74072EB5732C4
:101AF00003FB0CF734BFA2EBC742B2EBC74261EB6A
:101B000057310CFB0EF7B0EBC70072EB57720CFBB2
:101B100008F734BFA2EBC702B2EBC70261EB577103
:101B200015EB4C254FEA816141EA92114FEA82623E
:101B30004FEAD13742EA901206FB07FC44F1000459
:101B40004FEA80604FEA1C4C0CFB0BF7D21B03FBE7
:101B50000CF761EB07010CFB0EF7B0EB074072EBE3
:101B600017420CFB08F734BFA2EB0742B2EB074267
:101B700061EB174115EB1C154FEA813141EA9241A7
:101B80004FEA823242EA90424FEA80304FEA0C76C6
:101B900044F1000448EA03434EEA0B484FF0000EBC
:101BA000B2EB080C71EB030724BF624639464EEBDB
:101BB0000E0E4FF0000B0018524149414BEB0B0B3E
:101BC000B2EB080C71EB03077BF1000B24BF6246FC
:101BD00039464EEB0E0E4FF0000B001852414941B2
:101BE0004BEB0B0BB2EB080C71EB03077BF1000B1B
:101BF00024BF624639464EEB0E0E51EA020718BF6B
:101C000046F0010616EB0E7655F1000254F1000184
:101C100003D5BDE88901BDE80088BDE88901BDE8BC
:101C20000048B619524141EB0101A3F1010370478D
:101C300080807F7E7D7C7B7A797877767675747309
:101C4000727171706F6E6E6D6C6C6B6A6A696868C8
:101C5000676666656464636362616160605F5F5E5E
:101C60005E5D5D5C5C5B5B5A5A59595858575756D4
:101C70005655555554545353525252515150505039
:101C80004F4F4F4E4E4D4D4D4C4C4C4B4B4B4A4A8B
:101C90004A494949484848474747474646464545CF
:101CA0004544444444434343434242424241414108
:101CB000002B26D4770021D01CB54FEA370703B498
:101CC0004FF010004FF010014FF000000FBCBDE8C6
:101CD00010400BF1010BBBF1010F08BF5FEA1707C2
:101CE00022BF12F1010211F101014FF0004143F155
:101CF000000300F0004043EA00007047F9D35708A2
:101D0000DAE746EA064613F1400F4FEA16461FDDB2
:101D100013F1200FDFBF16430A46002120335B4238
:101D2000C8D0C3F1200746EA064602FA07F74FEA91
:101D3000164646EA0706C3F1200722FA03F201FA23
:101D400007F721FA03F14FF0000342EA0702B1E777
:101D500046EA020646EA06464FEA164646EA010603
:101D6000BCBF46EA0646360C4FF000034FF00002B7
:101D70004FF000019EE72DE9C048934630B491E84A
:101D8000380007C831EA400C48BF34EA430C03D599
:101D9000FFF7F2FDFFF78CFFF0BCBDE800882DE9EE
:101DA000C048934630B491E8380007C810F0804F1F
:101DB00008BF13F0804F03D100F005F8FFF778FF5C
:101DC000F0BCBDE8008820F07F4780EA030023F0E4
:101DD0007F4C07EB0C03A3F57C5300F00040A3F10C
:101DE000FE0392F0000F00F0B38095F0000F00F0BA
:101DF00077802DE901494FEA11404FEA144621EA64
:101E0000004800FB06FC24EA064708FB06F607FB31
:101E100008F800FB07F718EB06484CEB164C4FEAA6
:101E2000124B18EB07484FEA15464CEB174022EAD5
:101E30000B4E0BFB06FC25EA06470EFB06F607FBDE
:101E40000EFE0BFB07F71EEB064E4CEB164C4FF04D
:101E500000061EEB074E4CEB174B18EB0B0840F13E
:101E6000000018EB0E0B58EB000840F100008F1A31
:101E70004FF000013CBFC943661B14BFB5EB040C17
:101E800000213CBFC943F61B4FEA17444EEA8E0EB1
:101E900027EA04454FEA1C4704FB07622CEA074C7B
:101EA00005FB07F70CFB05F604FB0CFC16EB0746DD
:101EB00042EB174216EB0C4642EB1C421BEB0606AC
:101EC00058EB0202414146EA9E0601D5BDE8018970
:101ED000B619524141EB0101A3F10103BDE80189AB
:101EE0004FEA14454FEA114724EA054621EA074C18
:101EF00005FB07F406FB07F70CFB06F105FB0CFCE2
:101F000011EB074144EB17444FEA124711EB0C4128
:101F100044EB1C4422EA074C05FB07F206FB07F7DB
:101F20000CFB06F605FB0CFC16EB074642EB1742D2
:101F300016EB0C4642EB1C456A1854F1000148BFF1
:101F40007047B619524141EB0101A3F101037047FB
:101F500095F0000F37D04FEA11424FEA144721EABB
:101F6000024624EA074C02FB07F106FB07F70CFBCD
:101F700006F402FB0CFC14EB074441EB17414FEA5B
:101F8000154714EB0C4441EB1C4125EA074C02FBBE
:101F900007F506FB07F70CFB06F602FB0CFC16EB3D
:101FA000074645EB174516EB0C4645EB1C4212194C
:101FB00051F1000148BF7047B619524141EB010190
:101FC000A3F1010370474FEA14454FEA114724EA91
:101FD000054621EA074C05FB07F106FB07F70CFB5A
:101FE00006F24FF0000605FB0CFC12EB074241EB3A
:101FF000174112EB0C4251EB1C4148BF704792183D
:1020000041EB0101A3F10103704701460020302993
:1020100005DB392903DCA1F13002D0B20EE06129E1
:1020200005DB662903DCA1F15702D0B206E04129A5
:1020300004DB462902DCA1F13702D0B27047000070
:102040002DE9F04192B004460D4616461F46DDF8D4
:1020500060800BA0006802901DB90AA102A8FEF7DB
:1020600089FB02AB224608A103A8CDE90067FEF771
:1020700091F9414603A800F03BFE12B0BDE8F081A3
:10208000544350005544500041542B51494F504542
:102090004E3D25642C222573222C222573222C25CB
:1020A000640D00002DE9F04186B004460F4600267D
:1020B0002246FAA1012001F031FE00BFF9A101A8DA
:1020C000FEF758FB01A8FEF779FB8046424601A9BE
:1020D0002046FEF792FB38B9F348006920F0010072
:1020E000401CF14908615EE2F0A101A8FEF742FB45
:1020F00001A8FEF763FBC5B201A8FEF75FFB8046AF
:10210000424601A92046FEF778FB40B9E64800693F
:1021100020F4003000F50030E3490861E3E7E4A172
:1021200001A8FEF727FB01A8FEF748FB80464246C0
:1021300001A92046FEF761FB38B9DB48006920F0B1
:102140000200801CD8490861CDE7DBA101A8FEF799
:1021500011FB01A8FEF732FBC5B201A8FEF72EFB6A
:102160008046424601A92046FEF747FB002833D1AE
:1021700060190622D2A1FEF740FB68B9CA4840693F
:1021800020F00400001DC8494861CF48CFA10A884B
:102190008280897881711EE060190A22CCA1FEF745
:1021A0002CFB68B9C048406920F010001030BE49CF
:1021B0004861C548C9A10A888280897881710AE08E
:1021C00060190822C6A1FEF718FB20B16019082289
:1021D000C6A1FEF712FB86E7C7A101A8FEF7CAFA5F
:1021E00001A8FEF7EBFAC5B201A8FEF7E7FA8046B0
:1021F000424601A92046FEF700FBA0B9AA480069A3
:1022000020F00200801CA849086160190322BDA1CA
:10221000FEF7F3FA30B9A448406920F0080008300E
:10222000A14948615FE7B8A101A8FEF7A3FA01A898
:10223000FEF7C4FAC5B201A8FEF7C0FA80464246CE
:1022400001A92046FEF7D9FAE8B96019B0A1FEF756
:102250005FFA0646AEA10020FEF75AFA064656B1CE
:102260003078302807DB3078392804DC3078303893
:102270008D4981F824008C48006920F0800080306E
:10228000894908612FE7A3A101A8FEF773FA01A805
:10229000FEF794FAC5B201A8FEF790FA80464246CE
:1022A00001A92046FEF7A9FAD0B9601998A1FEF756
:1022B0002FFA064696A10020FEF72AFA064636B106
:1022C0000321304600F056FD774981F82500764815
:1022D000006920F4807000F580707349086102E79E
:1022E0008EA101A8FEF746FA01A8FEF767FAC5B26B
:1022F00001A8FEF763FA8046424601A92046FEF790
:102300007CFA08BB601982A1FEF702FA064680A19A
:102310000020FEF7FDF90646AEB1711C6248573049
:10232000FEF728FA60485730FEF748FA401E5E492B
:10233000573100220A545C48006920F4801000F5EF
:10234000801057390861CEE676A101A8FEF712FA8F
:1023500001A8FEF733FAC5B201A8FEF72FFA8046AE
:10236000424601A92046FEF748FA88B9A81C26185B
:102370006EB1142231464C487530FEF71FFB4A48B7
:10238000006920F4001000F5001047490861AAE632
:1023900066A101A8FEF7EEF901A8FEF70FFAC5B293
:1023A00001A8FEF70BFA8046424601A92046FEF737
:1023B00024FA70B93C48006920F4004000F5004060
:1023C000394908610846406920F00200801C4861D4
:1023D00089E65AA101A8FEF7CDF901A8FEF7EEF9AA
:1023E000C5B201A8FEF7EAF98046424601A9204697
:1023F000FEF703FA70B92C48006920F4004000F59C
:102400000040294908610846406920F00200801C0C
:10241000486168E64DA101A8FEF7ACF901A8FEF7F6
:10242000CDF9C5B201A8FEF7C9F98046424601A917
:102430002046FEF7E2F968B91B48006920F4004025
:1024400000F50040184908610846406920F0020084
:102450004861FEE341A101A8FEF78CF901A8FEF74F
:10246000ADF9C5B201A8FEF7A9F98046424601A917
:102470002046FEF7C2F978B90B48006920F40050F5
:1024800000F50050084908610846006920F48040C2
:1024900000F580400861DCE364E0000025730D0A6C
:1024A000000000004F4B00007C1F00203E20000079
:1024B0004552524F520000002B4350494E3A000003
:1024C0002052454144590000E00100204F4B2000BC
:1024D000204E4F542052454144590000455252006D
:1024E0002053494D2050494E000000002053494DD3
:1024F0002050554B000000002B434D4520455252C3
:102500004F523A00203130002B435245473A0000E9
:102510002C0000002B43475245473A002B434E55B1
:102520004D3A00002B434349443A0000414C524588
:1025300041445920434F4E4E45435400312C2043D3
:102540004F4E4E454354204F4B000000312C20434A
:102550004F4E4E454354204641494C0053454E444E
:10256000204F4B00F8A101A8FEF704F901A8FEF7DF
:1025700025F9C5B201A8FEF721F98046424601A916
:102580002046FEF73AF978B9F248006920F4005085
:1025900000F50050EF4908610846006920F48040CA
:1025A00000F58040086154E3EBA101A8FEF7E2F8D2
:1025B00001A8FEF703F9C5B201A8FEF7FFF88046AF
:1025C000424601A92046FEF718F968B9E1480069BA
:1025D00020F4005000F50050DE490861084600690B
:1025E00020F48040086134E3DEA101A8FEF7C2F8C0
:1025F00001A8FEF7E3F8C5B201A8FEF7DFF88046B0
:10260000424601A92046FEF7F8F868B9D1480069AA
:1026100020F4005000F50050CE49086108460069DA
:1026200020F48040086114E3D1A101A8FEF7A2F8CC
:1026300001A8FEF7C3F8C5B201A8FEF7BFF88046AF
:10264000424601A92046FEF7D8F8A0B9C148006962
:1026500020F4800000F58000BE490861084640690A
:1026600020F0020048610846406920F4805000F5DF
:1026700080504861EDE2C1A101A8FEF77BF801A8F6
:10268000FEF79CF8C5B201A8FEF798F880464246CE
:1026900001A92046FEF7B1F8D0B9AE48007DC0F3DD
:1026A000400038B1AB48406920F4805000F58050BC
:1026B000A8494861A748006920F4800000F580001F
:1026C000A44908610846406920F002004861C0E260
:1026D000ADA101A8FEF74EF801A8FEF76FF8C5B24C
:1026E00001A8FEF76BF88046424601A92046FEF796
:1026F00084F890B96019032100F03CFB954981F8FA
:1027000098000846006920F0400040300861084603
:1027100090F898009E49C8609BE29EA101A8FEF730
:1027200029F801A8FEF74AF8C5B201A8FEF746F855
:102730008046424601A92046FEF75FF868B9854801
:10274000006920F4803000F5803082490861084635
:10275000406920F0010048617BE291A101A8FEF7E9
:1027600009F801A8FEF72AF8C5B201A8FEF726F875
:102770008046424601A92046FEF73FF870B904F0B2
:1027800027FE0C20734981F88E000AF0A5F87148E5
:10279000406920F001006F4948615AE26D48007BB2
:1027A00000F00100A0B10F2F12D16A48C06820F0DC
:1027B00001006849C8600846006920F4805000F5AF
:1027C00080500861214663483730FDF7D3FF40E26F
:1027D0006048007BC0F3400098B10F2F11D15D48D5
:1027E000C06820F002005B49C8600846006920F01C
:1027F000200020300861214656484730FDF7BAFFD7
:1028000027E25448007BC0F3800098B1072F11DB0A
:102810000F2F0FDC204605F07BFC58B14D48C068F7
:1028200020F004004B49C86021464A482730FDF794
:10283000A1FF0EE25DA101A8FDF79CFF01A8FDF735
:10284000BDFFC5B201A8FDF7B9FF8046424601A908
:102850002046FDF7D2FF80BB601956A1FDF758FF57
:10286000064654A10020FDF753FF064626B339481B
:10287000007DC0F3C01080B93648406920F0800068
:10288000803034494861314632486630FDF772FF86
:102890000020304981F8260024E031462D4866307A
:1028A000FEF7B8F850B131462A486630FDF762FFAE
:1028B0000020284981F8260014E014E0254890F80B
:1028C0002600401CC0B2234981F82600032809DBFA
:1028D000002081F826000846C06820F0806000F1E2
:1028E0008060C860B5E134A101A8FDF743FF01A8ED
:1028F000FDF764FFC5B201A8FDF760FF80464246C0
:1029000001A92046FDF779FF38B91248006920F087
:102910000200801C0F4908619BE12AA101A8FDF774
:1029200029FF01A8FDF74AFFC5B201A8FDF746FF40
:102930008046424601A92046FDF75FFF10B904F02A
:1029400047FD86E146E00000312C53454E44204FC0
:102950004B0000007C1F002053454E442046414957
:102960004C000000312C53454E44204641494C0058
:10297000312C20434C4F5345204F4B00312C2043EA
:102980004C4F5345440000002B4353513A00000084
:10299000E00100204445414354204F4B000000001B
:1029A0002B50445020444541435400002B434C4994
:1029B000503A0000220000002B434D532045525254
:1029C0004F523A00302C2B50445020444541435440
:1029D00000000000A1A101A8FDF7CCFE01A8FDF7B1
:1029E000EDFEC5B201A8FDF7E9FE8046424601A909
:1029F0002046FDF702FF20B99A49204604F01AFD4F
:102A000027E199A101A8FDF7B5FE01A8FDF7D6FEC3
:102A1000C5B201A8FDF7D2FE8046424601A9204674
:102A2000FDF7EBFE18B9204604F072FD11E190A10C
:102A300001A8FDF79FFE01A8FDF7C0FE80464246B3
:102A400001A92046FDF7D9FE38B98C48008820F04E
:102A50000100401C89490880FBE089A101A8FDF71D
:102A600089FE01A8FDF7AAFEC5B22A4601A92046A3
:102A7000FDF7C3FE60B98148008820F00400001D06
:102A80007E490880601911F099FB7C494860E0E0BC
:102A90007EA101A8FDF76EFE01A8FDF78FFE80461E
:102AA000424601A92046FDF7A8FE38B973480088C0
:102AB00020F00200801C71490880CAE076A101A8BC
:102AC000FDF758FE01A8FDF779FE8046424601A9B0
:102AD0002046FDF792FE38B96848008820F00800CB
:102AE000083066490880B4E0AFF2B85101A8FDF79C
:102AF00041FE01A8FDF762FE8046424601A920463C
:102B0000FDF77BFE48B95D48008820F0400040306A
:102B10005A4908800FF06AFE9BE062A101A8FDF708
:102B200029FE01A8FDF74AFEC5B22A4601A92046A2
:102B3000FDF763FE68B95148008820F4007000F585
:102B400000704E490880601911F038FB4B498860CD
:102B50007FE057A101A8FDF70DFE01A8FDF72EFEAD
:102B60008046424601A92046FDF747FE38B9434852
:102B7000008820F0200020304049088069E050A102
:102B800001A8FDF7F7FD01A8FDF718FE80464246B3
:102B900001A92046FDF731FE70B93848008820F4BD
:102BA000807000F58070354908800846006920F083
:102BB0000200801C08614CE044A101A8FDF7DAFD89
:102BC00001A8FDF7FBFD8046424601A92046FDF71E
:102BD00014FE38B92948008820F080008030274949
:102BE000088036E03CA101A8FDF7C4FD01A8FDF76F
:102BF000E5FD8046424601A92046FDF7FEFD70B97D
:102C00001E48008820F4807000F580701B49088001
:102C10000846006920F00200801C086119E017488E
:102C2000C068C00F80B1072F0EDB0F2F0CDC2046D1
:102C300005F06EFA40B11148006920F4007000F50B
:102C400000700E49086104E026A1012001F066F839
:102C500000BF00BF06B0BDE8F08100002B514E4917
:102C6000545A3A00CC0000202B51454E473A000000
:102C70002B514654504F50454E3A30007C1F002097
:102C80002B5146545053495A453A00002B51465453
:102C900050504154483A30002B5146545043464717
:102CA0003A3000002B514654504745543A0000003A
:102CB0002B5146545044454C4554453A3000000091
:102CC0002B514654505055543A2D00002B51465428
:102CD000505055543A0000002B5146545045525222
:102CE0004F523A00415420756E6B6E6F770D0A009B
:102CF00070B504460D460B48C561002009490876A9
:102D0000086104B970BD224607A1012001F006F850
:102D10002046FDF753FD86B23146204604F026FDDD
:102D200000BFEFE77C1F002025730D0A00000000A4
:102D300070B58EB004460D4616462B46224606A1B7
:102D400001A80096FDF726FB4FF4FA6101A8FFF7F2
:102D5000CFFF0EB070BD000041542B514943534783
:102D6000503D312C222573222C222573222C222522
:102D700073220D0010B50246002000E0521C1378AB
:102D8000302BFBDB1378392BF8DC06E000EB8003FB
:102D900058001378303B1844521C0B00A1F1010479
:102DA000E1B205D01378302B02DB1378392BEDDD3F
:102DB00010BD2DE9F04707460D4616462C46152155
:102DC0002046FDF7B2FD2A2004F8010B012004F88B
:102DD000010B06F1140188B2214610F09FFAA41CE1
:102DE0002146384601F070FF00F0FF0844444FF0E0
:102DF000000934442146484610F090FAA41C2320D0
:102E000004F8010B601B80B2BDE8F0870CB5944A52
:102E10001268928A1AB9934A128802B90CBD924A72
:102E2000D2F80120914B1B689A424FD08E4AD2F8BB
:102E300001208E4B1B6882EA03018B4AD2F80120E5
:102E40000A400192884AD2F801204A400092019A31
:102E500032B3874B019A5B681A40864BD3F8013036
:102E60001A43844BC3F801201A46D2F80120BAB1A4
:102E7000002013E07F4AD2F80120012383401A404A
:102E800052B17D4A32F8102032B97A4A127822F0D3
:102E90000102521C774B1A70421CD0B22028E9DB89
:102EA000009A3AB1734AD2F80120009B9A43714BC1
:102EB000C3F801206C4AD2F801206C4B1A606F4AAB
:102EC000128822F00402121D6C4B1A80664AD2F856
:102ED00005206B4B1B689A4248D0634AD2F8052004
:102EE000674B1B6882EA03015F4AD2F805200A405B
:102EF00001925D4AD2F805204A400092019AFAB147
:102F00005C4AD2F80520019B1A435A4BC3F80520AE
:102F1000002013E0574AD2F80520012383401A40CD
:102F200052B1584A32F8102032B9524A127822F07F
:102F30000102521C4F4B1A70421CD0B20228E9DB2E
:102F4000009A3AB14B4AD2F80520009B9A43494B6C
:102F5000C3F80520444AD2F80520494B1A60474A75
:102F6000128822F00402121D444B1A803E4AD2F805
:102F70000920454B1B689A4227D03B4AD2F80920CA
:102F8000414B1B6882EA0301374AD2F809200A4004
:102F90000192019A6AB1374AD2F80920019B1A437B
:102FA000344BC3F809201A46127822F00102521C51
:102FB0001A702D4AD2F80920334B1A602F4A128812
:102FC00022F00402121D2D4B1A80274A1278C2F3F8
:102FD000400292B1244A127822F00202224B1A7067
:102FE0001A46927B4AB11A46927B224B9A731A4632
:102FF000127822F00202921C1A701B4A1278C2F355
:10300000800292B1184A127822F00402164B1A700C
:103010001A46D27B4AB1174A127822F00402121DD6
:10302000144B1A70104AD27BDA730F4A1278C2F32B
:10303000C00292B10C4A127822F008020A4B1A70B0
:103040001A46527B4AB10B4A127822F00802083223
:10305000084B1A70044A527B5A7300BFDEE6000028
:103060004C00002006000020242F00200C0000202F
:103070004C2F0020382F0020B00100209C08002099
:1030800010000020000000201400002010B5FF22D6
:1030900010215348FDF741FC002051494860084683
:1030A000007920F00100401C08710846007920F0EA
:1030B0000200801C08710846007920F00400001D01
:1030C00008710846007920F00800083008710846A9
:1030D000007920F02000203008710846407920F067
:1030E0000100401C48710846407920F00200801C15
:1030F00048710846407920F00400001D48710846D8
:10310000407920F02000203048710846407920F0B6
:103110004000403048710846407920F080008030FF
:1031200048710846807920F00100401C88710846EB
:10313000807920F00200801C88710846807920F098
:103140000400001D88710846807920F008000830CE
:1031500088710846807920F0100010308871084688
:10316000807920F020002030887114211D48FDF75F
:10317000DCFB1D48006890F8490000F00100A8B190
:103180001A48006800681749C1F80100174800682C
:103190004068C1F80500154800680068C043104940
:1031A0000860124800684068C04388600D48D0F845
:1031B00001000F4908600B48D0F805000D49086070
:1031C00014210D48FDF7B1FB0C4800210160006897
:1031D00020F0FE4000F140700849086010BD00007A
:1031E0004C2F0020242F00203C000020480000200D
:1031F0000C00002010000020382F002008000020C4
:103200000246107800F0010088B31088C0F349002E
:103210000844B0F57A7F2BDB0023106863F34A0083
:1032200010601068C00A401C136860F3D023C3F319
:10323000C52013603C2822D3106820F4FC301060B5
:103240001068400C401C136860F35743C3F34640BA
:103250001360C3F30663984211D3106820F47E0014
:103260001060106820F0010010600120704706E037
:10327000108801EB5003106863F34A0010600020CF
:10328000F4E7000010B5044621460648FFF7B8FFF2
:1032900030B10548407820F02000203002494870C5
:1032A00010BD0000080000204C2F002000200CE082
:1032B000104931F8101031B10E4931F81010491E83
:1032C0000C4A22F81010411C88B21828F0D30020B4
:1032D0000CE0094931F8101031B1074931F81010EC
:1032E000491E054A22F81010411C88B20428F0D368
:1032F00070470000B0010020000000200C4800686A
:1033000020F001000A4908600846006820F0040027
:10331000001D08600846006820F0080008300860BA
:103320000846006820F01000103008607047000068
:103330001800002030B50246022905D150781578D2
:1033400040EA0523184630BD04290CD11078000648
:10335000557840EA0540957840EA0520D57840EA5E
:1033600005042046EFE70020EDE7014600204A78FB
:1033700012060B7842EA0342CB7842EA03228B78AA
:1033800042EA0300704700BFFEE7000010B50446A4
:103390000B48844209D10121480609F05FF8002159
:1033A0004FF0007009F05AF808E00121880609F092
:1033B00055F800214FF0806009F050F810BD000072
:1033C0000064004010B50021837A012202FA03F163
:1033D0003D4A126842F001023B4B1A603A4A1C32E5
:1033E00012688A43384B1C331A60027BCAB9364ACA
:1033F0000C3212688A43344B0C331A604288C388FB
:1034000042EA0343304A4032847A42F83430028838
:10341000838842EA03432C4A4032847A02EBC40296
:103420005360027B012A19D1274A0C3212680A43E1
:10343000254B0C331A604288038842EA0343224A30
:103440004032847A42F83430C288838842EA0343A7
:103450001D4A4032847A02EBC4025360C27A3AB900
:10346000194A121D12688A43174B1B1D1A6006E089
:10347000154A121D12680A43134B1B1D1A6002895C
:1034800032B9114A143212688A430F4B14331A604E
:103490000289012A06D10C4A143212680A430A4BE7
:1034A00014331A60427B012A06D1074A1C32126883
:1034B0000A43054B1C331A60034A126822F00102CA
:1034C000014B1A6010BD0000006600401AB143694C
:1034D0000B43436102E043698B434361704730B55E
:1034E000024600200023146824F0020414601468CB
:1034F00044F00104146000E05B1C546804F0010413
:103500001CB94FF6FF74A342F6D1546804F00104CD
:103510000CB900206CE08C79012C04D1146844F0C3
:103520008004146003E0146824F080041460CC79F3
:10353000012C04D1146844F04004146003E01468C2
:1035400024F0400414600C7A012C04D1146844F077
:103550002004146003E0146824F0200414604C7A02
:10356000012C04D1146844F01004146003E01468C2
:1035700024F0100414608C7A012C04D1146844F0F7
:103580000804146003E0146824F008041460CC7A82
:10359000012C04D1146844F00404146003E014689E
:1035A00024F0040414608C78A407CD7844EA056400
:1035B0000D7944EA05444D7944EA05540D886D1EA1
:1035C0002C43D461146824F001041460002300E04B
:1035D0005B1C546804F001041CB14FF6FF74A34255
:1035E000F6D1546804F001040CB1002000E0012081
:1035F00030BD0246002019B9D36803F0030006E08D
:10360000012903D1136903F0030000E00020704793
:1036100010B500F5D87303EB01131B6803F0040326
:103620001372137A53B900F5D87303EB01131B68B7
:1036300040F2FF7404EA5353136009E000F5D873B5
:1036400003EB01131B686FF0604404EAD30353607B
:1036500000F5D87303EB01131B6803F002035372E8
:1036600000F5D87303EB01135B6803F00F0393724B
:1036700000F5D87303EB01135B681B0AD37400F5E4
:10368000D87303EB01139B68D37200F5D87303EB77
:1036900001139B681C0A147300F5D87303EB011324
:1036A0009B681C0C547300F5D87303EB01139B68E3
:1036B0001B0E937300F5D87303EB0113DB68D37310
:1036C00000F5D87303EB0113DB681C0A147400F5D2
:1036D000D87303EB0113DB681C0C547400F5D8732A
:1036E00003EB0113DB681B0E937421B9C36843F02D
:1036F0002003C36003E0036943F02003036110BDAE
:1037000000218171C171017241728172C172817037
:10371000C1700321017102214171012101807047B3
:1037200010B502460020936803F08063B3F1806F08
:1037300000D110E0936803F00063B3F1006F01D192
:10374000012008E0936803F08053B3F1805F01D15A
:10375000022000E00420042874D002F5C07303EBBB
:1037600000131B6803F0010402F5C07303EB0013A0
:103770001C600B7A7BB94B7A0C8843EA445302F500
:10378000C07404EB00142468234302F5C07404EBF6
:103790000014236010E00B7A4C6843EAC4034C7AAF
:1037A000234302F5C07404EB00142468234302F59C
:1037B000C07404EB001423608B7A03F00F038B7248
:1037C00002F5C07303EB00135B6823F00F0402F5EE
:1037D000C07303EB00135C6002F5C07303EB0013CE
:1037E0005B688C7A234302F5C07404EB00146360B9
:1037F0008B7B1C064B7B44EA03440B7B44EA03238C
:10380000CC7A234302F5C07404EB0014A3608B7CD4
:103810001C064B7C44EA03440B7C44EA0323CC7B28
:10382000234302F5C07404EB0014E36002F5C07397
:1038300003EB00131B6843F0010402F5C07303EBB4
:1038400000131C6010BD000070B502460C46FF2539
:10385000FF2309E012F8010B80EA03010648405CEF
:1038600080EA05030548455C2000A4F10106B4B2D6
:10387000F0D143EA052070BDE0580108E059010885
:1038800070B50022094D0A4E0AE0845C2B685C404A
:10389000E4B2521C56F8244092B284EA13232B60FF
:1038A0008A42F2D32868C04370BD0000A401002002
:1038B000405B010802494FF0FF300860704700008C
:1038C000A4010020017A59B90121064A1170064A63
:1038D00001681160D0F80B1051600F2109589160F8
:1038E000704700009C000020E40C002000B58DB063
:1038F0002448FFF74BFD0AA8FFF702FF05A808F0D0
:10390000D7FD00208DF82E0001208DF82F008DF8B6
:10391000300000208DF831008DF8320001208DF844
:10392000330000208DF82A008DF82B0008208DF838
:103930002C0001208DF82D001820ADF828000AA9D0
:103940001048FFF7CCFD00208DF80E008DF80F0019
:103950008DF81000ADF80400ADF80800ADF80600D1
:10396000ADF80A00ADF80C0001208DF8110001A897
:10397000FFF728FD012202210248FFF7A7FD0DB045
:1039800000BD000000640040612804DB7A2802DCEE
:10399000A0F12001C8B270478170704710B502488D
:1039A0000AF0C7FD10BD0000900100202DE9F04194
:1039B00004460027B84694F9000000F5FA6640F284
:1039C000DA7086422DDB40F61600864229DC40F292
:1039D000DA7507E0A8B205F0BBFA00F26D100744F3
:1039E000681C05B2B542F5DB94F9022094F9011088
:1039F00030460FF079FE0744781E0B49484394F98E
:103A00000310C1EB4112C2EB012100EB011094F94C
:103A10000410C1EB011100EB810094F9051000EBDB
:103A200001084046BDE8F0818051010010B54FF417
:103A3000001000F0F7F8012812D10221094801F026
:103A400055FB0021084800F03BF80848008820F0AA
:103A500010001030054908804FF4001000F022F8E3
:103A600010BD0000000801406C0002407C1F0020D7
:103A700010B54FF0007000F0D5F801280CD14006C9
:103A800000F010F80021054800F01AF8012240F279
:103A9000266103480EF0EEFB10BD000080000240DE
:103AA0000044004000F0805111B10349086001E07A
:103AB00002494860704700000404024000000240D0
:103AC00021B1026842F00102026004E002684FF690
:103AD000FE731A400260704701684FF6FE72114093
:103AE00001600021016041608160C1604B498842F2
:103AF00008D14A490839496841F00F01474A083A54
:103B000051608AE045491431884208D14349083957
:103B1000496841F0F001414A083A51607DE03F496F
:103B20002831884208D13D490839496841F470611B
:103B30003A4A083A516070E038493C31884208D12D
:103B400036490839496841F47041344A083A5160AD
:103B500063E032495031884208D130490839496818
:103B600041F470212D4A083A516056E02B496431E6
:103B7000884208D129490839496841F47001274A27
:103B8000083A516049E025497831884208D12349F3
:103B90000839496841F07061204A083A51603CE0B8
:103BA0001F49884206D1011F096841F00F01021F19
:103BB000116032E01A491431884208D11849091FAE
:103BC000096841F0F001164A121F116025E01449FE
:103BD0002831884208D11249091F096841F47061EF
:103BE0000F4A121F116018E00D493C31884208D17C
:103BF0000B49091F096841F47041094A121F1160FD
:103C00000BE007495031884207D10549091F09686F
:103C100041F47021024A121F1160704708000240EF
:103C20000804024001460020002201F0805313B135
:103C3000054B1A6801E0054B1A6802EA01030BB153
:103C4000012000E000207047000402400000024014
:103C50001AB103680B43036002E003688B430360FF
:103C6000704710B50022026847F6F0739A430C6A59
:103C70008B6823430C6923434C6923438C6923439A
:103C8000CC6923434C6A23438C6A23431A43026062
:103C9000CB6843600B6883604B68C36010BD02460D
:103CA000100E01F8010B100C01F8010B100A01F8BD
:103CB000010B01F8012B01207047000070B504468C
:103CC00003E008F03DFD00F031FD0D4800780028CC
:103CD000F7D14FF480510B4801F008FA2046FCF769
:103CE0006DFD05462A46214600200EF0D7FB08F060
:103CF00027FD4FF48051034801F0F6F970BD000034
:103D000052010020000C014070B504460D462946C2
:103D1000204600F019FF012070BD70470FB410B5A8
:103D200004462D48007800F0010010B910BC5DF881
:103D300014FB012C05D128480078C0F3800000B99D
:103D4000F4E7092C05D124480088C0F3C02000B94D
:103D5000ECE7042C22D006DC012C0BD0022C0DD079
:103D6000032C23D10EE0052C10D00A2C1AD00F2CD6
:103D70001CD10FE019A0FFF7A1FF18E017A0FFF773
:103D80009DFF14E017A0FFF799FF10E017A0FFF7C1
:103D900095FF0CE017A0FFF791FF08E018A0FFF7D0
:103DA0008DFF04E019A0FFF789FF00E000BF00BF0E
:103DB00004A818490860084603684FF4C8711648FB
:103DC000039AFCF7CDFA0020124908601248FFF769
:103DD00075FF00BFAAE70000180000205B475052A3
:103DE000535D20005B534D535D2000005B50726FAC
:103DF0005D2000005B5570646174655D200000000B
:103E00005B4D6F6E65795D20000000005B50617254
:103E1000615D20001C000020F001002070B5064606
:103E20000C4615460648006848B13046FFF746FF85
:103E30002946204600F008F802A0FFF73FFF70BDBA
:103E4000180000200D0A000070B504460D4603E07E
:103E500008F076FC00F06AFC0A4800780028F7D1E8
:103E60004FF48051084801F041F92A4621460020CC
:103E70000EF014FB08F064FC4FF48051024801F08E
:103E800033F970BD52010020000C01400021094AA5
:103E900011600949D1F8EC1021F00101491C064AD2
:103EA000C2F8EC101146D1F8EC1060F35F01C2F8D3
:103EB000EC107047840100207C1F00200146002088
:103EC000CA7812068B7842EA03424B7842EA032210
:103ED0000B7842EA0300704710B502460020002329
:103EE0001FE012F8011B302905DB392903DCA1F1A1
:103EF0003004E1B20EE0612905DB662903DCA1F1A3
:103F00005704E1B206E0412904DB462902DCA1F1B5
:103F10003704E1B24FF6FF7404EA001008435C1C5A
:103F2000E3B2042BDDDB10BD10B50446012C06D036
:103F3000022C7DD0032C7CD0042C7BD1C6E0E42164
:103F40006D48FCF7F2FC14226CA16F480068FCF786
:103F50009FFC40F2E1706C490968888201206A493F
:103F60000968C8826849096808836748006867A1CA
:103F70000A88C285897880F830106348006864A197
:103F80000A68401DC2628988018640F2E1705E497C
:103F9000096808870A205C490968488712205A493D
:103FA00009688887584800685BA10A6842624A68C5
:103FB0008262097A80F82C1001215348006880F849
:103FC000491065205049096881F848004FF4704055
:103FD0004D490968A1F84A004DF2F0604A49096864
:103FE000A1F850004FF4604147480068A0F84C1019
:103FF0004CF2DF5144480068A0F852104FF4504191
:1040000041480068A0F84E104BF2CE413E4800688F
:10401000A0F8541001203C490968A1F856000F206F
:1040200039490968A1F8580000203749096802E0B9
:1040300030E054E05CE0A1F85A003AA13248006850
:10404000B830FCF797FB3BA12F4800685E30FCF7C7
:1040500091FB2D48006836A1097880F87C102A4829
:10406000006833A1097880F89A1042F22B31264873
:104070000068A0F8D610782123480068A0F8D8106E
:10408000002121480068A0F8DA102CA10A20FFF7CF
:1040900045FE2EE014212E48FCF747FC00202D4958
:1040A000096808602B49096888802A490968C8801E
:1040B000284909680881274909684881254909680C
:1040C000888125A10A20FFF729FE12E01021274848
:1040D000FCF72BFC26A10A20FFF720FE09E01021A7
:1040E0002848FCF722FC28A10A20FFF717FE00E071
:1040F00000BF00BF10BD00009405002030303030FC
:1041000030303030303000003C0000205831380072
:1041100030303030303100004454555F56322E304C
:104120003700000062642E716878776C2E636F6DC3
:1041300000000000434D4D544D0000005379735072
:104140006172612044656661756C740D0A0000003F
:104150007806002040000020557372506172612083
:1041600044656661756C740D0A0000008C060020C1
:104170004F7468496E666F2044656661756C740D96
:104180000A0000009C060020416C6D496E666F209D
:1041900044656661756C740D0A0000002DE9F14FED
:1041A00086B0002005904E4D0698012806D00228C2
:1041B00016D0032827D004284BD137E0494800689F
:1041C00001904848006800F1DE0B05F1DE0805F1BA
:1041D000E20A454E4FF47E37DFF81091E4243CE0CC
:1041E0004348006801904248006800F10E0B05F159
:1041F0000E0805F1120A3C4E361D4FF47C37DFF8ED
:10420000F490142429E03C48006801903A48006882
:1042100000F10A0B05F10A0805F10E0A324E0836C4
:104220004FF470374FF47A39102416E033480068A1
:1042300001903248006800F10A0B05F10A0805F107
:104240000E0A294E0C364FF47A374FF47C3910247D
:1042500003E0002007B0BDE8F08F00BFA9EB070026
:10426000B0FBF4F0039002970020049030E022B2FB
:10427000294602980FF08AFAA01E81B22846FFF75D
:10428000E3FABAF80010884214D1D8F80000DBF83D
:104290000010884216D9012005902246294601982F
:1042A000FCF7F6FA0298204430603068484509D39C
:1042B000376007E0059828B1D8F80000B0F1FF3F5B
:1042C00000D109E00298204402900498401C049018
:1042D000DDE903108842CAD300BF0598BAE70000A1
:1042E000B00800203C000020A008002020FF0300B0
:1042F00040000020F8F703004800002044000020A0
:104300002DE9F05F8346BBF1010F09D0BBF1020F2D
:1043100016D0BBF1030F24D0BBF1040F43D131E021
:104320003E480768006800F1E2083C48006800F178
:10433000DE063B4C4FF47E39DFF8E8A0E42534E09C
:1043400039480768006800F112083748006800F132
:104350000E06334C241D4FF47C39DFF8D0A0142511
:1043600023E033480768006800F10E083048006811
:1043700000F10A062A4C08344FF470394FF47A3AA7
:10438000102512E02B480768006800F10E08294844
:10439000006800F10A06224C0C344FF47A394FF4CD
:1043A0007C3A102501E0BDE8F09F00BF2088C0F3F3
:1043B0000A0028B92168C80AC0020FF0D5F913E035
:1043C00020686FF30A00216829446FF30A018842CC
:1043D0000AD020882844C0F30A0028B12168294463
:1043E000C80AC0020FF0C0F93068401C3060A81E37
:1043F00081B23846FFF728FAA8F800002AB23946F9
:1044000020680FF0E1F920682844206020682844E3
:10441000504501D3C4F8009000BFC4E73C00002021
:10442000A008002020FF030040000020F8F7030050
:10443000480000204400002010B5002444480078C3
:1044400000F00100B8B1434890F89800424909686B
:10445000888002213F489E3009F0C4FD3E4909682A
:10446000A1F8460002213B48A33009F0BBFD3A49C0
:10447000096888641FE00021032002F07DF9C0B2C2
:1044800004460CB9002104E0C4F1710000EBD071C6
:104490004910314A126891800021012002F06CF924
:1044A0002D490968A1F846000021022002F064F9B4
:1044B0002949096888642848006880882749C860B5
:1044C00025480068808817280DDD8021244800F0E9
:1044D0000DFE4021224800F009FE4FF40041214822
:1044E00000F004FE32E01C48006880880F280DDDD3
:1044F00080211B4800F0FAFD4021194800F0F6FD2C
:104500004FF40041174800F0EFFD1FE0124800682B
:10451000808807280DDD8021114800F0E7FD40214B
:104520000F4800F0E1FD4FF400410E4800F0DCFDC3
:104530000CE080210A4800F0D7FD4021084800F037
:10454000D3FD4FF40041074800F0CEFD10BD000040
:104550008C0100207C1F00204C000020E001002086
:1045600000100140000C0140014600200A784B7801
:1045700042EA03207047000030B585B0044614B904
:10458000012005B030BD2078617840EA012000901C
:1045900000208DF808008DF8090008208DF80A0029
:1045A0006068CDF80B00A168CDF80F10694605488A
:1045B000FFF7B6F80546042D01D00020E1E7022000
:1045C000DFE70000006400400149C8607047000058
:1045D0000020024030B5044604254FF4302000F09E
:1045E00085F80546042D17D10C48006940F00200FB
:1045F0000A49086108464461006940F040000861CA
:104600004FF4302000F072F805460448006941F686
:10461000FD71084001490861284630BD0020024074
:1046200004200B49C96801F0010109B101200EE025
:104630000749C96801F0040109B1022007E00449F3
:10464000C96801F0100109B1032000E0042070479F
:10465000002002400348006940F0800001490861E1
:10466000704700000020024078B506460C4604253D
:1046700000200090E80200F039F80546042D24D10E
:104680001348006940F00100114908613480E802D4
:1046900000F02CF80546042D10D1B01C0090200C21
:1046A00000990880E80200F021F8054608480069F2
:1046B00041F6FE7108400649086106E004480069B9
:1046C00041F6FE71084002490861284678BD0000A5
:1046D0000020024002480349486003484860704790
:1046E0002301674500200240AB89EFCD00B50246AB
:1046F0000423FFF795FF034603E0FFF791FF03460E
:10470000521E012B01D1002AF7D102B90523184608
:1047100000BD00000448C06820F0804000F18040E7
:104720000149C860704700007C1F0020704770B5C9
:10473000044600200025A24205DB8A4203DC161B4A
:10474000B5B21D80012070BD70B5064615460C46F9
:10475000012000F0A3F9032000F064F9C6F307403C
:1047600000F060F9C6F3072000F05CF9F0B200F049
:1047700059F904E0FF2000F055F904F8010B6D1E13
:10478000ADB2F7D2BDE87040002000F087B900005C
:104790002DE9F04117460D00044678D0002F76D061
:1047A0003C480078032821D004281FD000F0ABF942
:1047B000012000F073F9AD2000F034F9C4F3074094
:1047C00000F030F9C4F3072000F02CF9E0B200F05B
:1047D00029F9287800F026F9687800F023F90020FC
:1047E00000F05CF900F07AF9022448E0E0B2C0F58C
:1047F0008070874200D23846804600F084F901205C
:1048000000F04CF9022000F00DF9C4F3074000F06D
:1048100009F9C4F3072000F005F9E0B200F002F94D
:10482000002604E0A85D00F0FDF8761CB6B246450F
:10483000F8D3002000F032F900F040F9A7EB0800AF
:1048400007043F0C44444544D0D100F050F9BDE882
:10485000F04100F033B9012000F020F9AD2000F064
:10486000E1F8285D00F0DEF82819407800F0DAF869
:10487000002000F013F900F031F9A41CA4B2BC42EE
:10488000E9D300F034F9BDE8F04100F027B9BDE804
:10489000F0810000A801002000B587B001210C20A4
:1048A00007F0ECFD0121080307F0E8FD01210846AF
:1048B00007F0E4FD0121284800F0CEFB18208DF818
:1048C0001B0003208DF81A002020ADF8180006A95F
:1048D000224800F035FB8020ADF8180006A91F48DB
:1048E00000F02EFB4020ADF8180006A91B4800F090
:1048F00027FB10208DF81B000120ADF8180006A939
:10490000174800F01DFB002000F0C8F80020ADF8AB
:1049100004004FF48270ADF806000020ADF80800E6
:104920000220ADF80A000120ADF80C004002ADF8FD
:104930000E001020ADF810000020ADF81200072086
:10494000ADF8140001A9074808F06DF901210548E8
:1049500008F04FF907B000BD000230000008014028
:10496000000C014000300140704770477047000064
:1049700008B5FFF7FAFF684600F026F8FFF7F6FFE4
:104980009DF800100F48BF2902D0EF290BD010E08E
:104990009DF80110412902D04A2902D009E00121E5
:1049A00008E0022106E09DF80110142905D0152920
:1049B00005D000210170C8B208BD0321FAE7042127
:1049C000F8E70000A801002010B50446012000F01F
:1049D00065F8902000F026F8002000F023F8002071
:1049E00000F020F8002000F01DF8FF2000F01AF879
:1049F0002070FF2000F016F86070BDE81040002025
:104A000000F04CB810B5012000F048F8052000F087
:104A100009F8FF2000F006F80446002000F03EF8F8
:104A2000204610BD10B5044600BF02210A4808F018
:104A3000ECF80028F9D02146074808F0F2F800BF4A
:104A40000121054808F0E1F80028F9D0024808F0F3
:104A5000E5F8C4B2204610BD0030014010B5044650
:104A600000F051F8012000F019F82020FFF7DAFFDC
:104A7000C4F30740FFF7D6FFC4F30720FFF7D2FFC8
:104A8000E0B2FFF7CFFF002000F008F800F016F8C2
:104A900000F02DF8BDE8104000F010B810B5044645
:104AA00024B10121044800F01FFB03E0012102486A
:104AB00000F01CFB10BD0000000C014010B50120EF
:104AC000FFF7ECFF0520FFF7ADFFFF20FFF7AAFF80
:104AD000C007FAD1BDE81040FFF7E0BF10B501E014
:104AE000FFF790FFFFF78EFF4328F9D010BD10B5F8
:104AF0000120FFF7D3FF0420FFF794FFBDE810402B
:104B00000020FFF7CBBF10B50120FFF7C7FF06203D
:104B1000FFF788FFBDE810400020FFF7BFBF00008F
:104B200008480078C0F3001048B10648008820F01B
:104B300010000449088000200876012070470020FA
:104B4000FCE700007C1F002070B504460D46802164
:104B50001F48FBF70CFF21461D48FBF70BFE2946BB
:104B60001B484630FBF706FE44F2F57018490884EE
:104B700018A117482230FBF7FDFD17A114482C306F
:104B8000FBF7F8FD124816A109888187002010491B
:104B9000486614A12846FBF7BBFD064611A100207C
:104BA000FBF7B6FD064610A10020FBF7B1FD064657
:104BB0006EB10421304609F015FA054988660846A9
:104BC0000AA1826E0F20FFF7A9F8FFF7A3FD70BDC1
:104BD000FC1E002078776C0078776C303031000054
:104BE0002F0000005F0000002E00000046696C6589
:104BF00020637263202538580D0A00000021044A02
:104C000011801146C86100211176116170470000C2
:104C10007C1F00202DE9F84304460D469046214EA6
:104C2000304604F0CDF8304604F0E4F81E48006841
:104C300090F848201DA1304604F0AAF8304604F050
:104C4000C5F81B4884603046FBF7B8FD87B2C5F352
:104C50000A003A46A6F11501FEF7ABF80090A6F15E
:104C60001700BDF800100180BDF80000801C81B263
:104C70000122A6F1170002F045FD0E480078C0F3AE
:104C8000001060B10B48007800F0010038B1BDF8A9
:104C90000000183802B2314607A0FFF7BFF8012024
:104CA000BDE8F883833300203C000020505300000F
:104CB0005C2F0020180000205B50726F5D20526551
:104CC00073706F6E733A200070B506460D462C4621
:104CD000C6F3032040F0300004F8010BC6F30310C4
:104CE00040F0300004F8010B06F00F0040F03000F7
:104CF00004F8010B0948006850F82E1F2160416834
:104D00006160008920810A34054988682146FEF7E0
:104D1000C6FF241D601B80B270BD00003C00002057
:104D20005C2F002070B506460D462C46C6F30320C6
:104D300040F0300004F8010BC6F3031040F03000DF
:104D400004F8010B06F00F0040F0300004F8010BEE
:104D50000E48006850F82E1F21604168616000898C
:104D600020810A340A4948682146FEF798FF08481E
:104D70004068401C064948600846406808B9012060
:104D80004860241D601B80B270BD00003C00002004
:104D90005C2F00201549C969814207DD1349C969A3
:104DA000091A124AD1610021117604E000210F4A4C
:104DB000D161012111760D49B1F89A1001448AB2EE
:104DC0000A49A1F89A20B1F89A1042F21072914261
:104DD0000ADB00220549A1F89A20C96821F48071F4
:104DE00001F58071014AD160704700007C1F0020EE
:104DF00008B502208DF8020014208DF803004FF44E
:104E00008050ADF800006946494800F099F8142038
:104E10008DF803002020ADF800006946454800F0F9
:104E20008FF814208DF803004FF48070ADF8000067
:104E30006946404800F084F810208DF80300000116
:104E4000ADF8000069463A4800F07AF84FF4007077
:104E5000ADF800006946364800F072F84FF4007172
:104E6000334800F043F90220ADF8000069463248AB
:104E700000F066F80221304800F036F90120ADF864
:104E8000000069462C4800F05BF801212B4800F037
:104E9000E3F84FF40040ADF800006946264800F002
:104EA0004FF84FF40041244800F020F94FF400413E
:104EB000214800F019F94FF400411F4800F016F99D
:104EC0004FF48070ADF8000069461B4800F038F8D8
:104ED0004FF48071184800F009F94FF480711648BA
:104EE00000F002F94FF48071134800F0FFF84FF41E
:104EF0000040ADF8000069460D4800F021F8102090
:104F00008DF80300C020ADF800006946094800F0A4
:104F100017F88021074800F0E7F84021054800F025
:104F2000E3F84FF40041024800F0DEF808BD00004D
:104F3000000C014000100140000801400002300058
:104F40002DE9F04102460025002600200023002420
:104F5000002791F803C00CF00F0591F803C00CF086
:104F6000100CBCF1000F03D091F802C04CEA05050B
:104F700091F800C0BCF1000F31D0146800202BE084
:104F80004FF0010C0CFA00F3B1F800C00CEA030674
:104F90009E4220D183004FF00F0C0CFA03F7BC4364
:104FA00005FA03FC4CEA040491F803C0BCF1280F95
:104FB00006D14FF0010C0CFA00FCC2F814C00AE054
:104FC00091F803C0BCF1480F05D14FF0010C0CFA69
:104FD00000FCC2F810C0401C0828D1D31460B1F8FE
:104FE00000C0BCF1FF0F34DD546800202EE000F15A
:104FF000080C4FF0010808FA0CF3B1F800C00CEAF5
:1050000003069E4221D183004FF00F0C0CFA03F7E8
:10501000BC4305FA03FC4CEA040491F803C0BCF15C
:10502000280F05D100F1080C08FA0CF8C2F814801A
:1050300091F803C0BCF1480F07D100F1080C4FF004
:10504000010808FA0CF8C2F81080401C0828CED3DA
:105050005460BDE8F0810000F0B50A46002300244A
:105060000021002500F00046B6F1004F02D11D4E90
:10507000F16901E01B4E7168C0F3034583B200F48F
:105080004016B6F5401F08D121F07061154E7668C4
:1050900026F07066134F7E6012E000F48016B6F5BD
:1050A000801F06D1032606FA05F4A14341F0706182
:1050B00006E0460D360103FA06F6B14341F0706191
:1050C00022B1460D360103FA06F6314300F00046E0
:1050D000B6F1004F02D1034EF16101E0014E716063
:1050E000F0BD000000000140416170470161704760
:1050F0002DE9F04F87B006463446308806900021EF
:10510000BDF91800801C3154B61C70480078C0F3FB
:10511000C00098B16D48007800F0010070B1BDF991
:1051200018206BA10520FEF7F9FDBDF8180018380E
:1051300002B206F115016AA0FEF770FEC1E0BDF9EA
:105140001800182804DBBDF91800B0F5806F06DDE3
:10515000BDF9182063A10520FEF7E0FDB2E04FF095
:10516000000800250AE020782A2801D1254609E018
:10517000641CBDF81800401E00B20690BDF818006F
:105180000028F0D100BF05B99CE0641C641C2046D7
:1051900004F0CAF98046A41C04EB080010F8010CC6
:1051A00023280ED004EB080010F8012C52A1052092
:1051B000FEF7B4FD601BBDF81810081A00B2069087
:1051C0007FE020780007000D617801F00F0140EAD0
:1051D0000110A17801F00F0108430190E41C0020A8
:1051E0008DF8120020680290606803902089ADF865
:1051F00010000A34464800682E30FBF7DFFA00B290
:10520000059005980A2801DB0A20059002A940486C
:10521000059A00682E30FBF781FAE0B102AA3DA1A1
:105220000520FEF77BFD05EB0800C41C601BBDF9E3
:10523000181088420CDA601BBDF81810081A00B26A
:105240000690BDF9182037A10520FEF767FD38E06C
:105250000020069036E0204604F058F90090241D06
:105260002746A8F114001FFA80FB5C444FF00009A8
:10527000CA46E41CD146CA4506D053464A462FA129
:105280000520FEF74BFD05E05B463A46DDE90010E0
:1052900007F0A6FD601BBDF9181088420EDA601BEE
:1052A000BDF81810081A00B20690BDF918201DA10B
:1052B0000520FEF733FDFFF739FA02E000200690E3
:1052C00000E03CE700BF07B0BDE8F08F1800002009
:1052D00052782066726F6D2053727620256400002C
:1052E0000D0A00005265764C656E204661756C743F
:1052F0003A2025640D0A0000456E642062797465C9
:105300003A2025303258206572720D0A00000000E4
:105310003C00002044657620696420257320657276
:10532000720D0A00486176652025642062797465F3
:105330007320746F206465616C0D0A0043726320F2
:10534000657272202530345820213D202530345894
:105350000D0A000000B58DB00121084607F05EF887
:105360001C48FEF7B9FB1C480190002003900590F3
:105370008020069000200790089009900B904FF431
:1053800000500A9001A91348FEF76BFC0021114858
:10539000FEF796FB4FF40010FEF784FB012202217A
:1053A0000C48FEF755FC012240210B48001F0CF071
:1053B00021FF01208DF8310000208DF832000120FE
:1053C0008DF8330010208DF830000CA804F048F858
:1053D0000DB000BD6C00024004440040014800785C
:1053E000704700008801002001460A480068884292
:1053F00001D10020704708480068884208D18878A9
:10540000064A1278904201D10120F3E70220F1E729
:105410000320EFE790000020940000208E00002081
:1054200003B5A1B0219803F0CBFC219803F0E2FC76
:10543000FD48006890F848000246FCA119902198A8
:1054400003F0A6FCFA480078C0F3C00048B3F8485F
:10545000007820F00800F6490870F6480068C0F3AC
:1054600085300090F3480088C0F305201990F1487A
:105470000078C0F3460018900246EFA11AA8199BC5
:10548000FAF788FFEA48407B42F234110844401E94
:1054900080B21AAB4FF6FF7201461990219803F0C3
:1054A000D5F8E3480078C0F3400088B1E0480078C0
:1054B00020F00200DE4908700846807B42F23E116F
:1054C0000844401E80B201461990219803F0AAF8C2
:1054D000D7480078C0F3800088B1D548007820F024
:1054E0000400D34908700846C07B42F252110844B8
:1054F000401E80B201461990219803F093F8CC48E1
:10550000007800F00100002801F00D80C848007804
:1055100020F00100C64908700846D0F801000028B4
:1055200000F0D88700201F9000F0CCBFC048D0F812
:10553000010001221F998A401040002800F0BE8718
:10554000B948006890F848006F2800F0A887B6486E
:10555000006890F848007028F7D01F98012834D1CF
:10556000B9480068B0F9020011900FF01AFA002251
:10557000B64BCDE912010FF08FF8CDE91801B24812
:105580000068008811900FF023FA0022B04BCDE99B
:1055900012010FF081F8CDE916012198FBF70EF901
:1055A000219908441590DDE91801CDE90201DDE9F2
:1055B0001601CDE90001A4480068408A0246A5A171
:1055C00014901598FAF7E6FEC5E31F9802283ED11D
:1055D0009D480068B0F9020011900FF0E2F9002236
:1055E0009A4BCDE912010FF057F8CDE91801964812
:1055F0000068008811900FF0EBF90022944BCDE980
:1056000012010FF049F8CDE916012198FBF7D6F801
:105610002199084415908C480068B0F842008A49E6
:105620000968B1F82C11CDE90410DDE91801CDE9C4
:105630000201DDE91601CDE9000183480068408AD6
:1056400002468FA114901598FAF7A4FEBCE71F98A4
:1056500003283ED17C480068B0F9020011900FF099
:10566000A0F90022794BCDE912010FF015F8CDE930
:10567000180175480068008811900FF0A9F9002200
:10568000734BCDE912010FF007F8CDE9160121980F
:10569000FBF794F82199084415906B480068B0F81E
:1056A000420069490968B1F82A11CDE90410DDE921
:1056B0001801CDE90201DDE91601CDE900016248DA
:1056C0000068408A02467EA114901598FAF762FE9F
:1056D0007AE71F98042834D15B480068B0F90200CB
:1056E00011900FF05EF90022584BCDE912010EF037
:1056F000D3FFCDE9180154480068008811900FF0DD
:1057000067F90022524BCDE912010EF0C5FFCDE939
:1057100016012198FBF752F8219908441590DDE90C
:105720001801CDE90201DDE91601CDE90001464885
:105730000068408A024672A114901598FAF72AFE72
:1057400042E71F98052829D13F480068B0F8780043
:1057500013900FF03DF900223C4BCDE914010EF0FF
:105760009BFFCDE918012198FBF728F821990844FF
:105770001790DDE91801CDE9000133480068B0F861
:10578000C400169030480068B0F8D000159002466A
:1057900066A1DDE91630FAF7FDFD15E71F98072829
:1057A00041D129480068B0F8880009900FF010F93D
:1057B0000022264BCDE90A010EF06EFFCDE918015B
:1057C00021480068B0F8860009900FF001F9002226
:1057D0001E4BCDE90A010EF05FFFCDE916011A4814
:1057E0000068B0F8840009900FF0F2F80022174B1F
:1057F000CDE90A010EF050FFCDE91401124800680E
:10580000B0F8820009900FF0E3F800220F4BCDE9C9
:105810000A010EF041FFCDE912010B480068B0F912
:105820000200099098E0D8E03C00002050530000AE
:10583000382F0020E0000020253032643A25303235
:10584000643A2530326400004C00002000002440FF
:10585000000059402238333031223A7B2235223A37
:10586000222564222C2231223A22252E3266222C35
:105870002232223A22252E3166227D2C00000000A1
:105880002238333032223A7B2235223A22256422D2
:105890002C2231223A22252E3266222C2232223A22
:1058A00022252E3166222C22323132223A222564E0
:1058B000222C2234223A222564227D2C0000000072
:1058C0002238333033223A7B2235223A2225642291
:1058D0002C2231223A22252E3266222C2232223AE2
:1058E00022252E3166222C22323131223A222564A1
:1058F000222C2234223A222564227D2C0000000032
:105900002238333034223A7B2235223A222564224F
:105910002C2231223A22252E3266222C2232223AA1
:1059200022252E3166227D2C0000000022383330E3
:1059300035223A7B2232333030223A222564222C1F
:10594000223436223A222564222C223432223A2270
:10595000252E3166227D2C000FF023F80022FE4B0D
:10596000CDE90A010EF098FECDE91001FB48006870
:10597000008809900FF02CF80022F94BCDE90A01BC
:105980000EF08AFECDE90E012198FAF717FF0146C5
:10599000219808440D90DDE91801CDE90A01DDE9FF
:1059A0001601CDE90801DDE91401CDE90601DDE9C3
:1059B0001201CDE90401DDE91001CDE90201DDE9C3
:1059C0000E01CDE90001E5480068408A0246E5493C
:1059D0000C900D98FAF7DEFCF6E51F9808286DD1BB
:1059E000DE480068B0F886000B900EF0F1FF002250
:1059F000D94BCDE90C010EF04FFECDE91801D74887
:105A00000068B0F884000B900EF0E2FF0022D24B49
:105A1000CDE90C010EF040FECDE91601CF4800683B
:105A2000B0F882000B900EF0D3FF0022CA4BCDE9F4
:105A30000C010EF031FECDE91401C8480068B0F940
:105A400002000B900EF0ADFF0022C34BCDE90C011C
:105A50000EF022FECDE91201C048006800880B90CC
:105A60000EF0B6FF0022BE4BCDE90C010EF014FE85
:105A7000CDE910012198FAF7A1FE219908440F9071
:105A8000DDE91801CDE90801DDE91601CDE90601DE
:105A9000DDE91401CDE90401DDE91201CDE90201DE
:105AA000DDE91001CDE90001AC480068408A0246FA
:105AB000AD490E900F98FAF76DFC85E51F980928FF
:105AC00072D1A6480068B0F886000B900EF080FFF7
:105AD0000022A14BCDE90C010EF0DEFDCDE918014D
