:020000040800F2
:10100000A03D002019EB0008FD6E0008FF6E0008EF
:10101000016F0008036F0008056F00080000000062
:10102000000000000000000000000000076F000842
:10103000096F0008000000002FEB0008316F000866
:1010400033EB000833EB000833EB000833EB000808
:1010500033EB000833EB000833EB000833EB0008F8
:1010600033EB000833EB000833EB000833EB0008E8
:1010700033EB000833EB000833EB000833EB0008D8
:10108000BBA800082771000833EB000833EB000809
:101090004F72000833EB000833EB000833EB000815
:1010A00033EB000833EB000833EB000833EB0008A8
:1010B00033EB000833EB000833EB000833EB000898
:1010C00033EB000833EB000833EB000833EB000888
:1010D00033EB0008B76F0008A770000857710008CD
:1010E00033EB000833EB000833EB000833EB000868
:1010F00033EB000833EB000833EB000833EB000858
:1011000033EB000833EB000833EB000833EB000847
:10111000D371000833EB000833EB000833EB000811
:1011200033EB000833EB000833EB000833EB000827
:1011300000F002F800F0B4F80AA090E8000C824435
:101140008344AAF10107DA4501D100F0A9F8AFF212
:10115000090EBAE80F0013F0010F18BFFB1A43F095
:1011600001031847901A0100B01A01000A444FF019
:10117000000C10F8013B13F0070408BF10F8014BF6
:101180001D1108BF10F8015B641E05D010F8016B3B
:10119000641E01F8016BF9D113F0080F1EBF10F89F
:1011A000014BAD1C0C1B09D16D1E58BF01F801CBC2
:1011B000FAD505E014F8016B01F8016B6D1EF9D545
:1011C0009142D6D37047000000230024002500265A
:1011D000103A28BF78C1FBD8520728BF30C148BF9A
:1011E0000B6070476E290EF0ED8170290DF08B8633
:1011F000662910F04384652910F04084672910F0B7
:101200003D846129AFF3008003681B0A28BF41F0C9
:10121000800169290DF0FC8564290DF0F985752997
:101220000DF0F6856F290EF0E98478290DF05786C8
:10123000E9290EF08384E4290EF08084F5290EF06C
:101240007D84EF290EF0E684F8290DF056860368B8
:10125000DB0928BF41F0800163290EF00484732963
:101260000EF00984E3290EF02586F3290EF02A8674
:10127000002070471FB59DE803000EF0DBF80EF06C
:101280006BFD0400002000210FF076FD401C606023
:10129000002000210FF05AFDE0601FBD10B510BD09
:1012A0000EF018FF1146FFF7E5FF00F02FF80EF0E3
:1012B00044FF03B4FFF7F2FF03BC0EF071FF000020
:1012C00010B500F0F5FD7CA1002000F074FE88A2AE
:1012D00089A1002000F06FFE8CA38DA28FA10020B9
:1012E00000F069FE93A396A298A1002000F063FE8F
:1012F0009CA1002000F05FFE00F0DFFB01F00BFF7F
:1013000001F048FDBDE8104000F0D7BB00240125E6
:1013100000F0E9FBFFF7D4FF00F07FFC07F0D3F803
:101320000DF07DF806F0C4FC05F0D5FA05F009FBD8
:1013300005F024FBDFF86482A246DFF86492DFF850
:1013400064B2994E0DF07FFB05F0DFF805F0A7F9C8
:1013500005F03CFA95480078C00701D100F09BFCED
:101360003078C1076BD020F00100307098F8000091
:1013700000F001018E480078014303D18D490978BE
:10138000C90746D09BF801105A46CB0746D021F03A
:10139000010151709179AA2902D1D179AA2903D0EA
:1013A00089F800A000B339E0012089F800004F4619
:1013B000B2F904100BF1060006F007F840B398F8F4
:1013C0000000C0072AD100F067FD00F065FD00F0C5
:1013D00063FD00F061FD00F05FFD00F05DFD05F0D4
:1013E00090FA87F800A019E05F46911D901D04F067
:1013F000F4F84DB170480025018841F008010180E2
:10140000018841F004010180B91D002000F0D3FDE6
:1014100004E06A480221006804F0E9FD68480068B9
:1014200090F85A0010F0060F04D0664805210068B5
:1014300004F01BFF64480521006804F0D1FF3078F8
:10144000010711D520F0080030700DF0C2FA01F04C
:101450001BFE00F032FB641CA4B2022CFFF472AF3E
:10146000002406F054FC6DE741071CD520F0040071
:101470003070322007F08AFF322000F0C1FB3220AA
:1014800001F059FA322001F0DFFA06F0CCFD4F49A5
:101490000868C207E7D03222B2EB500F02D8643896
:1014A00008604FE7FEE78107DDD520F002003070CD
:1014B00014200DF07CF845E70D0A0D0A2F2A2A2A80
:1014C0002A2A2A2A2A2A2A2A2A2A2A2A2A2A2A2A7C
:1014D0002A2A2A2A2A2A2A2A2A2A2A2A2A2A2A2A6C
:1014E0002A2A2A2A2A2A2A2A2A2A2A2F0D0A0000E8
:1014F000582D445455000000446576696365204DBD
:101500006F64656C3A2025730D0A0000583138006D
:101510004454555F56322E30340000004170702024
:1015200056657273696F6E203A2025732E25730DF0
:101530000A00000030393A35333A303500000000F7
:101540004A756E2020372032303138004275696C80
:10155000642054696D6520203A2025732025730D81
:101560000A0000002F2A2A2A2A2A2A2A2A2A2A2A74
:101570002A2A2A2A2A2A2A2A2A2A2A2A2A2A2A2ACB
:101580002A2A2A2A2A2A2A2A2A2A2A2A2A2A2A2ABB
:101590002A2A2A2F0D0A0D0A00000000E40000206C
:1015A000BE000020362A0020C0000020E8000020F5
:1015B000BF0000201C0000200C38014078000020F3
:1015C0003C0000207C00002080000020540100200E
:1015D000F8B502258DF8025014248DF80340E80276
:1015E000FF4EADF800006946304609F0DAFE8DF88E
:1015F00003402020FB4FADF800006946384609F053
:10160000D0FE8DF80340EC01ADF800406946384645
:1016100009F0C7FE10208DF80300ADF800406946C0
:10162000304609F0BEFE6700ADF8007069463046EE
:1016300009F0B7FE3946304609F01DFFEA4EADF815
:1016400000506946304609F0ACFE0221304609F0F0
:1016500014FF0120ADF800006946304609F0A1FEF4
:101660000121E24809F028FFE501ADF80050694684
:10167000304609F096FE2946304609F0FCFE294620
:10168000304609F0FAFE2946304609F0F4FEADF87E
:1016900000406946304609F084FE2146304609F094
:1016A000EAFE2146304609F0E8FE2146304609F0C0
:1016B000E2FEF8BD10B57D2009F09DFF08B10AF0EB
:1016C000A4F845F2555009F047FF032009F047FF01
:1016D00040F2537009F046FF09F047FFBDE81040A3
:1016E00009F048BF2DE9F04790B00C22019100218C
:1016F000ADF80C10ADF80810ADF80E20ADF80A10DA
:10170000102207928022ADF81010CDE909120225AF
:101710001826DFF8D49204240B910C910D9140F21D
:101720002558D7000F91A8B301284DD04FF4006978
:1017300002287DD003282AD1DFF8B4A20022414636
:1017400050460AF030F98DF802508DF80360A54D2F
:10175000ADF800706946284609F023FE8DF8034075
:10176000ADF800906946284609F01BFE01A95046D5
:101770000AF09CF8414650460AF0EBF90122414636
:1017800050460AF010F9012150460AF002F910B053
:10179000BDE8F087FFE7DFF85CA200224146504633
:1017A0000AF001F98DF802508DF803604FF40070D3
:1017B000ADF8000069464D46484609F0F2FD8DF847
:1017C0000340ADF80070CDE78B4F0022414638460C
:1017D0000AF0E9F88DF802508DF80360ADF800408A
:1017E00069464D46484609F0DCFD8DF80340082067
:1017F000ADF800006946284609F0D3FD01A9384636
:101800000AF054F87D4C204609F050FA391D059134
:1018100089140E9105A9204609F0B5FA0021204649
:1018200009F0DBFAA00409F0FEFA0122022100E02F
:1018300013E0204609F0DCFA0122802138460AF044
:10184000CAF8414638460AF084F901224146384632
:101850000AF0A9F80121384697E7DFF8A4A1002291
:10186000414650460AF09FF88DF802508DF803600B
:10187000ADF8007069465A4D6DE71CB54FF4006035
:10188000ADF804004820584C8DF8070001A9204607
:1018900009F087FDA114ADF8041003218DF806109E
:1018A00018218DF8071001A9204609F07AFD1420AF
:1018B0008DF8000001248DF8014004208DF802000D
:1018C0008DF80340684609F09EF913208DF800005A
:1018D0008DF8014005208DF802008DF80340684620
:1018E00009F091F91CBD70B5464E8CB030460AF037
:1018F0007BFA68460AF060FB07A809F00DFF002498
:1019000001258DF806408DF8075008208DF8040059
:101910008DF808508DF802408DF809408DF803408D
:1019200018208DF80A40ADF800008DF80B508DF8A6
:101930000550694630460AF06AFA8DF816408DF86F
:1019400017408DF81840ADF80C40ADF81040ADF8D8
:101950000E40ADF81240ADF814408DF8195003A8B0
:101960000AF0C9FA0122022130460AF0F3FC0CB059
:1019700070BDF0B585B04FF4806400904FF4805096
:10198000ADF804000020ADF80600ADF80C00ADF88D
:1019900008400C20174EADF80A0040F225550022F1
:1019A0002946304609F0FFFF02208DF8120018206A
:1019B0008DF8130060100C4FADF8100004A93846E4
:1019C00009F0EFFC04208DF81300ADF8104004A9D5
:1019D000384609F0E6FC6946304609F067FF13E037
:1019E000000C0140001001400008014000023000DE
:1019F000004C00400038014000440040800002409C
:101A00000048004000640040294630460AF0A1F832
:101A100001222946304609F0C6FF0121304609F06F
:101A2000B8FF05B0F0BDF8B54FF4A06009F0E6F8D6
:101A300025208DF8000001248DF801408DF802402A
:101A40008DF80340684609F0DEF826208DF8000086
:101A50008DF8014002268DF802608DF8034068463B
:101A600009F0D1F827208DF800008DF801400325FA
:101A70008DF802508DF80340684609F0C4F8342010
:101A80008DF800008DF8014004208DF802008DF8DB
:101A90000340684609F0B7F811208DF800008DF872
:101AA00001508DF802608DF80340684609F0ABF8EC
:101AB0000F21A01E00F087F8F8BD10B509F055FD04
:101AC000494C4A48217800294FF0010102D009F021
:101AD000D2FC01E009F0D1FC207810B10020207088
:101AE00010BD0120FBE710B586B0012145F27D0055
:101AF00009F05DFE0121480409F062FE012188041D
:101B000009F05EFE0121C80409F05AFE01214806D1
:101B100009F056FE0121084609F040FE684609F02A
:101B2000FBFD01984FF47A71B0FBF1F0B0F1807FCA
:101B30000DD220F07F404FF0E024401E60610F2165
:101B4000601700F040F80020A06107202061FFF737
:101B50003FFDFFF7AFFD4FF4165421460020FFF77D
:101B6000C1FD4FF48051224809F085FC4FF4E1316A
:101B70000120FFF7B7FD21460220FFF7B3FD214604
:101B80000320FFF7AFFDFFF778FEFFF7ACFEFFF78E
:101B90004AFF0FF067F82022164901280ED00228CC
:101BA0000CD003280AD0042808D013A0008808808D
:101BB0005220887006B0BDE810407EE70FA0008874
:101BC00008808A70F6E70907090E002806DA00F097
:101BD0000F0000F1E02080F8141D704700F1E020B4
:101BE00080F8001470470000000000200008014049
:101BF000000C01404C030020455252004F4B200086
:101C000010B501469B4800F0FFF8002804D09A4820
:101C1000417841F02001417010BD10B5FF22102124
:101C200095480DF052FB944C0020142160602079FF
:101C300040F02F002071607940F0E7006071A079DA
:101C400040F03F00A0718D480DF047FB8C488B4958
:101C5000006890F84900C0070DD08A480068026803
:101C6000C1F801204268C1F805200268D243226011
:101C70004068C043A0607F4851F8012F0838C26017
:101C800049680161142180480DF027FB79484FF025
:101C90004071016010BDF0B57C48764C0068083C8E
:101CA000808A618808437CD0744EE268784DD6F80B
:101CB0000100754990421ED080EA020310EA030732
:101CC00080EA03020CD06C4B5B681F40D1F80130F6
:101CD0001F43C1F8017003D00B7843F001030B7070
:101CE00022B1D1F801309343C1F80130E0602A8875
:101CF00042F004022A80D6F805202769BA421AD099
:101D000082EA070312EA030780EA030008D0D1F849
:101D100005303B43C1F805300B7843F001030B70ED
:101D200020B1D1F805308343C1F8053022612888FD
:101D300040F004002880D6F809006269904212D071
:101D400080EA020310EA030208D0D1F809301343F5
:101D5000C1F809300A7842F001020A7060612888EF
:101D600040F0040028803078820709D520F0020076
:101D70003070B07B20B18873087840F002000870A2
:101D80003078420709D520F004003070F07B20B194
:101D90000A7842F004020A70C873307802070CD542
:101DA00000E00AE020F008003070707B002804D0CA
:101DB0000A7842F008020A704873F0BD354A0020E4
:101DC00032F8101011B1491E22F81010401C80B2D8
:101DD0003028F5D3274A0020121F32F8101011B115
:101DE000491E22F81010401C80B20428F5D3704719
:101DF00020490839088808B1401E08804888002812
:101E000001D0401E488070470268D30730D0C2F32B
:101E100049030B44B3F57A7F23D340F2FE718A4322
:101E20004FF0806101EB72414FEAF131C1F3C522FD
:101E300001603C2A1CD321F4FC314FF0007202EB0C
:101E400031614FEA3121C1F34642C1F306630160BB
:101E50009A420DD321F47E0121F00101016001209D
:101E600070474FEAF22202EB81514FEA7151016053
:101E7000002070470C00002030370020C02E0020CA
:101E80003C00002048000020D42E00204C00002000
:101E9000800800208C010020002044F62061401CB6
:101EA00000B28842FBDB70476A4900200860704737
:101EB0006849086820F0010040F01C000860704785
:101EC00070B50546644C03E0FFF7E6FFFFF7F5FD4C
:101ED00020780028F8D1614E4FF4805421463046D6
:101EE00009F0CBFA28460DF041F9024629460020B8
:101EF00008F022FDFFF7D0FF21463046BDE87040D4
:101F000009F0B9BA2DE9F041524B15460C461A6852
:101F1000002A21D0FFF7D4FF26464F4C03E0FFF7FD
:101F2000BBFFFFF7CAFD20780028F8D14B4F4FF4D4
:101F300080542146384609F0A0FA2A46314600204E
:101F400008F0FAFCFFF7A8FF2146384609F093FA9B
:101F5000BDE8F04142A0B3E7BDE8F0812DE9FC41C6
:101F60000D463C4916460968002922D0FFF7A8FF14
:101F7000012400274FF0280816E015F8012B39A19D
:101F800068460CF0DFFE8DF804706846FFF798FF96
:101F900094FBF8F108FB114020B931A0FFF790FF46
:101FA000FFF78BFD641C24B2B442E6DD2CA0FFF7E2
:101FB00087FFBDE8FC810FB4264910B50968CA0740
:101FC0002ED0012802D0092802D004E0490700E001
:101FD0000905002924DA042829D006DC01280BD0C1
:101FE000022809D003280CD108E005281BD00A28B4
:101FF0001FD00F2805D118E01CA000E01DA0FFF79E
:102000005FFF144C04AB241D4FF4C87123601B48C0
:10201000039A0CF07DFE002020601848FFF750FF67
:1020200010BC5DF814FB16A0E9E717A0E7E719A0BC
:10203000E5E71BA0E3E770B51B4D0C460A460146D9
:102040002868401D0DF0FCF82868C470BDE8704099
:1020500003F05CBE1C00002024010020000C0140A5
:102060000D0A000025303258200000005B47505216
:10207000535D20005B534D535D200000BC010020E8
:102080005B50726F5D2000005B5570646174655D2C
:10209000200000005B4D6F6E65795D200000000040
:1020A0005B506172615D200078000020F8A1098812
:1020B0000180704710B504460DF058F881B201292F
:1020C00000D10221621812F8010C7D2804D07D2075
:1020D00002F8010C0020605410BD70B515460E4684
:1020E00004460DF043F820442B463246BDE87040CC
:1020F000E8A10CF027BE70B516460C46054602292D
:1021000003D0A4F1A6000B2807D828460DF02EF81E
:10211000284433462246E2A10CE0B4F5967F02D073
:10212000B4F5977FF1D128460DF020F828443346C6
:102130002246DEA1BDE870400CF004BE2DE9FC4152
:102140000D460446DD491F461646002001EBC0023D
:102150001288AA4276D101EBC000C07900F00701D5
:10216000032966D2DFE801F065020C0020460CF07E
:10217000FDFF20443B462A46C6A10CF0E3FD55E096
:10218000C0F3C200012806D0022816D0032826D0AA
:10219000042836D04AE030460FF090FB0FF088FA62
:1021A0000022C74B0EF0A6FE06460F4620460CF056
:1021B000DDFF20442A46C3A134E030460FF07EFB09
:1021C0000FF076FA0022C34B0EF094FE06460F463F
:1021D00020460CF0CBFF20442A46BFA122E0304627
:1021E0000FF06CFB0FF064FA0022BF4B0EF082FE82
:1021F00006460F4620460CF0B9FF20442A46BBA1F4
:1022000010E030460FF05AFB0FF052FA0022BB4BA1
:102210000EF070FE06460F4620460CF0A7FF204445
:102220002A46B7A1CDE900670CF08CFD0120BDE87E
:10223000FC8120460CF09AFF204433462A4698A1A0
:102240009BE7FFE7401C80B2B628FFF47FAF002079
:10225000EDE7FFB50546AE4883B01F460E460024A5
:1022600000EBC4010988B1425DD100EBC404E07900
:1022700000F0070003284ED2DFE800F04D020C000A
:1022800028460CF073FF28443B46324681A10CF0EF
:1022900059FD3DE005A804F02DFDE179C1F3C2012F
:1022A000012906D002290FD0032918D0042921D0F2
:1022B0002EE00FF0FDF904460F4628460CF056FFBD
:1022C000284432467FA11FE00FF0F2F904460F4682
:1022D00028460CF04BFF284432467FA114E00FF053
:1022E000E7F904460F4628460CF040FF28443246E2
:1022F0007EA109E00FF0DCF904460F4628460CF0F9
:1023000035FF284432467EA1CDE900470CF01AFD86
:10231000012007B0F0BD28460CF028FF28443246C3
:102320005FA1059BB3E7641CA4B21A2C98D30020CC
:10233000EFE72DE9FC470446764891460D460068D4
:1023400073491E46B0F80021002001EBC0031B8832
:10235000AB4274D101EBC000C07900F00701032942
:102360006ED2DFE801F086020C0020460CF0FEFE83
:10237000204433462A4647A10CF0E4FC76E0C0F343
:10238000C200DFF87881012806D002281AD003287D
:102390002AD0042855D069E0A5F5CB70022829D9A8
:1023A00048460FF08BFA0FF083F90022444B0EF0F1
:1023B000A1FD06460F4620460CF0D8FE20442A46D2
:1023C00040A14FE048460FF079FA0FF071F9002272
:1023D000404B0EF08FFD06460F4620460CF0C6FE21
:1023E00020442A463CA13DE0A5F29310DFF8F88096
:1023F000022812D810460EF019FF06460F4648462E
:102400000FF05CFA0FF054F9002243460EF072FD13
:1024100032463B460EF064FFCBE748460FF04EFADB
:102420000FF046F9002243460EF064FD06460F46C3
:1024300020460CF09BFE20442A462CA112E020E00E
:1024400017E048460FF03AFA0FF032F900224346FF
:102450000EF050FD06460F4620460CF087FE204445
:102460002A4627A1CDE900670CF06CFC0120BDE8ED
:10247000FC8720460CF07AFE20444B462A4608A1F1
:102480007AE7401C80B21A28FFF45FAF0020EEE725
:102490007B000000222564223A222573222C0000B2
:1024A000222564223A222564222C0000222564225F
:1024B0003A2225303458222C00000000081B010865
:1024C00000002440222564223A22252E3166222C47
:1024D0000000000000005940222564223A22252EE7
:1024E0003266222C0000000000408F40222564222A
:1024F0003A22252E3366222C000000000088C340BB
:10250000222564223A22252E3466222C0000000067
:10251000B82001084C00002070B50D4604460CF0B0
:1025200025FE20442A46BDE87040DCA10CF00ABC20
:10253000F8B51D0016460F46044619D0A6F57F4093
:10254000FF38204609D00CF011FE204433463A46AD
:10255000D5A100950CF0F6FBF8BD0CF007FE204469
:102560002B463A46D5A101B0BDE8F0400CF0EABBDD
:102570000CF0FCFD204433463A46D4A1F3E770B595
:1025800015460E4604460CF0F1FD20442B4632461B
:10259000BDE87040D1A10CF0D5BB70B515460E4614
:1025A00004460CF0E3FD20442B463246BDE8704063
:1025B000CDA10CF0C7BB002101707047F0B50368D6
:1025C000064600201A460746054604E02C2C0ED08D
:1025D0007D2C0CD05B1C1C78002CF7D1002F29D04F
:1025E00012F8013B222B25D100244A6004E01D7023
:1025F000F6E7222B10D0521C1378002BF9D1002CB7
:1026000018D012F8013B3A2B14D112F8013B222BBF
:1026100010D100238A6005E002F8015BF1E722296E
:1026200009D0521C11780029F9D1002B02D00120C9
:10263000521C3260F0BD02F8015BF8E770B5046827
:10264000054620787B2807D120460CF08FFD2044DA
:1026500010F8010C7D2801D0002070BD641C012001
:102660002C6070BD2DE9F05F0025804607689A4612
:1026700014468B46A9462E4608460CF077FDC2B29A
:102680003878222849D1B8184178222945D1807854
:102690003A2842D15946781C0CF087FDA8BB584611
:1026A0000CF064FD3844C178001D5B2935D101462A
:1026B000002202E05D2B07D0401C0378002BF9D1EB
:1026C000B9F1000F29D025E0027023E00025491C54
:1026D000222822D10B4600E0491C0878A8B1222804
:1026E000FAD101F8012B087810B12C2815D100E09F
:1026F00001260A70208804EB8005401C20806B6056
:1027000001251EB1891CC8F8001006E02388534536
:1027100003D2491C08780028D8D12846BDE8F09F8C
:10272000FEB5744D0E460021298050232A4672A121
:10273000FFF798FF002815D000240DE005EB84007A
:10274000416868460CF0EEFC684604F012FB06EBAC
:102750004401641C4880A4B22888A042EED828789E
:1027600030700120FEBDFEB50C46002605463746FA
:102770006946FFF723FF2A6801982060029860608D
:1027800012F8010B222854D10020A26002E0222975
:102790000AD0521C11780029F9D1002F7CD012F8F0
:1027A000011B3A2978D102E002F8010BF7E712F891
:1027B000011B7B2970D112F8011B22296CD1002347
:1027C000E26002E0222909D0521C11780029F9D1D7
:1027D0007BB312F8011B3A295ED102E002F8010B2B
:1027E000F7E712F8011B222956D10023226102E0EB
:1027F000222908D0521C11780029F9D1CBB11178C7
:102800002C2949D102E002F8010BF8E7517822297E
:1028100042D1921C0023626102E022290AD0521C9C
:1028200011780029F9D123B112F8011B3A2933D1CB
:1028300003E031E002F8010BF6E712F8011B7B29F7
:102840002AD112F8011B222926D10023A26102E01D
:10285000222909D0521C11780029F9D1E3B112F8CC
:10286000011B3A2918D102E002F8010BF7E712F830
:10287000011B222910D10023E26102E0222905D0A8
:10288000521C11780029F9D133B101E002F8010B93
:102890000120521C2A60FEBD3046FEBD2225642266
:1028A0003A7B7D2C00000000222564223A7B222501
:1028B00064223A222573227D2C0000002225642206
:1028C0003A7B22223A222573227D2C002225642283
:1028D0003A7B222564223A22227D2C002225732273
:1028E0003A222564222C0000222573223A222573E5
:1028F000222C00002C040020414C000010B5704C2C
:10290000238823F0080343F0050362F307134FF411
:102910007A622380904200DB10466080914200DBA7
:102920001146A18010BD6649088820F0F50040F0EE
:1029300008000880704770B5614C064661482288DF
:102940004FF480715307A4F10C050AD522F004025C
:10295000228008F090FD64206880208840F002000A
:102960000CE013070BD522F00802228008F085FD49
:102970004FF461706880208820F0020020800AF007
:10298000CAF8A0B1B5F9020000280DDC2088810743
:1029900005D520F0040040F00800208070BD20F034
:1029A000080040F00400F8E7801B688070BD2088B4
:1029B00040F00400F1E72DE9F041414D0A460C3D9D
:1029C00004786968002611446960B1F5FA6F09DB83
:1029D000641C6E60E1B2AE600170032900D1067024
:1029E000BDE8F08138484FF400410068B0F8553038
:1029F0000120A0400342334803D1BDE8F04108F074
:102A00003CBDAB68314F1A44AA6017F82420D207A6
:102A10000BD008F030FD57F82400AA68C0F34B0132
:102A20009142DDDC20F001000AE008F026FD57F8B5
:102A30002400AA68C0F34B319142D1DC40F0010080
:102A400047F82400AE60CBE71F490968B1F855107C
:102A500059B11B490C390A781AB1012A01D0022A4E
:102A600008D1014616480C38A5E74FF40041154837
:102A700008F003BD704715484FF4FA72016841F041
:102A8000010162F34C0162F3583101604168642234
:102A900041F0010162F34C014FF4617262F358316D
:102AA00041608168FA2241F0010162F34C0162F356
:102AB00058318160044900200968A1F85500704729
:102AC00030000020000801404C000020700500206C
:102AD000034610B50020024604E09C5C521C2044D2
:102AE000C0B212B28A42F8DB10BD2DE9F0410646B1
:102AF0000D46900700D0012000EBA20708F0D3F9A3
:102B0000352008F0E0FB002411E03046296808F089
:102B1000A2FA0246042806D0F9A10A20FFF74BFAD0
:102B20000020BDE8F081641C2D1D24B2361DBC427E
:102B3000EBDB08F0C4F90120F3E730B50023941073
:102B400003E020C85B1C20C11BB2A342F9DB12F0DA
:102B500003020BD00468002006E0C50024FA05F348
:102B6000401C01F8013B00B29042F6DB30BD70B56D
:102B70000024EC4D01280BD0022869D0032877D01F
:102B8000042874D11021E8480CF0A7FBE7A175E0F8
:102B9000E548E421F8380CF0A0FB1422E8A16868AD
:102BA0000CF04EFB686840F2E173012220F8143FFC
:102BB000E6A1428082800988418338210177E4A11F
:102BC0000E68C0F81D608988A0F8211083840A214E
:102BD000C18412210185E0A10B680361496841614C
:102BE0003421017680F83520662180F834104FF4C6
:102BF0007041C1864DF2F06181874FF460410187D9
:102C00004CF2DF51C1874FF4504141874BF2CE4126
:102C1000A0F84010A0F842200F21A0F84410A0F81E
:102C20004640D0A1A4300CF07DFA6868D1A15E3096
:102C30000CF078FA686842F22B3180F87C4000F89A
:102C40009A4F81877821C187A0F84040CBA115E039
:102C5000B548142114380CF040FBA868CCA10460DE
:102C60008480C48004814481848107E000E00AE01C
:102C7000AD48102110300CF030FBCAA1BDE8704007
:102C80000A20FFF798B970BD2DE9F04F85B00021FB
:102C90000391C949A34C009101280FD00E314FF484
:102CA0007C3202281AD00D1F4FF47A33032824D027
:102CB00004282ED0002005B0BDE8F08F606801F137
:102CC000DE0500F1DE0B0190281DBB4F4FF47E3670
:102CD000103FDFF8E882E424029024E0A06801902D
:102CE00000F10E0B0098B44F12300C3F0D46164603
:102CF000DFF8CC821424029015E02069AE4F00F179
:102D00000A0B083F4FF4703698461024CDE90101B4
:102D100009E0E068A84F00F10A0B3F1F1E469046ED
:102D20001024CDE90101A8EB0600B0FBF4F00490FB
:102D3000B146002028E0224648460099FFF7FDFEF4
:102D4000A01E81B2009803F0A0FF02990988884272
:102D500012D12968DBF80000814212D901200390CA
:102D6000DDE9001022460CF06BFA09EB0400386034
:102D7000404506D33E6004E0039810B12868401C2B
:102D800006D0A1440AF10100049982468842D2D3B8
:102D9000039890E770B50120FFF776FF864C143C4E
:102DA00048B90120FFF7E3FE4FF47E3060602088D1
:102DB00040F0010020800220FFF766FF48B90220A2
:102DC000FFF7D5FE4FF47C30A060208840F0020071
:102DD00020800320FFF758FF48B90320FFF7C7FE04
:102DE0004FF47030E060208840F0040020804D4DAA
:102DF00074A1286902680A20FFF7DDF8286976A126
:102E000042680A20FFF7D7F80420FFF73DFF48B9D2
:102E10000420FFF7ACFE4FF47A302061208840F0A8
:102E2000080020804CA168680A6842624968816293
:102E3000342180F82C1070BD2DE9F047394B012862
:102E400039D04FF47C31022842D04FF47A32032833
:102E50004AD004282DD1DE68574CB246241F06F113
:102E60000E079146884610250A362068410546D04F
:102E7000C20A4119C80AD202C002824203D04905DF
:102E800001D000F0F8FA3068401C3060A81E81B212
:102E9000504603F0FAFE38802A4651462068FFF774
:102EA00024FE2068284441192060414501D3C4F81C
:102EB0000090BDE8F0875E683F4CB24606F1E2073D
:102EC000103CE4254FF47E39DFF8F080DE36CCE7A5
:102ED0009E68394CB24606F112070C3C142589460F
:102EE000DFF8DC800E36C0E71E69334CB246083C82
:102EF00006F10E074FF4703990461025B4E775E0DF
:102F0000466C6173682053746F7265204661696C0A
:102F100020256421212121212121212121210D0A86
:102F20000000000038000020740600204F7468493B
:102F30006E666F2044656661756C740D0A00000052
:102F400030303030303030303030000058313800E0
:102F500030303030303100004454555F56322E301E
:102F60003400000062642E716878776C2E636F6D98
:102F700000000000434D4D544D0000005379735044
:102F80006172612044656661756C740D0A00000011
:102F9000557372506172612044656661756C740D81
:102FA0000A000000416C6D496E666F2044656661E1
:102FB000756C740D0A0000009408002020FF0300C7
:102FC000F8F70300416C6D496E6620202020253003
:102FD00034580D0A00000000507265416C6D496E56
:102FE0006620253034580D0A000000006FF30A00F7
:102FF00047E72DE9F047DFF8F093FC4E0346A9F1CF
:10300000140701280AD04FF47C3C022B0DD04FF45A
:103010007A38032B0FD0042818D112E075684FF4CA
:103020007E31F348E4247A6810E0B5686146F148DF
:103030001424BA680AE035694FF470314046FA68E2
:1030400003E0F5683A694146604610248A4201D09F
:10305000101B00E0001B22B24946FFF76EFD22461E
:10306000294648460CF032F800280CD0E2A10A208C
:10307000FEF7A1FF2246494628460CF0E1F8F06829
:10308000C188491CC18014E770B5D74C143C208816
:10309000C10709D020F0010020800120FFF7CCFEFD
:1030A000DCA10A20FEF787FF2088810709D520F0E0
:1030B000020020800220FFF7BFFEDAA10A20FEF7FF
:1030C0007AFF2078400725D5C84D686890F84900F8
:1030D000C0071FD00BF0DBFC00281BD02088D5498F
:1030E00020F004002080286951F8012F026049680F
:1030F00041600320FFF7A0FE2869CFA102680A20E3
:10310000FEF759FF2869D2A14268BDE870400A2045
:10311000FEF751BF70BDB548D3494160E4318160CD
:10312000243101611039C16020314161704710B50F
:1031300004460020A24209D38A4207D8881A4FF6D3
:10314000FF71401C01EA40001880012010BD10B53D
:1031500004460020A24204D38A4202D8101B1880E1
:10316000012010BD2DE9F0410C46022111800421FF
:103170009E4D1E4617464FF001081970AF284DD0DE
:1031800018DCAA2843D00CDCA72847D004DC9628FA
:103190002AD0A62824D13AE0A82838D0A9281FD1BF
:1031A0003CE0AB283AD0AC2831D0AD2836D0AE28A0
:1031B00016D12CE0B52838D008DCA0F1B0010529E3
:1031C0000ED2DFE801F0242B32323200B6282CD0A8
:1031D000B7282AD0B0F5967F10D0B0F5977F11D0E0
:1031E0004FF0000840469CE41022A04920460CF015
:1031F00027F80320307010203880F3E76869B0F8B2
:103200004C0002E06869B0F84E002080EAE7A6387A
:1032100000EBD070C0F34701012009E0A73800EBB4
:10322000D070C0F34701022002E0B238C1B20320DF
:1032300007F088FA2880E8E72DE9F84FDFF8AC813D
:1032400015460446A0F6C4100322D8F804C00E4662
:103250001F464FF0000B4FF0020A4FF004091E28E2
:1032600011D8A4F5106340F6C41040F6E211D13B2A
:1032700007D05B1F05D05B1F03D0844215D11423F8
:1032800019E00A2317E0A4F628203E2816D8A4F552
:10329000206340F6282040F666210CF15E0C643B6A
:1032A00003D05B1E01D08C4204D1A5F800A087F8A2
:1032B000009014E01E232B803A7010E0A4F6340036
:1032C00006281ED840F63400811DD8F808C0844274
:1032D00001D1042200E002222A8083F800906B468C
:1032E0002246FFF734FF48B1BDF800002A880CEBF6
:1032F000400130460BF0A4FF4FF0010B5846BDE8EB
:10330000F88F2A463146204601F0D9FD30B93B46B8
:103310002A4631462046FFF725FF08B10120EEE797
:10332000A5F800A0012087F80090092C26D2DFE83C
:1033300004F02505090D2511151A1F00D8F81410E1
:10334000098819E0D8F81410498815E0D8F8141045
:10335000898811E0D8F81410498A0DE0D8F81410C3
:10336000B1F87E1008E0D8F81410B1F8801003E02E
:10337000D8F81410B1F882103180C0E7D8F80400F2
:1033800090F84800712819D00EDC68281DD006DCA2
:1033900065281AD0662818D067286AD115E06F28EA
:1033A0000CD0702865D109E076380A2861D2DFE8B0
:1033B00000F0056060606005050505053B462A468E
:1033C0003146204600F0A7FA99E73B462A463146A7
:1033D000204600F0BDFA002891D13B462A463146EE
:1033E000204600F0C5FC8AE7940800203800002041
:1033F00020FF0300F8F703005772697465205061DD
:10340000726120213D205265616420506172610D1E
:103410000A00000053746F72652053797350617213
:10342000610D0A0053746F7265205573725061729A
:10343000610D0A00C02E002053746F726520416C2C
:103440006D496E666F20202020253034580D0A000B
:1034500053746F726520507265416C6D496E666F72
:1034600020253034580D0A007C050020631F002001
:10347000FFE7002043E710B5044607F014FD3520B0
:1034800007F021FF204607F048FD042801D0002066
:1034900010BD07F014FD012010BD0000FE49FF4AD9
:1034A00000200968528891F84810762924D00FDC52
:1034B0006F2921D007DC652903D0662901D068294E
:1034C00019D1F74813E0702916D0712913D113E0F0
:1034D0007E2911D006DC7B290ED07C290CD07D29D9
:1034E00009D109E07F2907D0C92904D1ED4800EBB3
:1034F000C200408880B27047E9488838F7E7EA4A56
:1035000010B55488E74B03EBC404648804805088EA
:1035100003EBC0008079087010BDE44A10B55488F0
:10352000E04B03EBC40464880480508803EBC000C4
:103530008079087010BD70B50546DD48002340F65F
:103540003401006802682846FEF7F8FDD94C0023D4
:1035500040F63E012068428B2846FEF7EFFD2068CA
:10356000002340F63F01828B2846FEF7E7FD2068E6
:10357000002340F64301B0F8AE202846FEF7DEFDFA
:103580002068002340F64401B0F8B0202846FEF73A
:10359000D5FD2068002340F61611B0F88420284697
:1035A000FEF7CCFD2068002340F63E11B0F8AC20B9
:1035B0002846FEF7C3FD2068002340F61711828DD0
:1035C0002846BDE87040FEF7B9BD70B5B94C054658
:1035D0000023206840F63D01B0F890202846FEF711
:1035E000ADFD2068002340F63C01C28A2846FEF764
:1035F000A5FD2068002340F63B01028B2846FEF71C
:103600009DFD2068002340F64201B0F8BC2028460A
:10361000FEF794FD2068002340F64101B0F8A82091
:103620002846FEF78BFD206800234FF40461B0F8B4
:10363000AA202846FEF782FD2068002340F64601B6
:10364000828C2846FEF77AFD2068002340F6470169
:10365000028C2846FEF772FD2068002340F64801E0
:10366000428D2846FEF76AFD2068002340F6490196
:10367000428C2846FEF762FD2068002340F61811B0
:10368000C28C2846FEF75AFD2068002340F6191127
:10369000C28B2846FEF752FD206800234FF41461C8
:1036A000028D2846FEF74AFD2068002340F66E0191
:1036B000B0F874212846BDE87040FEF73FBD70B5F4
:1036C0007C4C054600232068C821D0F88820284675
:1036D000FEF734FD20680023CA21D0F8B420284624
:1036E000FEF72CFD20680023CC21D0F88C20284642
:1036F000FEF724FD20680023CE21D0F8B82028460C
:10370000FEF71CFD206840F2D471B0F85F20284617
:10371000FEF7F1FC206840F2D571B0F86120284630
:10372000FEF7E9FC206840F2D671B0F86320284625
:10373000FEF7E1FC206840F2D771B0F8652028461A
:10374000FEF7D9FC20684FF4FB61B0F867202846EB
:10375000FEF7D1FC564C40F6360120688288284698
:10376000FEF7C9FC206840F63701C2882846FEF7FC
:10377000C2FC206840F6380102892846FEF7BBFCEF
:10378000206840F6390142892846FEF7B4FC2068DB
:1037900040F63A0182892846BDE87040FEF7ABBC8E
:1037A0002DE9FC41154688460846FEF77FFC404659
:1037B00008F0C7FF384E40A1306890F848204046D6
:1037C000FEF7DDFE3D480178002963D0002101703D
:1037D00040F6282440F655271F2139480BF07DFD7F
:1037E00001AB6A4636492046FFF726FD344A21469A
:1037F0004046FEF772FC0F34A4B2BC42ECD940F64E
:103800006424A71C01AB6A462D492046FFF714FD2E
:103810002B4803F055FA024621464046FEF76BFC62
:10382000641CA4B2BC42EDD926A240F6D111404698
:10383000FEF753FC26A240F6D6114046FEF74DFC9B
:10384000326840F6DB1140462E32FEF746FC234A32
:1038500096214046FEF741FCA62401AB6A46184972
:103860002046FFF77FFC164803F02AFA024621465D
:103870004046FEF740FC641CE4B2B82CEDD30D4C7E
:1038800042F228312068B0F855204046FEF733FC5C
:10389000206825E02BE000003C000020EC0900201F
:1038A000081B0108B8200108040A00201C0A002097
:1038B000400000204C000020505300004101002037
:1038C000CC0900204454555F56322E3000000000D1
:1038D0004454555F56322E3034000000631F0020E0
:1038E000B0F8742140F66E014046FEF704FC4046F5
:1038F000FEF7E0FBF7494FF08062086802EB3020EA
:103900004FEA306020F00100086040460BF02EFCCA
:103910002880BDE8FC8130B50225158004221A708C
:103920000124ED4A092806D00A2808D00B280BD01C
:103930000024204630BD1068B0F8A20002E01068F4
:10394000B0F8A4000880F4E71068B0F8A600F9E722
:10395000F0B502241480042640F2D277DE4C1E70AB
:10396000A0F2D275B8427DD04EDC48287BD028DC4E
:103970002C2879D012DC282877D008DC042875D0D0
:10398000092874D00A2873D00B2872D1C0E02928E6
:1039900070D02A286FD02B286BD1C9E033286BD088
:1039A00008DC2E2869D02F2868D0312867D032282B
:1039B0005FD1D4E0342871D0462870D0472858D140
:1039C000E9E0C8286CD00ADCA0F149000A2850D2EE
:1039D000DFE800F0F4F881FCEB81EAE9E8E7D128C0
:1039E0007BD008DCCA2879D0CC2878D0CE2877D0F4
:1039F000D02870D120E1A0F5E060CE3871D0012848
:103A000070D0022867D11FE16F2D6CD01FDCB34846
:103A1000662D69D012DC062D67D008DC022D6ED031
:103A2000032D6DD0042D6CD0052D54D128E1622DCD
:103A300068D0642D67D0652D4DD12FE1673D082DED
:103A400049D2DFE805F0F0EFEEEDECEBEAE9B5F591
:103A5000A27F71D025DC752D6FD017DC702D6DD055
:103A6000712D0DE0F8E0A5E069E055E03EE041E0B1
:103A70004AE030E054E057E079E064E067E06AE073
:103A800071D0722D70D0742D25D13DE1762D6CD082
:103A9000772D6BD0B5F5957F1DD170E06BE076E0AA
:103AA000B0E0B5F5B67F6ED00ADCA5F58075453D72
:103AB0006AD0012D69D0022D68D00D2D0BD19DE06B
:103AC000B5F5B77F6BD00A260327A5F54075E63D0F
:103AD00066D0052D6DD00020F0BDB1E096E0A3E0EA
:103AE000A6E0B5E0BCE0FFE0DBE0CDE02068B0F8A8
:103AF000420002E02068B0F8A200088036E1B3E09E
:103B0000B6E0B9E0C4E0C6E02068B0F8A400F4E78D
:103B10002068B0F8A600F0E72068B0F87000ECE785
:103B20002068B0F87200E8E72068B0F87400E4E7B5
:103B30002068B0F87600E0E7F2E0E8E0D8E020683E
:103B4000B0F87800D9E72068B0F8C000D5E7206861
:103B5000B0F8C200D1E72068B0F8C400CDE7206813
:103B6000B0F8C600C9E7C7E0CAE0D3E0D5E02068F6
:103B7000B0F8C800C1E72068B0F8CA00BDE7206807
:103B8000B0F8CC00B9E7D5E0D8E0CDE0CFE02068D0
:103B9000B0F89400B1E72068B0F89600ADE7D0E047
:103BA000D2E027E022E01DE018E013E00EE009E09B
:103BB00004E0D1E02068B0F898009EE72068B0F8F3
:103BC0009A009AE72068B0F89C0096E72068B0F861
:103BD000CE0092E72068B0F8D0008EE72068B0F8F9
:103BE000D2008AE72068B0F8D40086E72068B0F8F1
:103BF000D60082E72068B0F8D8007EE72068B0F8E9
:103C0000DA007AE72068D0F8880002E02068D0F86F
:103C1000B40008601680A9E062E058E054E04FE08C
:103C20004BE047E043E03FE02068D0F88C00F0E74D
:103C30002068D0F8B800ECE72068B0F850005CE7E6
:103C40002068B0F8520058E72068B0F8570054E7F1
:103C50002068B0F8590050E72068B0F85B004CE7E6
:103C60002068B0F85D0048E72068B0F85F0044E7DE
:103C70002068B0F8610040E72068B0F863003CE7D6
:103C80002068B0F8650038E72068B0F8670034E7CE
:103C90000068008831E7006880882EE70068C088E7
:103CA0002BE70068008928E70068408925E700685D
:103CB000808922E72068008B1FE72068C08A1CE704
:103CC0002068B0F8900018E72068408B15E720685E
:103CD000808B12E74C0100204C00002040000020A7
:103CE0002068B0F8AA0008E72068B0F8A80004E748
:103CF0002068B0F8BC0000E72068B0F8AE00FCE631
:103D00002068B0F8B000F8E62068808CF5E62068FE
:103D1000008CF2E62068408DEFE62068408CECE6EF
:103D20002068B0F88400E8E62068C08CE5E62068EA
:103D3000C08BE2E62068B0F8AC00DEE62068808D3B
:103D4000DBE62068008DD8E6206850F82E4F0C6026
:103D500044684C60008906E02068846B0C60C46B8A
:103D60004C60B0F84000088116801F700120B3E657
:103D700070B50224148004251D70F84BB0F5156F42
:103D800066D059DC40F65E06A0F65E04B04260D014
:103D90002CDCDE285ED00BDCA0F1D2000C285AD23D
:103DA000DFE800F09EA2A9ADB3B7BBC0C4C8CCD0B9
:103DB00040F64506A0F64504B0424DD009DCA0F11E
:103DC000DF00082847D2DFE800F0C5C989CD89D6D1
:103DD00089DA152C78D004DC0B2C76D00C2C7DD114
:103DE000CAE1172C72D0182C78D1DAE00E2C6ED0E4
:103DF00009DC73D2DFE804F072E9ED7272F1F5F9D3
:103E0000E3E2E1E0DFDE142C73D008DCA4F10F0460
:103E1000052C63D2DFE804F0F1F0EFEEED00EF2CBB
:103E200068D004DC152C6ED0EE2C57D145E1F02C77
:103E30006AD0F12C52D14CE140F67914A0F67912F7
:103E4000A0426ED01FDCA0F65110282846D204E014
:103E500043E1AAE07AE041E0CEE1DFE800F0F1F0F2
:103E6000EFEEEDECEBEAE9E8E7E6E5E4E3E2E13F7B
:103E70003FE03F3F3F3F3F3F3F3F3F3F3F3F3F3FB1
:103E80003FDFDEDDDCDB0D2A73D009DC26D2DFE884
:103E900002F025EEEDECEBEAE9E8E725E6E5E400E3
:103EA0001E2A67D008DCA2F11902052A16D2DFE823
:103EB00002F0EFEEEDECEB00212A70D008DC1F2AB7
:103EC0006ED0202A0AD1C7E15DE051E163E0CFE086
:103ED000222A6ED0A2F540722E3A58D0002070BD32
:103EE0001868B0F8240102E01868B0F826010880CC
:103EF0003DE0DAE0E5E01868B0F82801F7E7186877
:103F0000B0F82A01F3E7D4E0DFE01868B0F82C013C
:103F1000EDE71868B0F82E01E9E71868B0F830014D
:103F2000E5E745E11868B0F83201E0E71868B0F855
:103F30003401DCE71868B0F83601D8E71868B0F843
:103F40003801D4E71868B0F83A01D0E71868B0F83B
:103F50003C01CCE71868B0F83E01C8E71868D0F813
:103F6000400102E01868D0F8440108601580012083
:103F700070BD51E168E11868D0F84801F5E71868AC
:103F8000D0F84C01F1E71868B0F85001AFE71868B5
:103F9000B0F85201ABE71868B0F85401A7E75FE149
:103FA00056E11868B0F85601A1E71868B0F8580152
:103FB0009DE759E14DE048E043E027E022E01DE0C5
:103FC00013E00EE009E004E0FFE71868B0F85A01DA
:103FD0008DE71868B0F85C0189E71868B0F85E01F1
:103FE00085E71868B0F8600181E71868B0F86201E9
:103FF0007DE756E051E04CE042E03DE01868B0F863
:10400000640174E71868B0F8660170E71868B0F8E2
:1040100068016CE7C8E0C3E0BEE0B9E0B4E0AFE03F
:10402000A2E09DE095E090E08BE086E081E07CE01E
:1040300077E072E06DE068E063E05EE059E054E054
:104040004FE01868B0F86A0151E71868B0F86C01E1
:104050004DE71868B0F86E0149E7D9E0D4E0CFE049
:10406000C6E0C1E0BCE0B7E0B2E0ADE0A8E0A3E0AC
:104070001868B0F870013AE71868B0F8720136E7CE
:104080001868B0F8740132E7DAE0D5E0D0E0CBE0B0
:10409000C6E01868B0F8760129E71868B0F878012A
:1040A00025E71868B0F87A0121E71868B0F87C01B4
:1040B0001DE71868B0F87E0119E71868B0F88001AC
:1040C00015E71868B0F8820111E71868B0F88401A4
:1040D0000DE71868B0F8860109E71868B0F888019C
:1040E00005E71868B0F88A0101E71868B0F88C0194
:1040F000FDE61868B0F88E01F9E61868B0F890018E
:10410000F5E61868B0F89201F1E61868B0F8940185
:10411000EDE61868B0F89601E9E61868B0F898017D
:10412000E5E61868B0F89A01E1E61868B0F89C0175
:10413000DDE61868B0F89E01D9E61868B0F8A0016D
:10414000D5E61868B0F8A201D1E61868B0F8A40165
:10415000CDE61868B0F8A601C9E600004C000020C2
:104160001868B0F8A801C2E61868B0F8AA01BEE65F
:104170001868B0F8AC01BAE61868B0F8AE01B6E657
:104180001868B0F8B001B2E61868B0F8B201AEE64F
:104190001868B0F8B401AAE61868B0F8B601A6E647
:1041A0001868B0F8B801A2E61868B0F8BA019EE63F
:1041B0001868B0F8BC019AE61868B0F8BE0196E637
:1041C0001868B0F8C00192E61868B0F8C2018EE62F
:1041D0001868B0F8C4018AE61868B0F8C60186E627
:1041E0001868B0F8C80182E61868B0F8CA017EE61F
:1041F0001868B0F8CC017AE61868B0F8CE0176E617
:104200001868B0F8D00172E61868B0F8D2016EE60E
:104210001868B0F8D4016AE61868B0F8D60166E606
:104220001868B0F8D80162E61868B0F8DA015EE6FE
:104230001868B0F8DC015AE61868B0F8DE0156E6F6
:104240001868B0F8E00152E61868B0F8E2014EE6EE
:104250001868B0F8E4014AE61868B0F8E60146E6E6
:104260001868B0F8E80142E61868B0F8EA013EE6DE
:10427000FE4A10B50A2312685538602833D2DFE8A9
:1042800000F0303336393C3F4245484B4E5154578D
:104290005A5D606366696C6F7275787B7E81848716
:1042A0008A8D909396999C9FA2A5A8ABAEB1B4B706
:1042B000BABDF2F7FCFFEDECEBEAE9E8E7E6E5E48E
:1042C000E3E2E1E0DFDEDDDCDBDAD9D8D7D6D5D436
:1042D000D3D2D1D0CFCECDCCCBCAC9C8C7C6C5C426
:1042E000C3C2A2F8241110BDA2F8261110BDA2F875
:1042F000281110BDA2F82A1110BDA2F82C1110BD72
:10430000A2F82E1110BDA2F8301110BDA2F8321182
:1043100010BDA2F8341110BDA2F8361110BDA2F8DC
:10432000381110BDA2F83A1110BDA2F83C1110BD11
:10433000A2F83E1110BDC2F8401110BDC2F84411E0
:1043400010BDC2F8481110BDC2F84C1110BDA2F842
:10435000501110BDA2F8521110BDA2F8541110BD99
:10436000A2F8561110BDA2F8581110BDA2F85A11AA
:1043700010BDA2F85C1110BDA2F85E1110BDA2F82C
:10438000601110BDA2F8621110BDA2F8641110BD39
:10439000A2F8661110BDA2F8681110BDA2F86A114A
:1043A00010BDA2F86C1110BDA2F86E1110BDA2F8DC
:1043B000701110BDA2F8721110BDA2F8741110BDD9
:1043C000A2F8761110BDA2F8781110BDA2F87A11EA
:1043D00010BDA2F87C1110BDA2F87E1110BDA2F88C
:1043E000801110BDA2F8821110BDA2F8841110BD79
:1043F000A2F8861110BDA2F8881110BDB1FBF3F030
:10440000A2F88A0110BDD7E0D3E0CFE0CBE0C7E04F
:10441000C1E0BBE0B5E0AFE0A9E0A5E0A1E09DE030
:1044200099E095E091E08DE089E085E081E07DE034
:1044300077E073E06FE06BE065E061E05DE059E03C
:1044400055E051E04DE049E043E03FE039E033E042
:104450002DE029E025E021E01DE019E015E00FE066
:104460000BE005E0FFE7B1FBF3F0A2F88C0110BD13
:10447000B1FBF3F0A2F88E0110BDA2F8901110BDAF
:10448000B1FBF3F0A2F8920110BDA2F8941110BD97
:10449000A2F8961110BDA2F8981110BDA2F89A11B9
:1044A00010BDA2F89C1110BDA2F89E1110BDB1FB69
:1044B000F3F0A2F8A00110BDB1FBF3F0A2F8A20145
:1044C00010BDB1FBF3F0A2F8A40110BDA2F8A61133
:1044D00010BDB1FBF3F0A2F8A80110BDA2F8AA111B
:1044E00010BDA2F8AC1110BDA2F8AE1110BDA2F81B
:1044F000B01110BDA2F8B21110BDA2F8B41110BDD8
:10450000A2F8B61110BDB1FBF3F0A2F8B80110BDCE
:10451000A2F8BA1110BDA2F8BC1110BDA2F8BE11CC
:1045200010BDB1FBF3F0A2F8C00110BDA2F8C2119A
:1045300010BDA2F8C41110BDA2F8C61110BDA2F89A
:10454000C81110BDA2F8CA1110BDA2F8CC1110BD3F
:10455000A2F8CE1110BDA2F8D01110BDA2F8D21150
:1045600010BDA2F8D41110BDA2F8D61110BDB1FB38
:10457000F3F0A2F8D80110BDB1FBF3F0A2F8DA0114
:1045800010BDB1FBF3F0A2F8DC0110BDB1FBF3F0FC
:10459000A2F8DE0110BDB1FBF3F0A2F8E00110BDFE
:1045A000A2F8E21110BDA2F8E41110BDA2F8E611C4
:1045B00010BDA2F8E81110BDA2F8EA1110BDF0B5C7
:1045C0002B4927284B788A7891F803C043F080055F
:1045D00042F0100643F0200742F0040418D2DFE84E
:1045E00000F0172314172517171717171717171782
:1045F00017171717181B171F171717171723251724
:104600001727291717271717290042F0020088706B
:10461000F0BD4CF0800001E04CF04000C870F0BDEF
:1046200043F004004870F0BD4D70F0BD8E70F0BDD9
:104630004F70F0BD8C70F0BD30B50C4900220323E3
:104640000424096809281DD007DC18D2DFE800F02F
:10465000171D1D181717171F21000A2815D011281C
:1046600015D0122815D0172809D103E04C000020DE
:10467000C02E0020F848417941F00101417130BD60
:10468000062000E00520488230BD4A8230BD4C82C1
:1046900030BD4B8230BD70472DE9F74F82B0C1F37A
:1046A000803001904FF6FF7001EB8105EB4C00EA82
:1046B0004502EB482668029B0468EA48E64F2B2B2C
:1046C00000686ED02EDCDFF8A0B3A1F132052DB268
:1046D000DBF800A005EB85054AF00208CDF8008064
:1046E000DFF88C834FEA450CE04DB8F800904AF0B3
:1046F000040E4DD2DFE803F05156FEB69CA2A8FD91
:10470000FCFBFAF9F8F7F6F5F4F3F2F1F0EFEEED61
:10471000ECEBEAE9E8E76B72838BE6E5E4E3E2E1E0
:10472000E0DFDE00412B71D010DCA3F12C03152B50
:104730002ED2DFE803F0F5F4F3F2F1F0EFEEEDEC5A
:10474000EBEAE9E8E7E6E5E4E3E2E1004C2B6ED0D2
:104750000ADCA3F142030A2B1AD2DFE803F0EAE9EC
:104760001FE8E7E6E5E4E3E2512B73D008DC4D2BCC
:1047700071D04E2B70D04F2B6FD0502B08D1D6E27A
:10478000522B6BD0532B6AD0542B69D0B52B68D0E9
:10479000029805B0BDE8F04F6AE5018005B0BDE8BC
:1047A000F08FE5E1049A6F2A0ED004DC652A0BD065
:1047B000662A04D108E0712A06D0762A04D001EBDB
:1047C000810149004180E9E7A0F802C0E6E7B0F8BE
:1047D00057208A42E2D0A0F8571005E0B0F85920DF
:1047E0008A42DBD0A0F8591010F8541F01F00F01D5
:1047F00041F0080101700099CBF80010CEE7B0F845
:104800005B208A42CAD0A0F85B1006E0F4E1B0F861
:104810005D208A42C2D0A0F85D1010F8541F01F04C
:104820000F0141F008010170CBF800E0B6E756E255
:10483000B9F1000FB2D1A0F87E10AFE7B9F1000FC7
:10484000ACD1A0F88010A9E7B9F1000FA6D1A0F86B
:104850008210A3E76EE245E263E265E26DE26FE299
:1048600071E28FE2A0F84C100A044FF007040CD557
:10487000418A052907D0FF2903D0B97A41F0020106
:10488000B97205214182848288E7734A5FEA8178A0
:104890004FF002091378527A4FF0030C4FF00005E5
:1048A0006BD58482448A34BB43F002033B700A24F4
:1048B0006F4B3FE05AE157E154E190E1E3E0DFE084
:1048C000C6E0C2E0B3E0A9E1A1E1D1E1CEE1C4E1FB
:1048D000C1E1B7E1B4E1AAE1A7E1F5E0EBE0EDE089
:1048E000F8E0EEE0E4E0DAE0DCE0F0E0DDE0D3E0A8
:1048F000CFE0CBE088E12BE02AE144E10FE122E1C7
:1049000062E139E115E128E10EE117E14AE141E117
:10491000BEE1E2E0E9E052E14CE1B2E1EDE0F1E0DC
:1049200028E1D9E1D5E1D1E1CDE1C9E1C3E1BDE1C2
:1049300069E063E11C804F4B1C78E40703D01D60E5
:1049400087F80EC001E087F80E9042F002027A72FA
:10495000C907418A08D0032996D0A0F812C0787AF6
:1049600040F08000787219E704298DD0042141823B
:10497000B87A40F00100B87210E78582448ABCB171
:10498000FF2C14D0DFF8F0803C2443F00403A8F897
:1049900000403B70394B1C78E40703D01D6087F85A
:1049A0000FC001E087F80F9042F040027A72458212
:1049B0002E4B428A1B1F5C885CB110F8544F04F0E8
:1049C0000F0444F0080404704AF00804CBF80040D7
:1049D0005A8096F848007028C5D0F878CA0862F363
:1049E0004100F87078780A0962F3C30078704A09C8
:1049F000B878490A62F3000061F34510019961F348
:104A0000C710B870CAE6A0F84E1096F84800702893
:104A1000A9D078784A0B62F341007870F878019A4F
:104A2000C90B62F3820061F30000F870B6E6B0F8DB
:104A30005F208A4297D0A0F85F1010F8541F01F051
:104A40000F0141F001010170A8E6A0F86110A5E690
:104A5000A0F86310A2E60000C02E00203C00002059
:104A6000400000204C000020500100205400002095
:104A700004000020DC00002006000020E0000020F0
:104A8000A0F865108AE6A0F8671087E6A0F8A210E3
:104A900084E6A0F8A41081E6A0F8A6107EE6A0F8AF
:104AA00076107BE6A0F8741078E6A0F8702075E622
:104AB000A0F8781072E6A0F89A106FE6A0F89810A7
:104AC0006CE6A0F8942069E6A0F89C1066E6A0F8D1
:104AD000721063E6A0F8961060E6B0F8A810B1EB8B
:104AE000450F8FD0A0F8A820D9E0B0F8AA10B1EBFC
:104AF000450F87D0A0F8AA20D1E0C28A8A4295D07B
:104B0000C18203E0028B8A4290D0018390F8541056
:104B100001F00F0141F0020180F854103EE6C28B13
:104B20008A4291D0C183F1E7028C8A428CD0018401
:104B3000ECE7428C8A4287D04184E7E7828C8A4244
:104B400085D08184E2E7C28C8A429BD0C184DDE7B4
:104B5000028D8A4296D00185D8E7428D8A4291D053
:104B60004185D3E7A18019E6E18017E6218115E6AA
:104B7000618113E6A18111E6B0F884208A4284D0D5
:104B8000A0F8841031E0B0F8AC208A4286D0A0F8BA
:104B9000AC102AE0B0F8AE10B1EB450F84D0A0F80D
:104BA000AE2022E0B0F8B010B1EB450F85D0A0F8F0
:104BB000B0201AE0428B8A4285D0418308E0828B84
:104BC0008A4286D0818303E0828D8A4284D08185A7
:104BD00090F8541001F00F0141F004019CE72068A7
:104BE00088429BD0F8482160006810F8541F01F0FB
:104BF0000F0141F0040126E72E3000E0383005B007
:104C0000BDE8F04F02F009B9A0F84210C6E5C82986
:104C100001D94FF0000CA0F850C0BFE5C82901D958
:104C20004FF0000CA0F852C0B8E52980B6E52A88FC
:104C300041EA02410A22B1FBF2F1C0F88810ADE569
:104C40006980ABE56A8841EA02416422B1FBF2F176
:104C5000C0F8B410A2E5A980A0E5AA8841EA024103
:104C60006422B1FBF2F1C0F88C1097E5E98095E57C
:104C7000EA8841EA02416422B1FBF2F1C0F8B810BF
:104C80008CE5B0F890208A42C0D0A0F8901006E0E1
:104C9000B0F8BC10B1EB450FB8D0A0F8BC2010F8AC
:104CA000541F01F00F0141F00201CCE605B00846A7
:104CB000BDE8F04FC0E405B00846BDE8F04F7EE423
:104CC000A0F8C0106AE5A0F8C21067E5A0F8C420FB
:104CD00064E5A0F8C62061E5A0F8C8205EE5A0F86C
:104CE000CA205BE596F84820652A06D0662A04D0DB
:104CF000672A02D0682A11D104E0032909D00729C4
:104D000009D00BE0022904D0062904D0072904D0D9
:104D100004E0002102E0012100E00221A0F8CC1013
:104D20003CE5A0F8CE1039E5A0F8D01036E5A0F8A3
:104D3000D22033E5A0F8D42030E5A0F8D6202DE528
:104D4000A0F8D8202AE596F84820652A06D0662AD9
:104D500004D0672A02D0682A11D104E0032909D0BF
:104D6000072909D00BE0022904D0062904D007291D
:104D700004D004E0002102E0012100E00221A0F8BB
:104D8000DA100BE5C1F3C01190485CE6F0B5904A2B
:104D90001424064692F8513000201D465B1CB3FBDC
:104DA000F4F704FB173392F85070BB4213D022F88B
:104DB000156092F8513002EB4303198512F8511F28
:104DC000491CB1FBF4F304FB131111700121917024
:104DD0007E4A5170F0BD0120F0BD70B502467D489D
:104DE000002500EBC5063388934262D1F3795B0658
:104DF0005FD500EBC500C07900F00700052833D26D
:104E0000DFE800F0535303535300084602F022F842
:104E1000F279C2F3C202012A06D0022A0BD0032A79
:104E200010D0042A15D01FE06B4A6C4B0BF0BAFF70
:104E300000226B4B13E06B4A6B4B0BF0B3FF00226D
:104E40006A4B0CE06A4A6B4B0BF0ACFF00226A4BDA
:104E500005E06A4A6A4B0BF0A5FF0022694B0CF093
:104E60003FFA0CF09FF904463088B0F5046F09D082
:104E7000A0F50061413905D0491E03D0491E01D07B
:104E8000491E02D10A20B4FBF0F47088B279A1B2B5
:104E900080B2FFF77BFF5C48A1B2006890F8482021
:104EA0002846FFF7F9FB012070BD084601F061FFBD
:104EB000D9E76D1CADB2B62D93D3002070BDF0B50F
:104EC000022414800425504E3F4CA0F5C8701D707C
:104ED000242871D2DFE800F0121E2A373B3F4347F7
:104EE0004B4F5357BABABA68BABABABA6CBA74BAAC
:104EF0009ABA9EBAA2BAA6BAAAAEBAB2206890F876
:104F0000FE2012F0FF0F02D0B0F8DC0019E0B0F87C
:104F1000E20016E0206890F8FE2012F0FF0F02D0A9
:104F2000B0F8DE000DE0B0F8E4000AE0206890F888
:104F3000FE2012F0FF0F02D0B0F8E00001E0B0F860
:104F4000E60008803AE02068B0F8E800F9E7206859
:104F5000B0F8EA00F5E72068B0F8EC00F1E7206867
:104F6000B0F8EE00EDE72068B0F8F000E9E720685F
:104F7000B0F8F200E5E72068B0F8F400E1E7206857
:104F8000B0F8F600DDE726680A246427B6F8FC00CE
:104F9000D6F8F860B0FBF4F0C417E6FB070408602D
:104FA0004C600820108008E03068B0F85600C8E770
:104FB0002068D0F8020146E048E01D700120F0BDF5
:104FC0002068D0F806013EE04C0000205000002090
:104FD00078090020081B01087B14AE47E17A843F62
:104FE00000002440FCA9F1D24D62503F000059401E
:104FF0002D431CEBE2361A3F00408F40F168E388F6
:10500000B5F8E43E0088C3403C0000202068D0F89A
:105010000A0118E02068D0F80E0114E02068D0F8EA
:10502000120110E02068D0F816010CE03068B0F8EA
:10503000580086E72068D0F81C0102E02068D0F80C
:1050400020016424604308601580B6E70020F0BDAD
:105050002DE9F04FE64BE74CC1F380351E68E64B77
:1050600011281B680BD2DFE800F0090CCFD6EFF255
:10507000F532BAF8FFE9E8E7E6E5E4001980BDE8B3
:10508000F08F762A15D00CDC6F2A12D004DC652A4A
:105090000FD0662A10D10CE0702A0CD0712A0BD1E7
:1050A00007E07B3A052A07D2DFE802F005050B0D81
:1050B0000F00323900E0143901EB810040005880C4
:1050C000DDE79639F8E79139F6E77D39F4E7C94825
:1050D000A3F84C10DFF824B390F800C0407ADBF856
:1050E00000205FEA01484FF0020E4CF0020740F04A
:1050F00002004FF003094FF0000A18D5B3F812C0B0
:10510000BCF1000F0AD12770D20704D0CBF800A061
:1051100084F80E9001E084F80EE06072588A052849
:1051200044D005205882A07A40F0020024E05FEAD3
:10513000817823D5B3F812C0BCF1000F0AD12770D3
:10514000D20704D0CBF800A084F80E9001E084F8D8
:105150000EE06072C807588A07D0032826D0A3F84B
:105160001290607A40F080001FE004281ED00420D6
:105170005882A07A40F00100A07217E0588AA8B1C6
:105180004CF0040020709E480278D20704D0C0F88A
:1051900000A084F80F9001E084F80FE0588A28B14D
:1051A000A3F812A0607A40F04000607296F84800C0
:1051B000702885D0E078CA0862F34100E07060781A
:1051C0000A0962F3C30060704A09A078490A62F3D1
:1051D000000061F3451065F3C710A0704FE7A3F816
:1051E0004E1096F848007028F8D04A0B6078CB0B28
:1051F00062F34100E27861F3000065F3820263F339
:105200000002E27060703AE7B3F857008842E5D0D8
:10521000A3F8571005E0B3F85B008842DED0A3F88E
:105220005B1013F8540F00F00F0040F001001870ED
:1052300025E72FE029E023E01FE01BE017E013E063
:105240000BE007E003E0FFE7A3F87E1017E7A3F801
:10525000801014E7A3F8821011E7B3F85F008842CA
:10526000BCD0A3F85F10DCE7A3F8611007E7A3F850
:10527000631004E7A3F8651001E7A3F86710FEE6E2
:105280006F2AABD1A3F8A210F9E66F2AA6D1A3F832
:10529000A410F4E66F2AA1D1A3F8A610EFE6034606
:1052A000584830B442885448192A00687DD2DFE853
:1052B00002F00D1115191D2125292D3135393D41DA
:1052C00045494D51565B60656A7075000A4619463E
:1052D000DC3067E00A461946DE3063E00A461946CC
:1052E000E0305FE00A461946E2305BE00A461946C4
:1052F000E43057E00A461946E63053E00A461946BC
:10530000E8304FE00A461946EA304BE00A461946B3
:10531000EC3047E00A461946EE3043E00A461946AB
:10532000F0303FE00A461946F2303BE00A461946A3
:10533000F43037E00A461946F63033E00A4619469B
:10534000F8302FE00A461946FC302BE00A46194691
:10535000FE3027E00A46194600F5807022E00A4632
:10536000194600F581701DE00A46194600F5837064
:1053700018E00A46194600F5857013E00A461946FA
:1053800000F587700EE00A46194600F5897009E0BD
:105390000BE00A46194600F58B7003E00A461946F1
:1053A00000F58D7030BC09F04BBF30BC704730B594
:1053B000154A0446012092F8503092F85150AB4201
:1053C00012D032F81330238092F8503002EB4303AE
:1053D0001B8D0B8012F8501F1423491CB1FBF3F4F2
:1053E00003FB1411117030BD002082F8530030BD52
:1053F0003C000020C02E00204C000020DC000020DB
:10540000E0000020040A00207809002070B50C4656
:10541000002528B124B101F0ACFC01281DD101E028
:10542000002070BD204609F0A1FE082815D2B24820
:105430000022B2A1006840F82E2F42600281098844
:1054400020F8021B382100F8011B214609F06AFEF2
:10545000AB48018841F001010180284670BD70B55C
:1054600001250C46002806D001F083FC20B101285C
:1054700000D00025284670BD0020207007F04BFBAF
:10548000A04C20B1A0A000882081202003E09FA094
:10549000008820815220A0729DA10020FCF78BFD86
:1054A000A8A2AAA10020FCF786FD934EACA1002083
:1054B00032682E32FCF77FFD90A3AEA2B0A100208F
:1054C000FCF779FD3268B4A10020B2F8D630B832CA
:1054D000FCF771FD8B4AB6A10020FCF76CFD221D84
:1054E000B8A10020FCF767FDBBA10020E268FCF733
:1054F00062FD844ABDA108320020FCF75CFDC0A318
:10550000C2A2C5A10020FCF756FD81A10020FCF736
:1055100052FDAFE710B502F0DCFD012010BD70B503
:10552000012415460E46002807D001F022FC012870
:1055300004D0022806D00024204670BD002007F0C9
:10554000E4FBF9E729463046FFF7E4FFF4E770B5DE
:1055500005460C46084601F00CFC1DB114B1284666
:1055600001F007FC002070BD2DE9F04107460E4612
:105570000125084601F0FDFB08B1012400E00024EC
:105580007FB176B1384601F0F4FBA94958B1022841
:1055900016D0032818D004281BD000252846BDE8C3
:1055A000F0810020FBE70868002C64F3000008602D
:1055B000F4D1A0480078C007F0D101F0A2F9EDE7DE
:1055C000086864F3820002E0086864F3C3000860BE
:1055D000E4E7086864F30410F9E72DE9F0410246B6
:1055E0008AB00E460320115C23290AD0401C00B269
:1055F000115C0029F7D130B18FA1304609F0A2FB30
:1056000009E00021115490A1104609F059FD8FA125
:1056100001F0FFF910B100200AB0C0E78AA1002014
:1056200009F04EFD074688A1002009F049FD04005D
:105630000AD085A1002009F043FD050004D082A115
:10564000002009F03DFD804681A1384601F0E1F9D6
:10565000F8B180A1384601F0DCF900282AD07FA1FA
:10566000384601F0D6F9002833D07EA1384601F043
:10567000D0F9002833D07DA1384601F0CAF90028BE
:1056800032D03A467BA1304609F05CFB0025284623
:10569000C2E7424629462046FFF7B8FE28E02346E7
:1056A0003A4678A102E023463A467AA1304609F00C
:1056B00049FBECE701A92046FFF7D1FE0500F2D037
:1056C00001A8009023463A4676A1304609F03AFBFD
:1056D000DDE7424629462046FFF721FF08E029463C
:1056E0002046FFF734FF03E029462046FFF73CFF42
:1056F0000500D8D0D3E700003C0000205831380026
:10570000800800204C0300204F4B200045525200DF
:105710002F2A2A2A2A2A2A2A2A2A2A2A2A2A2A2AE4
:105720002A2A2A2A2A2A2A2A2A2A2A2A2A2A2A2AD9
:105730002A2A2A2A2A2A2A2A2A2A2A2A2A2A2A2FC4
:105740000D0A0000582D4454550000004465766948
:105750006365204D6F64656C3A2025730D0A000067
:105760004465766963652049442020203A202573EA
:105770000D0A00004454555F56322E3034000000AC
:105780004170702056657273696F6E203A202573E0
:105790002E25730D0A00000053657276657220494C
:1057A0006E666F203A2025733A25640D0A000000CA
:1057B000466C617368204D6F64656C203A202573D8
:1057C0000D0A000053494D204361726420202020BF
:1057D0003A2025730D0A0000475052532053696741
:1057E0006E616C203A2025640D0A00004750525328
:1057F000204D6F64656C20203A2025730D0A00004F
:1058000030393A35333A3130000000004A756E20A5
:1058100020372032303138004275696C6420546979
:105820006D6520203A2025732025730D0A000000A5
:105830001C000020E4000020466F726D617420653A
:1058400072720D0A000000002C0000002A524B006A
:105850005345540051554552590000004354524C91
:1058600000000000544553540000000044454255D8
:10587000470000002A524B2C25732C756E6B6F6EFF
:10588000770D0A002A524B2C25732C25732C4F4B75
:105890000D0A00002A524B2C25732C25732C4572BF
:1058A000720D0A002A524B2C25732C25732C25735C
:1058B0002C4F4B0D0A00000010B54FF48051FD48ED
:1058C00005F0DBFDFC48018821F00401018001881E
:1058D00041F008010180F84C60210C3C204606F0A4
:1058E00016F92046BDE81040012240F2266106F07C
:1058F0005AB8F148018821F008010180018841F07F
:10590000040101808114EB4805F0B5BD10B52021DC
:10591000EA4805F0B2FDEA48018821F0040101805F
:10592000018841F008010180E54C60210C3C2046D3
:1059300006F0EDF82046BDE81040012240F2266155
:1059400006F031B8DE48018821F0080101800188A5
:1059500041F0040101802021D84805F08CBD10B52C
:105960004FF48071D54805F088FDD648018821F0B4
:1059700004010180018841F008010180D14C6021BF
:105980000C3C204606F0C3F82046BDE8104001223A
:1059900040F2266106F007B8CA48018821F00801E4
:1059A0000180018841F0040101808115C34805F0A0
:1059B00062BD2DE9F0410D461F4616460446DC2126
:1059C00009F0ADFC6670A770207865F300002070C8
:1059D000BDE8F081C0E93512104720F8D01F4280A1
:1059E000704710B50278002153070FD5B0F8CE30BC
:1059F0005B1C9BB2A0F8CE30B0F8D240A34205D3D6
:105A0000A0F8CE1022F0040101700121084610BD5B
:105A100010B50278002113070FD5B0F8CE305B1C0B
:105A20009BB2A0F8CE30B0F8D040A34205D3A0F886
:105A3000CE1022F00C0101700121084610BD007843
:105A400000F00100704730B502784FF000031407F2
:105A50000DD480F86A108478A14207D1012180F822
:105A60006910A0F8CE3042F00801017030BD90F806
:105A70006920642A05D200F16A05541C80F8694047
:105A80005155A0F8CE3030BD10B5027891071BD526
:105A90000179491CC9B20171C37899420ED322F031
:105AA000020141F004010170002180F86910A0F8A2
:105AB000CE10D0F8D8008047012010BD421D1144FF
:105AC0004078012204F038FF002010BD70B590F836
:105AD0006940002600F16A05052C0AD9A01E81B292
:105AE000284601F0D2F8291931F8021C884200D169
:105AF0000126304670BD70B50446451D807828707B
:105B0000062068700B0AAB70E970110A2971014612
:105B10006A71601D01F0B9F8A871000AE8710820E7
:105B2000E07070BD70B50446451D80782870032074
:105B30006870080AA870E970100A28716A71062155
:105B4000601D01F0A2F8A871000AE8710820E07059
:105B500070BD70B505466C1DAE78049804F8016BF5
:105B6000102604F8016B0E0A04F8016B04F8031BFD
:105B7000110A04F8021C04F8012C04F8013B00216E
:105B800005E010F8012B491C04F8012BC9B2994219
:105B9000F7D3601B401F81B2681D01F076F804F84E
:105BA000010B000A04F8010B601B401FE87070BD78
:105BB00010B54548002418214464444809F0AFFB5F
:105BC000424801210170448010BD404A907111810A
:105BD00070473E4A18329071118170473A490D3131
:105BE000087820F007000870704737490E310878B0
:105BF00020F007000870704733490F31087820F013
:105C00000700087070478170704731482F4900685D
:105C1000183190F85A00C0F34100022802D0002049
:105C2000488070471220FBE72948284A0023006873
:105C3000183290F85A00C0F341015088401C80B2DD
:105C4000012907D002290AD0032902D1508018283F
:105C500003D8704750801128FBD95380704750807B
:105C60001828FBD912205080704710B51848174AE1
:105C700000230068518890F84800491C89B27628B2
:105C800035D00CDCA0F165000D282AD2DFE800F049
:105C9000333333332929292929292F2F2F007E280F
:105CA00020D017DC7B281DD07C2820D07D2818D15F
:105CB00018E00000000C01400C38014000100140C9
:105CC0000C4800400C4C004060000020EC09002013
:105CD0003C0000207F2805D0C92802D151800F291F
:105CE00003D810BD51800E29FBD3538010BD5180C5
:105CF0001129FAD210BD5180B529F6D210BD00206D
:105D00004FF47A71401C8842FCD3704710B50446AA
:105D1000D0F8D4008047FFF7F2FF002084F8690034
:105D2000A4F8CE002178207121F00C0141F002008E
:105D30002070E2786078611DBDE8104004F066BE16
:105D4000F0B5FE4B9A69824201D100200BE0DA697E
:105D5000824207D180785A7C904201D1012002E032
:105D6000022000E00320F54DF54A403501260027CA
:105D70002C1F1268012921D02F54215C491CC9B263
:105D800021540A2907D30A212154B2F8551086401C
:105D9000B143A2F85510B2F85500598A88420CD088
:105DA000E8490C6844F001040C6012F8541F01F03B
:105DB0000F0141F0080111705882F0BD2754295C91
:105DC000491CC9B229540529E5D305212954B2F843
:105DD000551086403143DCE77047D84A0A321178C3
:105DE000CB0708D021F00101117002F14C010A78B3
:105DF00060F341020A70704730B5D04D0A352C78F7
:105E000020B1012805D044F0040004E044F0010072
:105E100001E044F00200C0B261F3041062F3C30079
:105E20002870C648838230BD2DE9FC47C34D8146AA
:105E30006879002870D0C44E307800286CD0C34FE9
:105E400000244FF00108387D012856D0032854D093
:105E5000BF48E978006805295CD2DFE801F003203B
:105E600023262E00B5207880FDF718FBADF804003E
:105E7000697889F80210014601224846FFF752FE70
:105E8000BDF804100320FFF7A0FE4846FFF73EFFD1
:105E900087F814800122BDF8043011462AE030F85A
:105EA0004A1F04E030F84C1F01E030F84E1FADF8F7
:105EB0000410C088ADF8000007E0694601A8FFF7AC
:105EC00076FA28B3E878002826D0697889F8021095
:105ED000BDF80020BDF804104846FFF70CFEBDF8E1
:105EE00004100620FFF771FE02203875BDF804305B
:105EF000012200210220FFF77FFF387D70B18F491A
:105F00000D31012813D002283FD0032856D145E097
:105F1000347069E0EC703470BDE8FC877C75FFF785
:105F20005DFE4846FFF7F2FE87F81480F4E7087834
:105F3000C1070ED081070CD501214846FFF700FFAD
:105F40008448007810B10420E87037E085F80380B9
:105F500034E0410703D4C107DED08007DCD4787D6C
:105F6000401CC0B27875032809D37C750020FFF768
:105F700034FF00214846FFF7E3FE3C75CAE7FFF710
:105F80002DFE4846FFF7C2FEC6E77C75FFF726FEEA
:105F90004846FFF7BBFE03203875BDE70878C10708
:105FA0000ED081070CD501214846FFF7C9FEE878DD
:105FB000401CC0B2E870042800D9EC703C75ABE717
:105FC000410703D4C107A7D08007A5D4787D401C22
:105FD000C0B278750528D2D37C750020FFF7FDFE8E
:105FE00000214846FFF7ACFE3C75EC7094E72DE9C4
:105FF000F84F524D04468946687938B152490878BD
:1060000068B14946A869BDE8F84F0DE74B4840F232
:10601000F1315630418008218180BDE8F88F4B4E28
:1060200000274FF0010B307D4FF0020A01283FD0CE
:1060300003283DD04848037893B10770444800686E
:1060400090F848007128E8DA682806D0E5DC652871
:1060500003D0662801D06728DFD181F800B0DCE7E3
:1060600095F9080095F9091050EA010320D0092399
:10607000984628B1394901202F720246086005E090
:1060800021B1374901206F72022208606878A07040
:1060900019462046FFF72FFD41460620FFF795FDE4
:1060A00086F814A04346012200210220FFF7A4FE37
:1060B0002878C8B12F706878A07020484FF02F085A
:1060C000503000900623032241462046FFF741FD51
:1060D00041461020FFF779FD86F814A043460122BF
:1060E00000210220FFF788FE1449307D443140B181
:1060F000A1F1370201285DD002287CD003287BD192
:1061000089E00868C2070AD000EB49003222086023
:10611000B2EB500F00D80F600878C0079FD1777599
:10612000FFF75CFD0A48006890F84810762927D0F0
:1061300023DC6F2924D01BDC652913E060000020DC
:106140004C000020500100205C000020EC090020E1
:106150003C0000205000002051000020DC00002006
:10616000E00000200CD066290AD067290BD107E097
:10617000702905D0712906D102E07B39042902D8A3
:10618000FDF78CF980466878A070012241462046D0
:10619000FFF7C8FC41460320FFF717FD2046FFF735
:1061A000B5FD0122434611460220FFF725FE86F881
:1061B00014B032E71078C2070AD0820708D5086801
:1061C00040F0010008600120FFF707FE012110E008
:1061D000410703D4C107ECD08007EAD4707D401C8E
:1061E000C0B2707503283AD377750020FFF7F5FD2C
:1061F0000021204601E005E02FE0FFF7A1FDFFF7B9
:1062000034FD2AE07775FFF7E9FC2046FFF77EFDB5
:106210000320307501E71078C2070AD0820708D53D
:10622000086840F0010008600120FFF7D6FD012159
:1062300010E0410703D4C107BBD08007B9D4707DFB
:10624000401CC0B27075052809D377750020FFF790
:10625000C4FD00212046FFF773FD3775DDE6FFF72B
:10626000BDFC2046BDE8F84F50E52DE9FE43FB4F4D
:106270000646FB4D38788946002407F10B08E0B14B
:106280003C702F21ADF80410787CB07007F15000FD
:106290000090062303223046FFF75BFCBDF8041094
:1062A0001020FFF796FC0220287598F8000020F0D7
:1062B000100040F0040088F80000E84A287D4832C9
:1062C00040B1A2F13A0101283FD0022862D0032850
:1062D00059D167E01068C1070AD000EB49004FF4BC
:1062E000FA711060B1EB500F00D81460BDE8FE8366
:1062F0006C75FFF77AFC02A901A8FDF700F9D948EF
:1063000069880068112903D990F85800387402E0B0
:1063100090F856007874B0709DF80800BDF804102D
:1063200042083046FFF7FEFBBDF804100320FFF7DC
:1063300050FC3046FFF7EAFC98F8000040F01400EB
:1063400088F8000001202875D0E70878C10707D039
:10635000810705D51068012140F0010010600DE0B3
:10636000410703D4C107C1D08007BFD4687D401C5A
:10637000C0B26875032807D36C7500213046FFF75B
:10638000DFFCFFF751FC29E0FFF72FFC3046FFF759
:10639000BDFCABE76C75FFF728FC3046FFF7B6FC99
:1063A0000320D0E70978C80707D0880705D510680B
:1063B000012140F0010010600DE0480703D4C80738
:1063C00094D0880792D4687D401CC0B268750528B7
:1063D000DAD36C7500213046FFF7B2FC2C7585E7E7
:1063E0002DE9FC419E4C9D4F18344C370546227DCB
:1063F0003B6800208AB121463B46497D1B68491C09
:1064000043F00106CBB2A7F13D01012A09783ED045
:10641000022A60D0032A76D165E0DA070AD003EBBE
:1064200041014FF4FA723960B2EB510F00D8386075
:10643000BDE8FC816075FFF7DFFB01A96846FDF749
:106440006CF88848628885490068112A03D990F859
:106450005800087402E090F856004874A8709DF83F
:106460000400BDF8001042082846FFF75BFBBDF8AA
:1064700000100320FFF7ADFB2846FFF747FC7749E4
:106480000C31087840F01400087001203BE0744A99
:106490005FEAC17C02F11802528802F1010292B255
:1064A00004D05FEA817C01D53E6009E04E0703D449
:1064B000CE07BDD08907BBD46375032B05D36075A8
:1064C0006280182A1FD960801DE0FFF795FB2846DF
:1064D000FFF71CFCACE76075FFF78EFB2846FFF763
:1064E00015FC03200FE0CA0703D08A0701D53E60E0
:1064F00009E04A0703D4CA079AD0890798D463757C
:10650000052BE2D36075207592E72DE9F047DFF89F
:106510004CC19CF80500002876D09CF804000028A7
:1065200072D000208CF80400DCF81800FFF770FA35
:106530004A4F0D3700287BD0387820F0020040F019
:1065400001003870DCF8180090F86B50032D44D02F
:10655000062D01D0102D57D190F86910082900D9C7
:10656000082180F86910B0F86C104CBAB0F86E10C1
:106570004EBAE146FFF7AAFA002845D03749394814
:106580005631A1F14C08032D33D04FF470424FF433
:1065900060434FF4504C062D01D0102D34D198F8A3
:1065A00000505FEAC5682FD497F80080ED0748F0E7
:1065B000020887F8008027D0006890F84800652816
:1065C00003D0662801D067281ED194421CD09C427B
:1065D0001AD0644518D04C8015E090F86C10022950
:1065E00012D190F869100729C3D9072180F86910E2
:1065F000BFE798F80020D30608D53B78D20743F0D0
:1066000002033B7002D08E80BDE8F0870068D9F8A5
:10661000181090F848201248B1F86D10183849BA8F
:10662000762A23D00FDCA2F165030D2BECD200E01B
:1066300026E0DFE803F020202020070707070707F0
:106640001B1B1B00E0E77E2A10D00DDC7B2A0DD03F
:106650007C2A0BD07D2AD7D108E000006000002002
:10666000040A00203C0000207F2ACDD14088BDE8EC
:10667000F047FEF7EDBC4088BDE8F047FEF70CB8E8
:10668000DCF81800017811F0010FBDD0FFF7A9F96F
:106690000028B9D0387840F004003870B4E72DE90C
:1066A000F041D44FB87900286ED00020B871F86955
:1066B000FFF7AEF907F10E0698B3307820F002002C
:1066C00040F001003070F86990F86B40032C09D05D
:1066D000062C01D0102C57D190F8691008290BD93D
:1066E000082109E090F86C1002294DD30D4690F86E
:1066F0006920491D8A4201D980F86910FFF7E6F93F
:10670000002841D0BB480B30032C0BD0062C01D005
:10671000102C39D10078C00636D4307840F0020011
:1067200031E028E00078C00603D5307840F0020060
:106730003070F9692A46B0486D3108F081FDAE48E5
:10674000022D02D0042D04D00BE0017842780270B3
:1067500006E00178C2780270C17081784278827058
:106760004170A648E9B2006890F84820BDE8F041C1
:10677000A148FEF794BDF869FFF733F9002803D06C
:10678000307840F004003070BDE8F08100B585B08D
:10679000C0B10188009100218DF808108DF8091012
:1067A00008218DF80A104168CDF80B108068CDF8EB
:1067B0000F006946924805F059FC042804D00020D7
:1067C00005B000BD0120FBE70220F9E72DE9F0410B
:1067D000884F4FF00008F879002872D087F80780BA
:1067E000386AFFF715F907F10F06E8B3307820F0A3
:1067F000020040F001003070386A90F86B40032CC2
:1068000009D0062C01D0102CBED190F869100829AF
:106810000BD9082109E090F86C100229B4D30D4679
:1068200090F86920491D8A4201D980F86910FFF764
:106830004DF90028A8D06F480C30032C04D0062C4A
:106840002FD0102C2DD03CE00078C00603D5307836
:1068500040F0020030706848396A2A4614306D31C1
:1068600008F0EEFC644800E023E01430022D02D072
:10687000042D04D00BE001784278027006E0017824
:10688000C2780270C17081784278827041705B4832
:10689000E9B2006890F8482057481430FEF7FFFC32
:1068A0000FE00078C0060CD4307840F00200307061
:1068B0006AE7386AFFF795F818B1307840F00400BD
:1068C0003070B8780028F3D087F80280BDE8F04136
:1068D00049480C385AE710B5464C002201231146AE
:1068E000A069FFF766F8A0690A214FF49672A0F834
:1068F000D010A0F8D220D4E90912BDE81040FFF76B
:1069000069B810B53B4C6079002819D14FF4165086
:10691000FBF72FF8FFF74CF9012300221946A06975
:10692000FFF747F8A0690A214FF49672A0F8D0103B
:10693000A0F8D220D4E90912FFF74CF801206071C9
:1069400010BD10B54FF416510220FAF7CBFE294CBA
:10695000012302221946E069FFF72BF8E0691421B0
:106960004FF4FA72A0F8D010A0F8D220D4E90B129C
:10697000FFF730F8BDE81040FFF747B910B54FF406
:1069800016510320FAF7AEFE1A4C012303221946D2
:10699000206AFFF70EF8206A14214FF4FA72A0F86B
:1069A000D010A0F8D220D4E90D12BDE81040FFF7B6
:1069B00011B81049020E50310A70020C4A70020AD6
:1069C0008A70C87000200871487101205039087021
:1069D0007047017A00290CD1064A012191700649BD
:1069E00002680C390A60D0F80B204A60D0F80F001A
:1069F0008860704760000020400A00203C000020B2
:106A000000640040A0F16101192901D82038C0B20A
:106A1000704710B50A46034613F8010BFFF7F2FF63
:106A2000044612F8010BFFF7EDFF844203D1002C5E
:106A3000F2D1002010BD844202D24FF0FF3000E0BE
:106A40000120C0B210BD70B50C46054600230CE015
:106A500015F8010BFFF7D6FF064614F8010BFFF7F8
:106A6000D1FF864203D15B1C9BB29342F0D3864296
:106A700002D14FF0000070BD02D24FF0FF3001E0B4
:106A80004FF00100C0B270BD70B50D46064608F06B
:106A90006DFB0446284608F069FB844201D00120C2
:106AA00070BD304608F062FB82B229463046BDE830
:106AB0007040C8E7017819B1C9B230390A2901D349
:106AC0000020704710F8011F0029F5D10120704700
:106AD000017881B1C9B2A1F13002092A05D9113A70
