:020000040800F2
:1010000048400020C1120008F58A0008D576000883
:101010007988000893410008C9F800080000000022
:1010200000000000000000000000000003B70008FE
:10103000F348000800000000D7120008D1C80008DB
:10104000DB120008DB120008DB120008DB120008CC
:10105000DB120008DB120008DB120008DB120008BC
:10106000DB120008DB120008DB120008DB120008AC
:10107000DB120008DB120008DB120008DB1200089C
:1010800091460008D5460008DB120008DB12000874
:1010900009F20008DB120008DB120008DB1200086E
:1010A000DB120008DB120008DB120008DB1200086C
:1010B000DB120008DB120008DB120008DB1200085C
:1010C000DB120008DB120008DB120008DB1200084C
:1010D000DB12000881EE000891EF000815F000080F
:1010E000DB120008DB120008DB120008DB1200082C
:1010F000DB120008DB120008DB120008DB1200081C
:10110000DB120008DB120008DB120008DB1200080B
:10111000FDED0008DB120008DB120008DB120008FE
:10112000DB120008DB120008DB120008DB120008EB
:1011300000F002F800F0B4F80AA090E8000C824435
:101140008344AAF10107DA4501D100F0A9F8AFF212
:10115000090EBAE80F0013F0010F18BFFB1A43F095
:10116000010318473C2A01005C2A01000A444FF0A1
:10117000000C10F8013B13F0070408BF10F8014BF6
:101180001D1108BF10F8015B641E05D010F8016B3B
:10119000641E01F8016BF9D113F0080F1EBF10F89F
:1011A000014BAD1C0C1B09D16D1E58BF01F801CBC2
:1011B000FAD505E014F8016B01F8016B6D1EF9D545
:1011C0009142D6D37047000000230024002500265A
:1011D000103A28BF78C1FBD8520728BF30C148BF9A
:1011E0000B6070476E2900F04185702900F0B381D3
:1011F000662911F09781652911F09481672911F012
:101200009181612911F0908103681B0A28BF41F088
:101210008001692900F02481642900F02181752969
:1012200000F01E816F2901F03D80782900F07F8158
:10123000E92900F0D787E42900F0D487F52900F0E8
:10124000D187EF2901F03A80F82900F07E81036808
:10125000DB0928BF41F08001632900F0588773291A
:1012600000F05D87E32901F0F782F32901F0FC82A9
:10127000002070471FB59DE8030000F02FFC01F02F
:10128000BFF804000020002110F010FB401C60603B
:101290000020002110F0F4FAE0601FBD10B510BD71
:1012A00001F0EAFB1146FFF7E5FF0FF0D3FB01F079
:1012B00016FC03B4FFF7F2FF03BC01F043FC00008F
:1012C0000948804709480047FEE7FEE7FEE7FEE7DA
:1012D000FEE7FEE7FEE7FEE7FEE7FEE70448054916
:1012E000054A064B7047000029CB00083111000861
:1012F000483A002048400020483C0020483C00205C
:1013000070B5064600F0CAFB056806F10B0020F038
:101310000704B4429CBF002070BD2B466A68BAB176
:101320001068A04210D304F1080188423CBF506805
:10133000586007D35168101941601168091B01609A
:1013400058601460101D70BD13465268002AE7D122
:101350002146284600F0AEFB0028DED170BD00001B
:101360007CB51D4616460C00009001D02044401E5E
:10137000074B7B442A4669460190304600F09DFEAB
:1013800005461CB10020694600F0AAFE28467CBD37
:10139000750D00000FB41CB5084B06AA7B446946C6
:1013A0000090059800F089FE04460020694600F090
:1013B00097FE20461CBC5DF814FB0000410D0000A8
:1013C00070B5044685690068C10601D5302600E085
:1013D0002026C00707D070BDD4E9012130469047D0
:1013E000206A401C20626D1EF6D570BD70B50446A3
:1013F00085690078C00707D170BDD4E9012120209C
:101400009047206A401C20626D1EF6D570BD70B5F5
:101410000C460546012A05D02878800600D5EA69E1
:10142000002302E0012305E05B1C934202D2E05C52
:101430000028F9D1A869E618C01AA861286A1844DA
:1014400028622846FFF7BCFF04E0D5E9012114F823
:10145000010B9047B442F8D32846FFF7C7FF70BD91
:101460002DE9F0410646002410687529314616A57D
:1014700010D000F090FB002802DA404213A507E0EC
:1014800031688A0701D512A502E0490704D511A5E4
:10149000012401E000F088FB00210A2206F1240764
:1014A00009E0B0FBF2FCB0FBF2F302FB1C003030B1
:1014B00078541846491C0028F3D123462A46304662
:1014C000BDE8F04100F079BB000000002D000000F5
:1014D0002B00000020000000F0B40D460188090533
:1014E00002D5214C7C4402E01F4C7C440E34002188
:1014F00000F1240608E002F00F071209E75D42EA56
:1015000003721B097754491C52EA0307F3D102788E
:101510000023120704D5702D06D009B1022311341F
:101520002246F0BC00F049BB01231034F8E770B547
:1015300004460D462146106800F036FB0246294657
:101540002046BDE870400023C6E7D21D22F0070305
:10155000D3E90023C0E70368126843F02003036067
:101560000823C3610023B7E7282201002DE9F05FBB
:10157000894604464FF0000ADFF874B1FB44C0F816
:1015800020A02046E1688847002874D0252806D08E
:10159000D4E901219047206A401C2062F1E700262F
:1015A0005F462046E16888472028054607DB312D45
:1015B00005D2781910F8200C08B10643F1E7B007FE
:1015C00001D526F00406C4F81CA00027C4F818A012
:1015D0002A2D09D028460EF041FE38B304EB8708C7
:1015E000303DC8F8185019E059F8041B204604EBA8
:1015F00087029161E1688847012F054618D1E069AB
:10160000002820DA26F020061DE0D8F8180000EBAC
:10161000800005EB40003038C8F818002046E1682B
:10162000884705460EF01AFE0028EED1012F0AD099
:101630002E2D08D12046E16888477F1C0546022FE1
:1016400046F02006C4DBA069002803DA404246F0D9
:101650000106A061F00701D026F010066C2D0BD01A
:10166000682D09D04C2D39D06A2D35D0742D35D048
:101670007A2D33D016E038E0E1682F4620468847BF
:10168000B842054609D16C2F26D04FF48060E1683E
:10169000064320468847054604E06C2F1AD04FF4D5
:1016A000807006430DB3A5F14100192802D82035FA
:1016B00046F400664A462946204626604E46FFF715
:1016C00091FD80B101280BD0F61D26F0070000F136
:1016D000080956E74020E4E78020D8E70020D6E755
:1016E00006F104094DE7284652E7206ABDE8F09F5D
:1016F000B821010070B5064600F0D4F9046805462B
:1017000030460A22002100F0E3FD2C6070BD00008D
:10171000014A00F015BE0000D001002040EA01039C
:1017200010B59B070FD1042A0DD310C808C9121F8A
:101730009C42F8D020BA19BA884201D9012010BDC4
:101740004FF0FF3010BD1AB1D30703D0521C07E091
:10175000002010BD10F8013B11F8014B1B1B07D1F5
:1017600010F8013B11F8014B1B1B01D1921EF1D166
:10177000184610BD40EA0103024630B59B0710D160
:101780004FF0013400E008C208C91D1B9D4315EA53
:10179000C41FF8D013F0FF0102F8011B0DD01B0A83
:1017A000F8E711F8013B002B02F8013B05D011F8D6
:1017B000013B002B02F8013BF3D130BD10B5431CB7
:1017C00002E010F8011B71B18107FAD14FF001322C
:1017D00002C88C1A8C4314EAC211F9D0C01A0A0646
:1017E00003D0C01E10BDC01A10BD0A0401D0801E57
:1017F00010BD0902FCD0401E10BD40EA010370B5C7
:101800009B072ED14FF00136042A2AD308C810C9ED
:101810009D1B9D43121F15EAC61517D0D8B2E1B221
:10182000401A50EA056110D198B2A1B2401A50EAAC
:1018300005410AD123F07F4024F07F41401A50EA4D
:10184000052102D1180EA0EB146070BDA342DBD0BD
:1018500018BA21BA884201D9012070BD4FF0FF307B
:1018600070BD0AB9002070BD10F8013B11F8014BA2
:1018700063B1A3420AD1521E08D010F8013B11F8FF
:10188000014B1BB1A34201D1521EEDD1181B70BDFB
:10189000032A40F2308010F0030C00F0158011F89C
:1018A000013BBCF1020F624498BF11F801CB00F874
:1018B000013B38BF11F8013BA2F1040298BF00F8C8
:1018C00001CB38BF00F8013B11F0030300F05A854B
:1018D000083AC0F0088051F8043B083A51F804CBAC
:1018E000A0E80810F5E7121D5CBF51F8043B40F872
:1018F000043BAFF30080D20724BF11F8013B11F87D
:1019000001CB48BF11F8012B24BF00F8013B00F8C0
:1019100001CB48BF00F8012B704702F0FF0343EAF8
:10192000032242EA024200F002B84FF0000204290A
:10193000C0F0128010F0030C00F01B80CCF1040CFE
:10194000BCF1020F18BF00F8012BA8BF20F8022B32
:10195000A1EB0C0100F00DB85FEAC17C24BF00F8D8
:10196000012B00F8012B48BF00F8012B70474FF006
:10197000000200B5134694469646203922BFA0E8DF
:101980000C50A0E80C50B1F12001BFF4F7AF0907EB
:1019900028BFA0E80C5048BF0CC05DF804EB8900DC
:1019A00028BF40F8042B08BF704748BF20F8022B1F
:1019B00011F0804F18BF00F8012B704710B5044696
:1019C00010F0030F08BF11F0030F40F015804FF027
:1019D000013E121FC0F20E8051F8043BA3EB0E0C27
:1019E0002CEA030C1CEACE1C08BF40F8043BF0D0E4
:1019F000A1F1040102F10402521E08DB11F8013BBF
:101A0000002B00F8013BF7D11146FFF78EFF20466F
:101A100010BD00004FF0013C50F8042B51F8043B7E
:101A20009A4221D1A2EB0C03934313EACC1317D1B2
:101A300050F8042B51F8043B9A4215D1A2EB0C0349
:101A4000934313EACC130BD150F8042B51F8043B09
:101A50009A4209D1A2EB0C03934313EACC13DBD0D7
:101A60004FF00000704700BFD01A01BAB1FA81F1FF
:101A700001F0180122FA01F0CB40C1F12001DBB2E4
:101A8000C0B2C01A2CFA01F3D11A914311EAC31162
:101A9000E6D17047704770477047000000487047B4
:101AA000F039002000487047E8390020704770473F
:101AB0007047704738B504460A4600206946AFF3C0
:101AC0000080002808BF38BD02460099204600F07B
:101AD0009BFC012038BD012000F0A8BFF8B5AFF392
:101AE0000080054600200C46102000BF0646A819BD
:101AF000A0420DD9324669460020AFF300800700AE
:101B000008BF00F093FF0098A04218BF0546C41913
:101B1000FFF7C4FF05600746F01D20F007004619D7
:101B2000284600F00AF8B44208BFF8BDA21B3146AF
:101B30003868BDE8F84000F067BC00210160C0E9EA
:101B4000011070471020704770B50446051FFFF75D
:101B5000A5FF0068002C14BF446870BD002C18BF9E
:101B6000AC423CBF20466468F8D301680A18AA4218
:101B700018BF456003D12A680546114401602868F2
:101B80004119A1421CBF6C6070BD61686960216829
:101B90000844286070BD09684A0501D540B2704705
:101BA000C905FCD500B2704709684A0501D5C0B225
:101BB0007047C905FCD580B270472DE9F0470D4646
:101BC00099469246044600F124080168880604D527
:101BD000E06921F01001216000E00120A84201DD50
:101BE000471B00E00027A1697A1902EB0900081AD7
:101BF000A0612078C00602D42046FFF7E1FB002652
:101C000008E0D4E901211AF806009047206A401C38
:101C1000761C20624E45F4DB2078C0060AD52046AB
:101C2000FFF7CEFB06E0D4E9012130209047206A7F
:101C3000401C2062381EA7F10107F4DC07E0D4E95C
:101C4000012118F805009047206A401C2062281ED8
:101C5000A5F10105F3DC2046FFF7C8FB207800065C
:101C600002D50220BDE8F0870120FBE71168026879
:101C7000006A530501D508700AE0D30501D5088034
:101C800006E0130603D5C217C1E9000200E00860B0
:101C90000120704770472DE9FF4F0C461E464FF05C
:101CA000FF378BB0D2E90001DDF860800A908A46E8
:101CB000C1F30A5505B93D46002108464FF0000022
:101CC000BAF1000F00F4400005DA00EB80004FF499
:101CD000400101EA50004FEA9059B9F1010F00DDCF
:101CE000B9460A9850EA4A000ED044F61050A5F2C0
:101CF000FF3545432F14B8F1000F1ED07542291E41
:101D00001EDDC9F100021CE0B8F1010F4FF0000028
:101D100001D0302103E0F24305E02154401CB042E1
:101D2000FBDB30460022002121540B99C1F80880CA
:101D3000C1E900200FB0BDE8F08FBD1B6D1CDEE7D0
:101D40004A4600DA694206A800F0E2FD06AB93E8D5
:101D5000070003AB83E8070050460A9900F018FF1C
:101D60008DE80700A0F500501F3800900398002D63
:101D700009DD42F21F014A46084403A90390684660
:101D800001F077F908E0A0F500504A461F3803A992
:101D90000390684601F081F98DE807000004000C0B
:101DA00003D04FF0FF30410800E01046B8F1000FBB
:101DB00003D00022009215461EE0751E05D400F0E7
:101DC0003DFB303262556D1EF9D5B3460122084302
:101DD00002D000227F1C04E02078302801D10022AC
:101DE0007F1E002A099786D01DE0112D07DA00F02A
:101DF00025FB303262556D1C50EA0102F5D10843D3
:101E000002D00098C8B10EE00021681E05E0235CF6
:101E1000625C63542254401E491C8142F7DBAB468E
:101E2000A81B401E0990002004F80B000B98099A8B
:101E3000C0F80880C0E9002B7CE711264FF00008AD
:101E400059E72DE9F04F88460446D21D22F00701DC
:101E500091B0D1E90001CDE90A010EF085F9024601
:101E60000B98C00F01D02D2007E02068810701D515
:101E70002B2002E0202101EAC000032A099001D0B2
:101E8000072A05DB03464146204600F09BFC0BE198
:101E90002078800601D5E06900E00620B8F1650FE2
:101EA000814606D0B8F1660F18D0B8F1670F70D12F
:101EB00031E00020B9F1110F009001DB112301E0A6
:101EC00009F101030AAA01A90CA8FFF7E4FEDDE964
:101ED0000C70002609F10105834647E001204B46BE
:101EE00000904FF000470AAA01A90CA8FFF7D3FE03
:101EF000DDE90DB00C995D46002610B909F101002D
:101F00000D18B9EB050003D4C0F1FF3609F1010546
:101F1000A5EB09002BE0B9F1010F01DA4FF001093F
:101F20000020B9F1110F0090484601DD112300E0B7
:101F300003460AAA01A90CA8FFF7ADFEDDE90C7063
:101F40004D4600268346207800070AD4AB4500DAC8
:101F50005D4601A8012D04DD411911F8011C30294D
:101F600007D04F4502DA17F1040F04DA0120824648
:101F70000FE06D1EEEE7002F02DCED1B3E4403E098
:101F8000781CA84200DD7D1CB81B00F1010A4FF04F
:101F900000472078000703D4AA4501DB4FF0FF3A41
:101FA0000021B7F1004F0DF143088DF8431024D004
:101FB00002202B23002F01DA7F422D230A21021E4B
:101FC000A0F1010000DC5FB197FBF1FC97FBF1F29F
:101FD00001FB1C7C17460CF1300C08F801CDEEE734
:101FE000A8F1010003702188090501D5452100E011
:101FF0006521A0F1010800F8011C09980FA9A1EBC7
:102000000807FF1D00B10120411901EBEA70A16929
:102010003844081A401EA0612078C00602D4204629
:10202000FFF7CEF9099828B1D4E901219047206A39
:10203000401C20622078C00622D52046FFF7C0F958
:102040001EE0002E04DBB34502DD01A8805D00E048
:102050003020D4E901219047206A401C2062761C80
:10206000AAF101005FEA000A0AD100F0C9F9C068CC
:102070000168405CD4E901219047206A401C20623D
:10208000281EA5F10105DCDC07E0D4E9012118F8E0
:10209000010B9047206A401C2062381EA7F10107FF
:1020A000F3DC2046FFF7A2F9032011B043E600005D
:1020B00001694A1C02610878704700B58FB0CDE90C
:1020C00001310021059105497944CDE903101146FC
:1020D0006846FFF74BFA0FB000BD0000E5FFFFFFB9
:1020E0000A6802F8010B0A607047D1E900239A429E
:1020F00002D2531C0B601070704710B5436913B1C6
:10210000AFF3008001E0FFF782F9012010BD1278E3
:1021100000F124010A7000224A700122EDE71168E3
:102120004FF0FF32E9E700002DE9FF5F15468A46D0
:102130000446DFF8AC80F8440027D8E900103E469A
:10214000CDE9001010E03AF816106A4602A800F037
:102150004DFC411C07D02178890603D5E269391866
:1021600091420DD80744761C2078800602D5E0699C
:10217000B84205DDAE42E6DB3AF816000028E2D1AF
:10218000A069C01BA0612046FFF71AF9D8E900102A
:10219000CDE90010002017E03AF818106A4602A8AE
:1021A00000F024FCB0F1FF3F81460BD000250DF17B
:1021B000080B05E0D4E901211BF8050090476D1CD0
:1021C0004D45F7D308F10100B0428046E4DB206AB8
:1021D000384420622046FFF709F9BDE8FF9F000060
:1021E000121601002DE9F0418046D21D22F00702AF
:1021F0000025D2E90002F52915A614D0011E72F1BE
:10220000000106DA0023D0EB030063EB020211A603
:1022100008E0D8F800108B0701D50FA602E04907A7
:1022200001D50EA601251146002408F1240704E07B
:1022300000F004F930323A55641C50EA0102F7D13B
:102240002B46324621464046BDE8F041FFF7B5BC7B
:10225000000000002D0000002B0000002000000006
:1022600030B4002100F1240408E002F00705D20890
:10227000303542EA4372DB086554491C52EA0305D3
:10228000F3D10468002310A2250708D504F0200428
:102290000C4304D0C46901230CA2641EC46130BC89
:1022A000FFF78BBC10B5044621461068FFF77CFC95
:1022B00002462046BDE810400023D1E7D21D22F09F
:1022C0000701D1E90023CBE7000000003000000047
:1022D0002DE9F04791460F4680460446002614F843
:1022E000015B2DB100F084F80068405DC007F6D1B5
:1022F0002B2D02D02D2D18D0641E4A46394620467B
:1023000000F0B6FA27B13968A14201D1C7F80080C0
:102310004FF0020471050BD54042002803DDFFF7A2
:10232000C1FB0460A007BDE8F08746F48066E4E7DF
:102330000028F8DAFFF7B6FB04606FF00040F2E720
:102340002DE9F04115460E46040002D12C6804B96F
:102350000BA4204600F081FB0444207870B127468E
:102360003146384600F069FB0444207810B1002063
:1023700004F8010B38462C60BDE8F0810027F9E72E
:102380000000000010B5203AC0F00B80B1E81850F2
:10239000203AA0E81850B1E81850A0E81850BFF44F
:1023A000F5AF5FEA027C24BFB1E81850A0E81850EE
:1023B00044BF18C918C0BDE810405FEA827C24BF42
:1023C00051F8043B40F8043B08BF7047D20728BFD0
:1023D00031F8023B48BF11F8012B28BF20F8023B1F
:1023E00048BF00F8012B704700487047E8390020CB
:1023F00010B500F005F8001D10BD00BFB1F40000DD
:1024000000487047083A0020034640688C46002880
:1024100018BF88423CBF03464068F8D31868184488
:10242000884207D00CF1030020F00700001D411A7C
:10243000521A0146081D0A60FFF786BB30B5B0F19D
:102440000A024FEA900E71F100034EEA817EB0EB72
:102450000E0061EB91014FEA101E4EEA017E10EB77
:102460000E0041EB11114FEA102E4EEA016E10EBF7
:102470000E0041EB11214FEA104E4EEA014E10EBD7
:102480000E0041EB1141401841F100014FEAD0002C
:1024900040EA41704FEAD10110EB80054FEA810418
:1024A00044EA907444EB01046D1944EB0404521B9C
:1024B000A3414FF0000348BF0A3200D530BD401C95
:1024C00041F1000130BD00002DE9F04F04460D46FA
:1024D000D21D22F0070089B0D0E900924846174685
:1024E00039460DF041FE0246F80F01D02D2307E0DA
:1024F0002068810701D52B2302E0202101EAC003D7
:102500008DF820300BB1012000E00020032A824624
:1025100001D0072A04DB2946204600F053F93DE1AB
:102520002078800601D40D2500E0E569C7F30A563E
:102530000D2D49DA00214FEA175B08464FF00000E5
:10254000002F00F4400007DA00EB80004FF4400158
:1025500000EBD07001EA60008115012901DD4FF028
:10256000FF3100224FEA850CBCF1180F06D3134649
:10257000ACF118004FF08052C24003E04FF48013DA
:1025800023FA0CF30CF10C0CBCF1200F04D3ACF1CA
:10259000200C09FA0CF001E007FA0CF000294FF0CA
:1025A000004801DD18B90FE00ED140450CD319EBFE
:1025B00002095F4121B9404502D19F4329EA02093E
:1025C000BBEB175F00D0761C2088000502D57B4846
:1025D000784402E079487844193808AA302302F890
:1025E0000A30037C0AF10101002E0AF1020A535459
:1025F0006A4602DC4FF0300101E04FF031014FF04C
:1026000001088DF8001002D0A6F2FF3603E059EA67
:10261000470100D06A4E002D02DC2178090704D55D
:102620004FF002082E218DF80110C44600210BE066
:10263000C7F303433F01C35C491C6D1E02F8083019
:10264000052908F1010801DA002DF1DC00210CE078
:1026500000EB1973491C1B786D1E082902F808301D
:102660004FEA091908F1010801DA002DF0DC2178A0
:10267000890602D514E0A8F10108E04505DD02EB6A
:10268000080111F8011C3029F5D0B8F1000F07DD61
:1026900002EB080111F8011C2E2901D1A8F1010853
:1026A000002D05DD3E2102F808106D1E08F101081D
:1026B000407C002E02F8080008F1010804DA2D2001
:1026C000764202F8080002E02B2002F808000A21F6
:1026D0004FF47A70864208F101080BDB96FBF0F3A9
:1026E000303302F8083096FBF0F308F1010800FBE4
:1026F000136601E0642E0CDB642096FBF0F33033AC
:1027000002F8083096FBF0F308F1010800FB1366AD
:1027100001E00A2E06DB96FBF1F0303002F80800EB
:1027200008F1010896FBF1F001FB1060303002F86F
:102730000800A16908F1010808EB050202EB0A0094
:10274000081AA0612078C00602D42046FEF738FEA1
:10275000216A08AE01EB0A00206204E0D4E90121FD
:1027600016F8010B9047BAF1010AF7D22078C0069B
:1027700002D52046FEF724FE6E4609E016F8010B4E
:102780003E280FD0D4E901219047206A401C2062E6
:10279000B8F10108F2D22046FEF728FE09B0032066
:1027A000BDE8F08F206A2844206203E0D4E90121CB
:1027B000302090476D1EEBD3F8E700009311010025
:1027C00002FCFFFF2DE9F0411F4604460326016885
:1027D000072A01F4006004DB08B116A505E016A580
:1027E00003E008B115A500E015A521F01000206058
:1027F000A069C01EA0610FB1401EA0612046FEF777
:10280000DFFD4FB1D4E9012138469047206A401CD2
:102810002062C01C206206E0206AFAE7D4E90121A8
:1028200015F8010B9047761EF8D22046FEF7DEFD24
:10283000BDE8F0814E414E006E616E00494E46008B
:10284000696E660010B5436913B1AFF3008001E013
:10285000FFF76AFC012010BD128800F12401828478
:102860000022C2840122EDE711684FF0FF32E9E750
:102870002DE9F05F824615468B4600270AF10104D8
:10288000B9460078302801D09DB113E014F8010B4F
:102890000127782803D0582801D045B10AE00DB1AE
:1028A000102D07D1002714F8010B102502E0082590
:1028B00000E00A250026B0460EE005FB080005FBF7
:1028C00006F101271FFA80F801EB1046B6F5803FAC
:1028D00000D3B94614F8010B294600F0F2F800289D
:1028E000EBDABBF1000F05D00FB1641E00E05446D7
:1028F000CBF80040B9F1000F06D0FFF7D3F8022162
:102900000160C81EBDE8F09F48EA0640FAE70000F3
:102910002DE9F047814616468AB0334878440DC801
:102920008DE80D0030487844801C03AC0DC884E865
:102930000D0041F69B300844372190FBF1F290FBEB
:10294000F1F5A5F1800501FB12041B3C02D56442A0
:10295000012000E00020DFF890A080460027FA4424
:10296000AAF1BE0A0DE0E00709D03246684607EB3F
:1029700047010AEB810100F090FB8DE8070064102D
:102980007F1C002CEFD1184F7F44AC3F18E0E807C4
:1029900014D007EB04100DF1180A90E80E008AE835
:1029A0000E00C068F04201D198190890324606A97D
:1029B00003A800F072FB03AB83E807006D10641CF2
:1029C000002DE4D132466946B8F1000F03A802D0C9
:1029D00000F04FFB01E000F060FBC9E90001C9F81D
:1029E00008200AB0BDE8F087D80E010070B5164681
:1029F0000C460546FFF7FCFC036893F8010101282B
:102A000006D0FF2C0FD8185D68B101202C7070BD66
:102A1000D3F807013246214603F207130344284640
:102A2000BDE8704018474FF0FF3070BD10B500F0A2
:102A300061F8BDE8104000F058B830B503461D7885
:102A40001DB10A4603E0AC4201D1181A30BD12F89C
:102A5000014B002CF7D15B1CF1E730B503461D7824
:102A60003DB10A4612F8014B1CB1AC42FAD15B1CD5
:102A7000F5E7181A30BD70477546FFF7B5FCAE464E
:102A800005006946534620F00700854618B020B57A
:102A9000FEF724FCBDE820404FF000064FF0000791
:102AA0004FF000084FF0000B21F00701AC46ACE8F6
:102AB000C009ACE8C009ACE8C009ACE8C0098D4663
:102AC00070473A2800D2303820F02002412A01D342
:102AD000A2F13700884201D34FF0FF30704704461F
:102AE000AFF300802046FEF7E4FB002801D000F0A1
:102AF00029B8704710B5012805D0002103A000F0C7
:102B000027F8012010BD09A1F8E7000053494752FA
:102B1000544D454D3A204F7574206F6620686561AD
:102B200070206D656D6F7279000000003A20486575
:102B30006170206D656D6F727920636F7272757050
:102B40007465640001491820ABBEFEE72600020050
:102B500070B505460C460A2000E06D1C00F011F827
:102B600035B128780028F8D102E0641C00F009F89B
:102B700014B120780028F8D1BDE870400A20AFF3E6
:102B8000008008B569468DF800000320ABBE08BD83
:102B90005FEA400C08BF91F0000F4FEA8C234FEA28
:102BA000C12243EA51514FEA1C5018BF00F5F040D2
:102BB0004FEA300018BF41F000415FEA6C5C00F062
:102BC0002980BCF1FF3F08BF40F080407047130CE4
:102BD00006BF12044FF0100C4FF0000C130E04BF90
:102BE00012020CF1080C130F04BF12010CF1040CBB
:102BF000930F04BF92000CF1020CD30F04BF5200DC
:102C00000CF1010C11464FF00002A0F11F00A0EBE7
:102C10000C00704711F0004F08BF704731F00041C1
:102C20003FF4D5AF0B0C06BF09044FF0100C4FF06A
:102C3000000C0B0E04BF09020CF1080C0B0F04BFB3
:102C400009010CF1040C8B0F04BF89000CF1020C7C
:102C5000CB0F04BF49000CF1010CCCF12003A0EB19
:102C60000C0022FA03F302FA0CF241EA030100F12C
:102C70000100704720F07F4C80EA030023F07F477B
:102C8000ACEB070303F57C5300F0004003F1FF03B6
:102C90002DE980494FEA154B09B44FEA144325EA60
:102CA0000B4E24EA03480FF2042606EB13274908CB
:102CB0003E785FEA320203FB0667C7F5000707FBB1
:102CC00006F64FEA54374FEAD64606F1020607FBEE
:102CD000066CCCF1005C4FEA1C472CEA074C07FB62
:102CE00006F40CFB06F504EB15464FEA961634BFC6
:102CF00000204FF000404FEAD13706FB07FC4FEAB7
:102D00001C4C0CFB0BF7D21B03FB0CF761EB070110
:102D10000CFB0EF7B0EB074072EB17420CFB08F709
:102D200034BFA2EB0742B2EB074261EB17414FEA17
:102D30000C444FEA910706FB07FC4FEA1C4C0CFBC6
:102D40000BF7B0EBC74072EB573203FB0CF734BF05
:102D5000A2EBC742B2EBC74261EB57310CFB0EF757
:102D6000B0EBC70072EB57720CFB08F734BFA2EB55
:102D7000C702B2EBC70261EB5771039F4FEA816153
:102D800041EA921104EBCC044FEAD1374FEA826258
:102D900006FB07FC42EA90124FEA80604FEA1C4CA7
:102DA0000CFB0BF7D21B03FB0CF761EB07010CFBD1
:102DB0000EF7B0EB074072EB17420CFB08F734BF7D
:102DC000A2EB0742B2EB074261EB17414FEA8C5589
:102DD0004FEA910704EB9C2406FB07FC4FEA1C4CCE
:102DE0000CFB0BF7B0EBC74072EB573203FB0CF751
:102DF00034BFA2EBC742B2EBC74261EB57310CFBC9
:102E00000EF7B0EBC70072EB57720CFB08F734BF3C
:102E1000A2EBC702B2EBC70261EB577115EB4C2571
:102E20004FEA816141EA92114FEA82624FEAD1375B
:102E300042EA901206FB07FC44F100044FEA80606E
:102E40004FEA1C4C0CFB0BF7D21B03FB0CF761EB9E
:102E500007010CFB0EF7B0EB074072EB17420CFBBF
:102E600008F734BFA2EB0742B2EB074261EB174110
:102E700015EB1C154FEA813141EA92414FEA82324B
:102E800042EA90424FEA80304FEA0C7644F1000467
:102E900048EA03434EEA0B484FF0000EB2EB080C31
:102EA00071EB030724BF624639464EEB0E0E4FF01E
:102EB000000B0018524149414BEB0B0BB2EB080CD5
:102EC00071EB03077BF1000B24BF624639464EEBE2
:102ED0000E0E4FF0000B0018524149414BEB0B0B0B
:102EE000B2EB080C71EB03077BF1000B24BF6246C9
:102EF00039464EEB0E0E51EA020718BF46F00106A6
:102F000016EB0E7655F1000254F1000103D5BDE831
:102F10008901BDE80088BDE88901BDE80048B6190F
:102F2000524141EB0101A3F10103704780807F7E94
:102F30007D7C7B7A7978777676757473727171702F
:102F40006F6E6E6D6C6C6B6A6A69686867666665E1
:102F50006464636362616160605F5F5E5E5D5D5C6F
:102F60005C5B5B5A5A5959585857575656555555E0
:102F70005454535352525251515050504F4F4F4E40
:102F80004E4D4D4D4C4C4C4B4B4B4A4A4A4949498E
:102F900048484847474747464646454545444444D0
:102FA000444343434342424242414141002B26D4E1
:102FB000770021D01CB54FEA370703B44FF010005B
:102FC0004FF010014FF000000FBCBDE810400BF1B6
:102FD000010BBBF1010F08BF5FEA170722BF12F117
:102FE000010211F101014FF0004143F1000300F033
:102FF000004043EA00007047F9D35708DAE746EA91
:10300000064613F1400F4FEA16461FDD13F1200F5D
:10301000DFBF16430A46002120335B42C8D0C3F10C
:10302000200746EA064602FA07F74FEA164646EA3E
:103030000706C3F1200722FA03F201FA07F721FA83
:1030400003F14FF0000342EA0702B1E746EA020645
:1030500046EA06464FEA164646EA0106BCBF46EA7D
:103060000646360C4FF000034FF000024FF000010F
:103070009EE72DE9C048934630B491E8380007C870
:1030800031EA400C48BF34EA430C03D5FFF7F2FDA8
:10309000FFF78CFFF0BCBDE800882DE9C0489346DF
:1030A00030B491E8380007C810F0804F08BF13F023
:1030B000804F03D100F005F8FFF778FFF0BCBDE8C2
:1030C000008820F07F4780EA030023F07F4C07EB65
:1030D0000C03A3F57C5300F00040A3F1FE0392F033
:1030E000000F00F0B38095F0000F00F077802DE91D
:1030F00001494FEA11404FEA144621EA004800FB1B
:1031000006FC24EA064708FB06F607FB08F800FB66
:1031100007F718EB06484CEB164C4FEA124B18EB2E
:1031200007484FEA15464CEB174022EA0B4E0BFBC3
:1031300006FC25EA06470EFB06F607FB0EFE0BFB18
:1031400007F71EEB064E4CEB164C4FF000061EEB3D
:10315000074E4CEB174B18EB0B0840F1000018EB37
:103160000E0B58EB000840F100008F1A4FF00001E1
:103170003CBFC943661B14BFB5EB040C00213CBF28
:10318000C943F61B4FEA17444EEA8E0E27EA044560
:103190004FEA1C4704FB07622CEA074C05FB07F7C4
:1031A0000CFB05F604FB0CFC16EB074642EB174242
:1031B00016EB0C4642EB1C421BEB060658EB0202D8
:1031C000414146EA9E0601D5BDE80189B619524142
:1031D00041EB0101A3F10103BDE801894FEA144568
:1031E0004FEA114724EA054621EA074C05FB07F49C
:1031F00006FB07F70CFB06F105FB0CFC11EB074186
:1032000044EB17444FEA124711EB0C4144EB1C44CA
:1032100022EA074C05FB07F206FB07F70CFB06F654
:1032200005FB0CFC16EB074642EB174216EB0C466F
:1032300042EB1C456A1854F1000148BF7047B619AB
:10324000524141EB0101A3F10103704795F0000FDA
:1032500037D04FEA11424FEA144721EA024624EAE6
:10326000074C02FB07F106FB07F70CFB06F402FB19
:103270000CFC14EB074441EB17414FEA154714EBE4
:103280000C4441EB1C4125EA074C02FB07F506FB09
:1032900007F70CFB06F602FB0CFC16EB074645EBAA
:1032A000174516EB0C4645EB1C42121951F1000173
:1032B00048BF7047B619524141EB0101A3F1010328
:1032C00070474FEA14454FEA114724EA054621EAC0
:1032D000074C05FB07F106FB07F70CFB06F24FF066
:1032E000000605FB0CFC12EB074241EB174112EB09
:1032F0000C4251EB1C4148BF7047921841EB010151
:10330000A3F1010370470021A0F13002092A01D87E
:10331000D1B20BE0A0F16102052A01D8573804E0D0
:10332000A0F14102052A01D83738C1B208467047DA
:103330002DE9F0430E460546024685B0F9A101206D
:1033400001F0D8FAF9A16846FEF714FA6846FEF7CC
:1033500035FA024669462846FEF74FFAF44C002833
:103360007ED0F4A16846FEF705FA6846FEF726FA15
:103370006846FEF723FA024669462846FEF73DFAFC
:1033800000286ED0ECA16846FEF7F4F96846FEF717
:1033900015FA024669462846FEF72FFA00287CD027
:1033A000E7A16846FEF7E6F96846FEF707FAC7B2F6
:1033B0006846FEF703FA024669462846FEF71DFAFC
:1033C000DFF88483002869D0E0A16846FEF7D2F9CF
:1033D0006846FEF7F3F9C7B26846FEF7EFF9024612
:1033E00069462846FEF709FA00287DD0DAA168462A
:1033F000FEF7C0F96846FEF7E1F9C7B26846FEF786
:10340000DDF9024669462846FEF7F7F900286CD038
:10341000D3A16846FEF7AEF96846FEF7CFF9C7B20A
:103420006846FEF7CBF9024669462846FEF7E5F9FD
:1034300000287CD0CCA16846FEF79CF96846FEF7D0
:10344000BDF900F0FF096846FEF7B8F90246694683
:103450002846FEF7D2F90027002869D0C4A101E070
:103460000DE110E16846FEF785F96846FEF7A6F91A
:1034700000F0FF096846FEF7A1F9024669462846B2
:10348000FEF7BBF900287CD0BBA16846FEF772F9B5
:103490006846FEF793F9684601E019E3FBE0FEF7A2
:1034A0008DF9024669462846FEF7A7F9002869D03B
:1034B000B5A16846FEF75EF96846FEF77FF96846F3
:1034C000FEF77CF9024669462846FEF796F9002881
:1034D000EDD0B1A16846FEF74DF96846FEF76EF9EA
:1034E0006846FEF76BF901E007E1ABE10246694689
:1034F0002846FEF782F900287ED0ABA16846FEF789
:1035000039F96846FEF75AF96846FEF757F9024658
:1035100069462846FEF771F900286ED0A4A16846D6
:10352000FEF728F96846FEF749F9684601E09CE194
:10353000ADE1FEF743F9024669462846FEF75DF91C
:103540000028EAD09DA16846FEF714F96846FEF708
:1035500035F96846FEF732F9024669462846FEF715
:103560004CF900287ED098A16846FEF703F968461A
:10357000FEF724F96846FEF721F902466946284617
:1035800001E09FE1ABE1FEF738F90028EAD091A114
:103590006846FEF7EFF86846FEF710F96846FEF752
:1035A0000DF9024669462846FEF727F9002871D032
:1035B0008BA16846FEF7DEF86846FEF7FFF868461E
:1035C000FEF7FCF8024669462846FEF716F9002881
:1035D0007BD086A16846FEF7CDF86846FEF7EEF888
:1035E00000F0FF096846FEF7E9F8024669462846FA
:1035F000FEF703F9002801E079E17EE170D07DA1BA
:103600006846FEF7B7F86846FEF7D8F86846FEF752
:10361000D5F8024669462846FEF7EFF800287BD029
:1036200077A16846FEF7A6F86846FEF7C7F8684631
:10363000FEF7C4F8024669462846FEF7DEF8002881
:103640006BD0E068C10701D00F2E67D0810701D58C
:103650000F2E64D0400763D5072E61D30F2E5FD89D
:10366000284600E04DE104F0F9FA002858D0E0685F
:10367000294620F00400E0602D48273093E12069BE
:1036800040F0010002E0206940F40030206105B004
:10369000BDE8F0833BE13D4406225CA12846FEF7ED
:1036A000ACF898B128460A225AA1FEF7A6F8C0B194
:1036B000284608225AA1FEF7A0F80028E7D028469D
:1036C00008225AA1FEF799F8E1E72AE160695AA1B8
:1036D00040F0040060610988A8F81410202109E076
:1036E0002DE1606955A140F0100060610988A8F8DB
:1036F0001410522188F81610C9E72069032240F0FF
:1037000002002061E8194EA1FEF777F80028BED12B
:10371000606940F00800EEE020E124E12EE138E1AC
:1037200044E1000025730D0A000000004F4B00002B
:10373000B81F00203E2000004552524F52000000AA
:103740002B4350494E3A0000A40300202B434D4523
:10375000204552524F523A002B435245473A0000FF
:103760002B43475245473A002B434E554D3A0000F4
:103770002B434349443A0000414C524541445920AF
:10378000434F4E4E45435400312C20434F4E4E453F
:103790004354204F4B000000312C20434F4E4E45E8
:1037A0004354204641494C0053454E44204F4B0062
:1037B000312C53454E44204F4B00000053454E449E
:1037C000204641494C000000312C53454E442046D0
:1037D00041494C00312C20434C4F5345204F4B0066
:1037E000312C20434C4F5345440000002B43535190
:1037F0003A0000004445414354204F4B0000000074
:103800002B50445020444541435400002052454130
:1038100044590000204E4F54205245414459000065
:103820002053494D2050494E000000002053494D7F
:103830002050554B000000004F4B200045525200D5
:1038400020313000E819F8A1FDF762FFF6A1002051
:10385000FDF75EFF28B100783038092801D884F8D8
:103860002400206940F0800010E7E819EEA1FDF780
:103870004FFFEDA10020FDF74BFF20B1032100F029
:10388000B1FA84F82500206940F48070FEE605EB6B
:103890000900E5A1FDF73CFFE3A10020FDF738FF9B
:1038A00000283FF411AF411CE0480546FDF762FFD8
:1038B0002846FDF783FF204480F85670206940F4C5
:1038C0008010E3E605EB0901891CEAD0D7481422F1
:1038D0001E30FEF773F8206940F40010D6E6206928
:1038E00040F400402061606940F0020003E020697C
:1038F00040F400401EE06061C9E6206940F4C04029
:10390000C4E6206920F4804040F40050BEE62069FF
:1039100040F480002061606920F0020040F4805093
:10392000E9E76069810702D540F480506061206951
:1039300040F480002061606920F00200DBE705EBC5
:103940000900032100F04EFAC0B284F89800216902
:1039500041F040012161C8F81C0098E6206940F45C
:103960008030206106E003F079FC0C2084F88E00A2
:1039700007F06CFD606920F00100BCE720F0010059
:10398000E0602069294640F480502061A748203833
:1039900009E020F00200E0602069294640F02000A4
:1039A0002061A2481038FDF7E5FE70E6A0A1684648
:1039B000FDF7E0FE6846FDF701FF00F0FF086846EE
:1039C000FDF7FCFE024669462846FDF716FF002873
:1039D0007DD099A16846FDF7CDFE6846FDF7EEFE65
:1039E0006846FDF7EBFE024669462846FDF705FFEF
:1039F00000286DD093A16846FDF7BCFE6846FDF730
:103A0000DDFE6846FDF7DAFE024669462846FDF708
:103A1000F4FE00287CD08FA16846FDF7ABFE684617
:103A2000FDF7CCFE6846FDF7C9FE0246694628460A
:103A3000FDF7E3FE00286CD088A16846FDF79AFEEA
:103A40006846FDF7BBFE6846FDF7B8FE02466946CC
:103A50002846FDF7D2FE00287DD082A16846FDF7FA
:103A600089FE6846FDF7AAFE024669462846FDF72C
:103A7000C4FE002870D07EA16846FDF77BFE684634
:103A8000FDF79CFEC7B23A4669462846FDF7B5FEEB
:103A900000287DD079A16846FDF76CFE6846FDF7E9
:103AA0008DFE024669462846FDF7A7FE002870D025
:103AB00075A16846FDF75EFE6846FDF77FFE02468B
:103AC00069462846FDF799FE00287DD001E06AE0AE
:103AD000A2E0AFF254316846FDF74CFE6846FDF7B0
:103AE0006DFE024669462846FDF787FE00286DD028
:103AF00068A16846FDF73EFE6846FDF75FFEC7B267
:103B00003A4669462846FDF778FE002872D001E063
:103B100086E0E1E062A16846FDF72CFE6846FDF70D
:103B20004DFE024669462846FDF767FE002872D022
:103B30005FA16846FDF71EFE6846FDF73FFE0246A0
:103B400069462846FDF759FEE8B35CA16846FDF7D3
:103B500011FE684601E0C4E0C7E0FDF72FFE024613
:103B600069462846FDF749FE78B357A16846FDF738
:103B700001FE6846FDF722FE024669462846FDF72B
:103B80003CFE00B3E068002835DAF61F082E01E09D
:103B9000AFE0B7E02FD8284604F060F858B32069AA
:103BA00040F4007072E505EB08004AA1FDF7B0FD96
:103BB00048A10020FDF7ACFD05003FF485AD60692C
:103BC0001A4E010603E0BEE0A1E0B8E0A3E006F172
:103BD0000F0603D440F08000606104E029463046BF
:103BE000FDF718FF40B129463046FDF7C3FD84F8C4
:103BF00026704CE596E0ABE094F82600401CC0B27D
:103C000084F826000328F4D384F82670E06840F096
:103C10008060E0603BE58EE0206940F0020035E521
:103C200003F01CFB33E500002C0000000F200020F7
:103C30002B434C49503A00002B434D5320455252E0
:103C40004F523A00302C2B504450204445414354AD
:103C5000000000002B514E49545A3A002B51454E5A
:103C6000473A00002B514654504F50454E3A3000D1
:103C70002B5146545053495A453A00002B51465453
:103C800050504154483A30002B5146545043464717
:103C90003A3000002B514654504745543A0000003A
:103CA0002B5146545044454C4554453A3000000091
:103CB0002B514654505055543A2D00002B51465428
:103CC000505055543A0000002B5146545045525222
:103CD0004F523A00220000002049284603F0DCFA47
:103CE000D5E4284603F040FBD1E4208840F00100F1
:103CF0000BE0208840F004002080E8190CF0F8FF69
:103D00006060C4E4208840F002002080BFE4208886
:103D100040F00800F9E7208840F0400020800BF0D8
:103D200089FCB4E4208840F400702080E8190CF08D
:103D3000DFFFA060ABE4208840F02000E5E72088AA
:103D400040F08000E1E7208840F48070208063E745
:103D500003A1012000F0CEFD99E40000D400002072
:103D6000415420756E6B6E6F770D0A0010B50B4BCA
:103D700004004FF00000D961187618610DD022467A
:103D800007A1012000F0B6FD2046FDF717FD81B226
:103D90002046BDE8104003F0CBBB10BDB81F00208B
:103DA00025730D0A0000000000B58FB00B4600928D
:103DB000024605A101A8FDF7EDFA4FF4FA6101A84A
:103DC000FFF7D4FF0FB000BD41542B514943534777
:103DD000503D312C222573222C222573222C2225A2
:103DE00073220D00002200E0401C0378303B0A2BB8
:103DF000FAD205E002EB82025200303A1A44401C2B
:103E0000491EC9B204D30378302B01D3392BF1D921
:103E1000104670472DE9F0410C460646154615211F
:103E20002046FDF782FD2A20207001206070A71C2B
:103E300005F1140080B239460CF06AF8BF1C39460F
:103E4000304601F011FAC0B239180D44002029465D
:103E50000CF05EF82320A870ED1C281B80B2BDE892
:103E6000F08100002DE9F043DFF868915A4E5B4F76
:103E7000D9F80110B3685A4A4FF0010899422CD082
:103E800081EA030011EA000381EA00051AD05548CF
:103E900040680340D2F801000343C2F8013011D05A
:103EA000DFF844C1002008FA00F4234206D03CF8B1
:103EB00010401CB9147844F001041470401CC0B2C6
:103EC0002028F0D325B1D2F80100A843C2F80100A0
:103ED000B160388840F004003880D9F80510F068E7
:103EE000CC4681422BD081EA000311EA030081EA2B
:103EF000030519D0D2F80540C1460443DFF8E88035
:103F0000C2F80540002008F1300809FA00F31C420D
:103F100006D038F810301BB9137843F00103137042
:103F2000401CC0B20228F0D325B1D2F80500A84346
:103F3000C2F80500F160388840F004003880DCF8F1
:103F400009003169884212D080EA010310EA0301B6
:103F500008D0D2F809300B43C2F80930117841F08B
:103F6000010111703061388840F0040038809CF8FD
:103F7000000081070BD520F002008CF800009CF8AF
:103F80000E0020B19073107840F0020010709CF881
:103F9000000041070BD520F004008CF800009CF8CD
:103FA0000F0020B1117841F004011170D0739CF81A
:103FB000000001070CD520F008008CF800009CF8E8
:103FC0000D00002804D0117841F0080111705073E1
:103FD000BDE8F083602F0020040000200C090020C1
:103FE000742F0020D0370020D401002010B5FF220C
:103FF00010211D48FDF791FC1B4C0020142160602E
:10400000207940F02F002071607940F0E700607166
:10401000A07940F0FF00A0711448FDF786FC144819
:104020001249006890F84900C0070DD01148006897
:104030000268C1F801204268C1F805200268D24335
:1040400022604068C043A0600B4851F8012F826095
:104050004968C16014210948FDF767FC06484FF024
:104060004071001D016010BDD0370020602F00207E
:10407000380000204400002004000020742F00209D
:104080000268D30730D0C2F349030B44B3F57A7FFB
:1040900023D340F2FE718A434FF0806101EB7241FD
:1040A0004FEAF131C1F3C52201603C2A1CD321F44F
:1040B000FC314FF0007202EB31614FEA3121C1F364
:1040C0004642C1F3066301609A420DD321F47E019A
:1040D00021F001010160012070474FEAF22202EB5A
:1040E00081514FEA715101600020704710B50146BF
:1040F0000548FFF7C5FF002804D00448417841F087
:104100002001417010BD000008000020D0370020C1
:104110000C4A002032F8101011B1491E22F810107C
:10412000401C80B21828F5D3064A0020303232F8FD
:10413000101011B1491E22F81010401C80B207283F
:10414000F5D37047D40100200349086820F001002E
:1041500040F01C000860704718000020022903D0BE
:10416000042904D000207047008840BA70470168D5
:10417000C07809BA21F0FF0108437047817842787E
:1041800041EA02610278C078120442EA0020084342
:104190007047FEE7094910B588424FF0010101D18F
:1041A0004C0601E04FF08064204606F07DFF20467B
:1041B000BDE81040002106F077BF00000064004019
:1041C000F0B5827A2F4D012191402A6842F0010218
:1041D0002A602C4E1C3632688A433260294A047B9E
:1041E000294B0C32A4B914688C4314604488C788E6
:1041F00044EA0744877A03EBC707C7F840460488B8
:10420000878844EA0744877A03EBC707C7F8444620
:10421000047B012C12D114680C431460847A026868
:1042200003EBC4044FEA3242C4F84026847A426861
:1042300003EBC4034FEA3242C3F84426114AC37A5F
:10424000121D002B136806D00B4313600D4A03891F
:10425000143213B104E08B43F7E713688B43136008
:104260000389012B02D113680B431360407B0128A3
:1042700002D1306808433060286820F001002860CF
:10428000F0BD00000066004000600040002A426966
:1042900001D00A4300E08A434261704710B50368C9
:1042A000002223F002030360036843F0010303606C
:1042B0004FF6FF7300E0521C4468E40701D19A42B4
:1042C000F9D14268D2073ED08A79012A02683CD0EF
:1042D00022F080020260CA79012A026838D022F0F6
:1042E000400202600A7A012A026834D022F02002D9
:1042F00002604A7A012A026830D022F0100202607D
:104300008A7A012A02682CD022F008020260CA7A56
:10431000012A026828D022F0040202608A78CC7850
:10432000920742EA04620C7942EA04424C79098815
:1043300042EA0452491E0A43C261016821F00101A8
:104340000160002114E0002010BD42F08002C1E7AE
:1043500042F04002C5E742F02002C9E742F01002F5
:10436000CDE742F00802D1E742F00402D5E7491C4C
:104370004268D20701D09942F9D14068C007E2D122
:10438000012010BD0246002029B1012902D1106987
:1043900000F003007047D068FAE710B500EB011396
:1043A000D3F8B04114F004041472D3F8B04133D000
:1043B000E4085460D3F8B04104F002045472D3F816
:1043C000B44104F00F049472D3F8B441240AD474B5
:1043D000D3F8B841D472D3F8B841240A1473D3F88F
:1043E000B841240C5473D3F8B841240E9473D3F815
:1043F000BC41D473D3F8BC41240A1474D3F8BC4133
:10440000240C5474D3F8BC311B0E937439B1016978
:1044100041F02001016110BD640D1460CAE7C1685C
:1044200041F02001C16010BD00218171C171017294
:1044300041728172C1728170C170032101710221C8
:10444000417101210180704730B502460020936818
:104450005B0108D49068000101D5012003E0906859
:10446000C00037D5022002EB0012D2F8803103F0F1
:104470000103C2F880310B7A73B3D2F880414D68E2
:104480001C434B7A43EAC5031C43C2F880418B7A34
:1044900003F00F038B72D2F8843123F00F03C2F8BC
:1044A0008431D2F884318C7A2343C2F88431CB7AB8
:1044B000CC6843EA0423C2F88831CB7B096943EA1C
:1044C0000121C2F88C11D2F8801141F00101C2F82B
:1044D000801130BD042030BDD2F880314C7A2343A6
:1044E0000C8843EA4453C2F88031D0E770B5094DD7
:1044F000FF231A4605F5807605E010F8014B54407D
:104500002A5D5A40335D491E89B2F6D242EA032041
:1045100070BD0000642E01080168C9430160704746
:104520004FF0FF3101607047F0B50023074D0AE0FE
:10453000046811F8017BE6B27E405B1C55F82660EA
:1045400086EA142404609342F2D3F0BD10330108CC
:10455000017A00290BD1064A0121917005490268B0
:104560000A60D0F80B204A60D0F80F0088607047CE
:1045700064000020C00A002070B5224E8CB0304686
:10458000FFF708FE6846FFF74FFF07A806F0B8FDE3
:10459000002401258DF806408DF8075008208DF87D
:1045A00004008DF808508DF802408DF809408DF810
:1045B000034018208DF80A40ADF800008DF80B502C
:1045C0008DF8055069463046FFF768FE8DF81640B5
:1045D0008DF817408DF81840ADF80C40ADF810403C
:1045E000ADF80E40ADF81240ADF814408DF81950FA
:1045F00003A8FFF7E5FD012202213046FFF746FE42
:104600000CB070BD00640040A0F16101192901D80F
:104610002038C0B270470000014808F0B7B9000068
:104620006C01002070B50446002594F9001028465E
:1046300001F5FA660A393C2928D840F2DA7307E016
:1046400098B204F093F805445B1C1BB205F26D159B
:10465000B342F5DB94F9022094F9011030460BF0D7
:104660005BFD284494F9051040F2A322401E5043FC
:1046700001EBC01294F903104FF46160414394F9C7
:104680000400C0EB001001EB8000104470BD00007E
:1046900010B54FF40014204600F0C2F8012811D1E3
:1046A0000221094800F070FF0021084800F03AF8A4
:1046B0000748018841F0100101802046BDE8104004
:1046C00000F024B810BD0000000801406C0002405A
:1046D000B81F002010B54FF00074204600F0A0F87D
:1046E00001280ED1204600F011F80021054800F005
:1046F00019F8BDE81040012240F2266102480AF094
:104700000CBD10BD8000024000440040C10002D535
:10471000024908607047024948607047040402403B
:10472000000002400029016802D041F0010102E0CE
:104730004FF6FE72114001607047000001684FF6AD
:10474000FE72114001600021016041608160C16022
:104750003149314A0839904203D1486840F00F008E
:1047600006E02D4A1432904204D1486840F0F0002F
:1047700048607047284A2832904203D1486840F484
:104780007060F5E7244A3C32904203D1486840F417
:104790007040EDE7204A5032904203D1486840F41F
:1047A0007020E5E71C4A6432904203D1486840F427
:1047B0007000DDE7184A7832904203D1486840F033
:1047C0007060D5E7154A111F904203D1086840F088
:1047D0000F0006E0114A1432904204D1086840F0FC
:1047E000F000086070470D4A2832904203D10868F3
:1047F00040F47060F5E7094A3C32904203D1086802
:1048000040F47040EDE7054A50329042EAD1086822
:1048100040F47020E5E70000080002400804024070
:1048200002460020D10001D5034900E00349096890
:10483000114200D0012070470004024000000240F5
:10484000002A026801D00A4300E08A4302607047F0
:1048500030B5026847F6F0739A430C6A8B682343BD
:10486000D1E904452C4323438C692343CC6923437A
:104870004C6A23438C6A234313430360CA68426033
:104880000A6882604968C16030BD020E0A70020C7D
:104890004A70020A8A70C8700120704770B50546D8
:1048A0000F4C03E006F052FD00F0FAFB20780028E0
:1048B000F8D10C4E4FF480542146304600F064FE8F
:1048C0002846FCF77BFF0246294600200AF0F2FC4E
:1048D00006F03CFD21463046BDE8704000F052BE77
:1048E0002C010020000C014010B500F00FFC01204D
:1048F00010BD70470FB4214910B50968CA0730D000
:10490000012802D0092802D004E0490700E0090587
:10491000002926DA052827D008DC01280DD0022836
:104920000BD003280BD004280CD121E00A2821D079
:104930000F281BD0102805D11EE011A000E012A006
:10494000FFF7ACFF0D4C04AB241D4FF4C87123607E
:104950000F48039AFCF704FD002020600C48FFF785
:104960009DFF10BC5DF814FB0AA0E9E70BA0E7E788
:104970000DA0E5E70FA0E3E710A0E1E71800002095
:104980005B475052535D20005B534D535D20000048
:10499000120200205B50726F5D2000005B55706456
:1049A0006174655D200000005B4D6F6E65795D2070
:1049B000000000005B506172615D20005B53465552
:1049C000445D20002DE9F041154B15460C461A6850
:1049D000002A22D0FFF762FF2646124C03E006F0C1
:1049E000B5FC00F05DFB20780028F8D10E4F4FF4A5
:1049F00080542146384600F0C7FD2A463146002043
:104A00000AF058FC06F0A2FC2146384600F0BAFD38
:104A1000BDE8F04105A0FFF741BFBDE8F08100000F
:104A2000180000202C010020000C01400D0A00009D
:104A3000054A00211160054A52F8EC1F41F00101BE
:104A400060F35F011160704764010020B81F00200F
:104A50000178D0F8010041EA0020704730B50346E4
:104A6000002002464FF6FF7513F8011BA1F1300438
:104A7000092C01D8E1B20BE0A1F16104052C01D8A9
:104A8000573904E0A1F14104052C01D83739C9B2E6
:104A900005EA0010521C0843D2B2042AE4D330BD08
:104AA00070B50024454D01280BD0022869D0032899
:104AB00077D0042874D110214148FCF736FF41A17A
:104AC00075E03F48E421FC38FCF72FFF142242A197
:104AD0006868FCF7DDFE686840F2E173012220F8A7
:104AE000143F40A14280828009884183442101779C
:104AF0003DA10E68C0F81D608988A0F8211083844C
:104B00000A21C1841221018539A10B68036149681A
:104B100041613221017680F83520652180F834101A
:104B20004FF47041C1864DF2F06181874FF46041CE
:104B300001874CF2DF51C1874FF4504141874BF25E
:104B4000CE41A0F84010A0F842200F21A0F8441058
:104B5000A0F8464029A1A430FCF70CFE68682BA100
:104B60005E30FCF707FE686842F22B3180F87C402B
:104B700000F89A4F81877821C187A0F8404025A18D
:104B800015E00F4818211838FCF7CFFEA86826A1B9
:104B900004608480C48004814481848107E000E053
:104BA0000AE0074810211030FCF7BFFE23A1BDE842
:104BB00070400A20FFF79EBE70BD00003400002048
:104BC000D40600204F7468496E666F2044656661A4
:104BD000756C740D0A0000003030303030303030E9
:104BE0003030000058424400303030303031000066
:104BF0004C4E4B5F56322E313200000062642E71F3
:104C00006878776C2E636F6D00000000434D4D5443
:104C10004D000000537973506172612044656661F4
:104C2000756C740D0A00000055737250617261203A
:104C300044656661756C740D0A000000416C6D4935
:104C40006E666F2044656661756C740D0A00000025
:104C50002DE9F04F85B0002103914149414C00916D
:104C6000012810D04FF47C3202281CD001F10A0533
:104C70000E314FF47A33032824D004282ED000209C
:104C800005B0BDE8F08F606801F1DE0500F1DE0BD4
:104C90000190281D324F4FF47E36103FDFF8C88058
:104CA000E424029024E0A06801F1120500F1120B47
:104CB0000190281D2A4F16460C3FDFF8B0801824BB
:104CC000029015E02069264F00F10A0B083F4FF4CF
:104CD000703698461024CDE9010109E0E068204FC4
:104CE00000F10A0B3F1F1E4690461024CDE901013A
:104CF000A8EB0600B0FBF4F00490B146002028E0D9
:104D00002246484600990BF055FAA01E81B2009841
:104D1000FFF7ECFB02990988884212D12968DBF879
:104D20000000814212D901200390DDE900102246E3
:104D3000FCF7AEFD09EB04003860404506D33E6049
:104D400004E0039810B12868401C06D0A1440AF181
:104D50000100049982468842D2D3039890E700006C
:104D6000200900203400002020FF0300F8F7030092
:104D70002DE9F047314B012838D04FF47C3102281F
:104D800041D04FF47A32032849D004282CD1DE6870
:104D90002B4CB24606F10E079146884610250A367E
:104DA0002068410546D0C20A4119C80AD202C00291
:104DB000824203D0490501D00BF0EAF93068401C6B
:104DC0003060A81E81B25046FFF790FB38802A461B
:104DD000514620680BF008FA2068284441192060E9
:104DE000414501D3C4F80090BDE8F0875E68144CDB
:104DF000B24606F1E2070C3CE4254FF47E39DFF8B9
:104E00004480DE36CCE79E680D4CB24606F11607AC
:104E1000083C18258946DFF830801236C0E71E6945
:104E2000074CB246241F06F10E074FF47039904626
:104E30001025B4E76FF30A00BEE70000340000203D
:104E40001C09002020FF0300F8F7030070B5354867
:104E5000354C0078C00712D03448216890F898008B
:104E60008880324802219E3007F086FB2168A1F835
:104E70004A002E480221A33007F07EFB18E00021F3
:104E8000032001F049FC10F0FF0004D0C0F17100D4
:104E900000EBD0704010216888800021012001F0D3
:104EA0003BFC2168A1F84A000021022001F034FCFB
:104EB00021681F4A204EC86420681E4C4FF40045EC
:104EC0008188D1618288172A0DD98021204600F07F
:104ED0005BFB4021204600F057FB29463046BDE8E9
:104EE000704000F051BB0F2A08D98021204600F005
:104EF0004BFB4021204600F047FB0DE0072A4FF016
:104F00008001204602D900F03FFB01E000F03AFBAF
:104F10004021204600F036FB29463046BDE870406F
:104F200000F030BB6801002048000020B81F0020BE
:104F3000A403002000100140000C014000887047CD
:104F400000B585B0C0B10188009100218DF808102E
:104F50008DF8091008218DF80A104168CDF80B1062
:104F60008068CDF80F0069460548FFF76DFA042800
:104F700004D0002005B000BD0120FBE70220F9E7C6
:104F8000006400400149C8607047000000200240F2
:104F900070B505464FF43026304600F067F8042817
:104FA00011D1094C206940F002002061656120693F
:104FB00040F040002061304600F058F8216941F689
:104FC000FD721140216170BD00200240084904209B
:104FD000CA68D20701D001207047CA68520701D5BC
:104FE00002207047C968C906FBD50320704700003E
:104FF000002002400248016941F0800101617047D0
:10500000002002402DE9F841064600204FF40057E9
:1050100000900D46384600F029F8042816D10C4CB3
:10502000206940F0010020613580B846384600F024
:105030001DF8BF1E042806D1B61C280C009630802F
:10504000404600F013F8216939402161BDE8F8813C
:105050000020024003480249416003494160704713
:105060002301674500200240AB89EFCD00B5034620
:10507000FFF7ACFF02E0FFF7A9FF5B1E012803D09A
:10508000002B00D1052000BD002BF4D1FAE7000071
:105090000248C16841F08041C1607047B81F0020DC
:1050A00010B502F0EBFB094C0948217800294FF0BC
:1050B000010102D000F068FA01E000F063FA207804
:1050C00010B10020207010BD0120FBE7000000207F
:1050D0000008014010B504460020A24204D38A42D1
:1050E00002D8101B1880012010BD00000649088856
:1050F000C20606D520F010000880002008760120A6
:105100007047002070470000B81F002070B50D46A2
:10511000044680211D48FCF72AFC21461B48FCF769
:1051200029FB1A4829464630FCF724FB174C44F269
:10513000F57017A1208404F12200FCF71BFB15A1D8
:1051400004F12C00FCF716FB14A015A10088A08721
:10515000002060662846FCF7DBFA11A10020FCF76E
:10516000D7FA10A10020FCF7D3FA00280CD00421B4
:1051700007F002FA0246A0660BA10F20FFF7BAFB68
:10518000BDE87040FFF784BF70BD0000381F0020ED
:1051900078776C0078776C30303100002F00000099
:1051A0005F0000002E00000046696C65206372639A
:1051B000202538580D0A0000034900220A80C861E2
:1051C0000A760A6170470000B81F0020F8B51E4C2F
:1051D000074625460E46284603F01EFA204603F0F1
:1051E00035FA1A481AA1006890F84820204603F0C2
:1051F000FFF9204603F016FAA4F227408760204604
:10520000FCF7DCFA82B2C6F30A00A4F11501FEF73E
:1052100001FE0D49ADF800004F3904460887801C97
:1052200081B209480122173802F052F90948006892
:10523000C10607D5C00705D0183C22B2294606A0F2
:10524000FFF7C0FB0120F8BDAF330020380000207D
:1052500050530000180000205B50726F5D205265B3
:1052600073706F6E733A200010B5C0F3032242F0E2
:10527000300201F8012BC0F3031242F0300201F8B2
:10528000012B00F00F0040F0300001F8010B09483D
:10529000006850F82E2F41F8042B426841F8042B87
:1052A000008921F8020B04488068FFF7EEFA11200C
:1052B00010BD000038000020882F002010B5C0F37A
:1052C000032242F0300201F8012BC0F3031242F036
:1052D000300201F8012B00F00F0040F0300001F81F
:1052E000010B0C480C4C006850F82E2F41F8042B91
:1052F000426841F8042B008921F8020B6068FFF72F
:10530000C4FA6068401C606001D101206060112017
:1053100010BD000038000020882F00200E4A002316
:10532000D169814203DD091AD161137602E00121BE
:10533000D3611176B2F89A10084480B242F210712B
:10534000A2F89A00884205D3A2F89A30D06840F4B7
:105350008070D06070470000B81F00202DE9F8432E
:1053600002258DF8025014248DF80340E802DFF87E
:105370001091ADF800006946484600F089F88DF8B4
:1053800003402020DFF8FC80ADF80000694640466D
:1053900000F07EF88DF80340EC01ADF8004069465E
:1053A000404600F075F810268DF80360ADF8004017
:1053B0006946484600F06CF86700ADF80070694631
:1053C000484600F065F83946484600F0DDF82E4FB3
:1053D000ADF800506946384600F05AF802213846C8
:1053E00000F0D0F80120ADF800006946384600F022
:1053F0004FF80121254800F099F8E501ADF800507B
:105400006946384600F044F82946384600F0BCF8B2
:105410002946384600F0B6F82946384600F0B4F878
:10542000ADF800406946384600F032F8214638466B
:1054300000F0AAF82146384600F0A4F82146384684
:1054400000F0A2F8ADF800506946484600F020F898
:105450008DF80360C020ADF800006946404600F0BA
:1054600017F88021404600F08DF84021404600F0BA
:1054700089F82946484600F085F8BDE8F883000021
:10548000000C014000100140000801400002300003
:10549000F0B5CC78002204F00F03E40601D58C7837
:1054A00023430C784FF00F0C14F0FF0F4FF0010E58
:1054B0001BD005680E880EFA02F42640A64210D1D1
:1054C00096000CFA06F725EA070703FA06F5CE78E8
:1054D0003D43282E02D0482E02D002E0446100E075
:1054E0000461521C082AE5D305600A88FF2A1CD9EA
:1054F0004468002202F108060EFA06F50E882E40D6
:10550000AE420ED196000CFA06F7BC4303FA06F73A
:10551000CE783C43282E00D14561CE78482E00D16C
:105520000561521C082AE5D34460F0BDF0B5144C67
:10553000002801DAE36900E06368450D2E0185B2B9
:10554000C0F30157B540C0F30342032F05D0C60294
:105550000AD503269640B34307E023F070626368E0
:1055600023F07063636002E0AB4343F0706201B10B
:105570002A43002801DAE261F0BD6260F0BD00005C
:105580000000014041617047016170472DE9FF5FF4
:10559000018804460DB24219861C5848ADF8001027
:1055A0004FF0000982F80290006801070DD5C0078E
:1055B0000BD02A4652A10520FFF79CF9183D2AB2CC
:1055C00006F1150152A0FFF7FDF9DFF848814FF40D
:1055D0007A7BBDF900001838584507D9BDF900207D
:1055E0004DA10520FFF786F9BDE8FF9F002506E0E5
:1055F00020782A281FD0761EADF80060641CBDF903
:105600000060002EF4D1002DEED0A41C204603F043
:10561000C6FA0746A41CE01910F8012C232A0CD066
:1056200042A10520FFF766F9BDF80010601B081ABB
:10563000ADF80000CDE72546E5E714F8010B14F8B6
:10564000011B0007000D01F00F0140EA011014F8E2
:10565000011B8DF80E9001F00F0140EA010A54F889
:10566000040B019054F8040B029034F8020BADF8CF
:105670000C00D8F800002E30FCF7A0F802B20A2A7D
:1056800000DB0A22D8F8000001A92E30FCF746F80A
:10569000A0B101AA2BA10520FFF72CF9EC19E41CFD
:1056A000BDF90010601B884224DA301A02B2ADF84E
:1056B000002028A10520FFF71DF98AE7204603F006
:1056C00067FA143F221DBBB20146D4185046E41CB1
:1056D00006F072F8BDF90010601B88420ADA301A31
:1056E00002B2ADF800201BA10520FFF703F9FFF778
:1056F000D7FC6EE7ADF8009076E7000018000020B8
:1057000052782066726F6D205372762025640000F7
:105710000D0A0000380000205265764C656E204668
:1057200061756C743A2025640D0A0000456E642092
:10573000627974653A2025303258206572720D0AFC
:10574000000000004465762069642025732065729E
:10575000720D0A00486176652025642062797465BF
:105760007320746F206465616C0D0A0030B50121EF
:105770008DB0084605F080FC1B4D2846FEF7DEFF85
:1057800000241A4800908020CDE904400294069439
:10579000079480010894CDE9090469462846FFF77B
:1057A00057F800212846FEF7BDFF4FF40010FEF722
:1057B000ADFF012202212846FFF742F80B480122E3
:1057C0004021001F09F07BFC01208DF82D008DF891
:1057D0002E408DF82F0010208DF82C000BA803F020
:1057E0008BF90DB030BD00006C0002400444004055
:1057F0002DE9F34F95B0054602F00EFF284602F062
:1058000025FFFA48FAA1006890F84820284602F0DF
:10581000EFFEF84C2078010719D520F00800207021
:10582000F5480068C0F38531C0F30523C0F3460294
:105830000091F2A10CA8FBF7ADFD617B42F23310A1
:1058400001440CAB4FF6FF72284602F013FC20789F
:10585000810709D520F002002070A07B42F23D11A3
:105860000144284602F0F4FB2078410709D520F0D6
:1058700004002070E07B42F251110144284602F0FE
:10588000E7FB2078C1077DD0DA4920F00100DF4E28
:105890000870D1F80100DFF87883002873D0002465
:1058A000D448D0F801100120A04001426CD0CF486C
:1058B000006890F848006F282DD070282BD0012C5C
:1058C0002DD0022C4BD0032C72D0042C71D0052C7F
:1058D00070D0072C6FD0082C6ED0092C6DD00A2CFC
:1058E0006CD00C2C6BD00D2C6AD00E2C69D00F2CE8
:1058F00068D0102C67D0112C66D0122C7ED0132CBF
:105900007DD0142C7CD0152C7BD0162C7AD0172C63
:1059100079D0002C78D042F26C002118FDE3376872
:10592000B7F902000CF005FA002243460CF07CF8AF
:1059300083468A4638880CF013FA0022B54B0CF0E7
:1059400073F881460F462846FBF738FFCDE90097EC
:10595000CDE902BA31682844CA8AAFA180E337682A
:10596000B7F902000CF0E5F9002243460CF05CF8B0
:105970008346894638880CF0F3F90022A54B0CF0D9
:1059800053F802E0E0E3E0E3E0E382460F46284616
:10599000FBF714FF43193068B0F84610B0F83E2109
:1059A000CDE90421CDE900A7CDE902B9C28A0CE016
:1059B0000DE03FE062E079E0CEE0B3E101E21BE21E
:1059C00073E2BCE207E32BE34BE39EA130E03068D7
:1059D0008146B0F902000CF0ACF9002243460CF00D
:1059E00023F807468B46B9F800000CF0B9F90022FD
:1059F000884B0CF019F88246894606E056E375E3B9
:105A0000A5E3A5E3A5E3A5E3A5E32846FBF7D6FEBA
:105A100043193068B0F84610B0F83C21CDF800A02A
:105A2000CDE90421CDF80CB0CDE90197C28A95A14A
:105A3000184691E330688146B0F902000CF079F91C
:105A4000002243460BF0F0FF07468B46B9F80000F2
:105A50000CF086F900226F4B0BF0E6FF81468A4678
:105A60002846FBF7ABFECDF80CB0CDF80090CDE9A1
:105A700001A731682844CA8A92A1F1E23068B0F8DF
:105A800084000CF06DF9002243460BF0CDFF074671
:105A900089462846FBF792FECDE9007900EB050C1C
:105AA000306893A130F8D03F8289A1E13768B7F818
:105AB000940056370CF054F9002243460BF0B4FF23
:105AC00008908946B88F0CF04BF9002243460BF042
:105AD000ABFF06908A46788F0CF042F900224346CD
:105AE0000BF0A2FFCDE90201388F0CF039F900224A
:105AF00043460BF099FF04908B4637F9540C0CF099
:105B000018F9002243460BF08FFFCDE9000137F86A
:105B1000560C0CF025F900223E4B0BF085FF074692
:105B200028461191FBF74AFE089ACDE90A29069A00
:105B3000CDE9082ADDE90212CDE90612CDF814B04C
:105B4000DDE90012CDE9021211992844CDE9007176
:105B50003168CA8A7149A5E13768B7F892000CF03C
:105B6000FFF8002243460BF05FFF82460491B7F82E
:105B700090000CF0F5F8002243460BF055FF8346E9
:105B80000391B7F88E000CF0EBF8002243460BF0BF
:105B90004BFF02908946B7F902000CF0CAF80022C8
:105BA00043460BF041FFCDE9000138880CF0D8F8EE
:105BB0000022184B0BF038FF0A900F462846FBF7DF
:105BC000FDFD04992844CDE908A10399CDE906B16A
:105BD000029ACDE90429DDE90012CDE902120A9A00
:105BE000CDE900273168CA8A4D49F1E1380000202B
:105BF00050530000742F0020FC0000202530326438
:105C00003A253032643A25303264000048000020E2
:105C100000002440000059402238333031223A7BC2
:105C20002235223A222564222C2231223A22252EA4
:105C30003266222C2232223A22252E3166227D2CF7
:105C4000000000002238333032223A7B2235223ADB
:105C5000222564222C2231223A22252E3266222C41
:105C60002232223A22252E3166222C223231322251
:105C70003A222564222C2234223A222564227D2CC9
:105C8000000000002238333033223A7B2235223A9A
:105C9000222564222C2231223A22252E3266222C01
:105CA0002232223A22252E3166222C223231312212
:105CB0003A222564222C2234223A222564227D2C89
:105CC000000000002238333034223A7B2235223A59
:105CD000222564222C2231223A22252E3266222CC1
:105CE0002232223A22252E3166227D2C000000002D
:105CF0002238333035223A7B2232333030223A2276
:105D00002564222C223436223A222564222C223485
:105D100032223A22252E3166227D2C009C39010840
:105D2000503901083768B7F892000CF019F80022D2
:105D300043460BF079FE83460491B7F890000CF0CF
:105D40000FF8002243460BF06FFE82468946B7F8F3
:105D50008E000CF005F8002243460BF065FECDE9FD
:105D60000201B7F902000BF0E4FF002243460BF0FA
:105D70005BFECDE9000138880BF0F2FF0022F74B03
:105D80000BF052FE12900F462846FBF717FD431901
:105D90003068018E0A910499CDE906A9CDE908B1D0
:105DA000DDE90212CDE90412DDE90012CDE90212AB
:105DB000129ACDE90027C28AE9491846FBF7EAFAA8
:105DC000F9E23068B0F8A8000BF0CAFF00224346A1
:105DD0000BF02AFE074689462846FBF7EFFCCDE983
:105DE000007900EB050C3068DEA130F8DE3F8289D7
:105DF0006046FBF7CFFADEE23768B7F8BC007E37C3
:105E00000BF0AEFF002243460BF00EFE81468B46A0
:105E1000388F0BF0A5FF002243460BF005FE0490DF
:105E20008A46F88E0BF09CFF002243460BF0FCFDE7
:105E3000CDE90201B88E0BF093FF002243460BF030
:105E4000F3FDCDE9000137F97C0C0BF072FF002265
:105E500043460BF0E9FDCDE9111037F87E0C0BF04D
:105E60007FFF0022BD4B0BF0DFFD14900F4628464C
:105E7000FBF7A4FC049ACDE9082ACDE90A9BDDE9E9
:105E80000212CDE90612DDE90012CDE90412DDE9C6
:105E90001121CDE90212149ACDE900273168284476
:105EA000CA8ABB49FBF776FA85E23768B7F8B600CD
:105EB0000BF056FF002243460BF0B6FD83460491DB
:105EC000B7F8B4000BF04CFF002243460BF0ACFDDA
:105ED00082468946B7F8B2000BF042FF00224346E3
:105EE0000BF0A2FDCDE90201B7F902000BF021FF92
:105EF000002243460BF098FDCDE9000138880BF0F5
:105F00002FFF0022954B0BF08FFD0A900F4628467D
:105F1000FBF754FC0499CDE906A9CDE908B1DDE908
:105F20000212CDE90412DDE90012CDE902120A9A4B
:105F3000CDE9002731682844CA8A964948E0376885
:105F4000B7F8B6000BF00CFF002243460BF06CFDD7
:105F500083460591B7F8B4000BF002FF00224346D8
:105F60000BF062FD04908A46B7F8B2000BF0F8FE21
:105F7000002243460BF058FDCDE90201B7F90200BB
:105F80000BF0D7FE002243460BF04EFDCDE9000199
:105F900038880BF0E5FE0022704B0BF045FD814682
:105FA0000F462846FBF70AFC05992844CDE908B1BD
:105FB000049ACDE9062ADDE90212CDE90412DDE9F1
:105FC0000012CDE90212CDE900973168CA8A724900
:105FD000FBF7E0F9EFE130688146C08B0BF0C0FEC3
:105FE000DFF878A1002253460BF01EFD83460F46D2
:105FF000B9F800000BF0B4FE002253460BF014FD7C
:1060000081468A462846FBF7D9FB316828444A4630
:10601000C98ACDF800B0CDE9017153465FA142E0D5
:106020003768B7F902000BF084FE002243460BF0FC
:10603000FBFC82468B4638880BF092FE0022474BD1
:106040000BF0F2FC81460F462846FBF7B7FB01A98F
:10605000CDF8009081E8800C31682844CA8A5AA1A2
:1060600019E13768B7F8C0000BF07AFE002243460A
:106070000BF0DAFC82468B46B7F902000BF059FEB2
:10608000002243460BF0D0FC81460F462846FBF722
:1060900095FB316828444A46C98ACDF800A0CDE96D
:1060A00001B13B4653A1FBF775F984E13768B7F9B5
:1060B00002000BF03EFE002243460BF0B5FC834687
:1060C0008A4638880BF04CFE0022244B0BF0ACFCC7
:1060D000074689462846FBF771FBCDF80CA08DE8F2
:1060E000800A31682844CA8A4DA1D4E03768B7F8DD
:1060F000E4010BF035FE002243460BF095FC0290C4
:106100008946B7F902000BF014FE002243460BF05B
:106110008BFC83468A46388800E049E10BF020FE7C
:1061200000220E4B0BF080FC00900F462846FBF738
:1061300045FB029ACDE90429CDF80CA0CDE9017BFD
:1061400031682844CA8A81E068E143E138E181E0AE
:10615000A4E0D3E0FDE024E179E000000000594034
:10616000603801082238333130223A7B223233340E
:1061700030223A222564222C223736223A22256404
:10618000222C223732223A22252E3166227D2C0003
:10619000F8390108B83801080439010822383331C8
:1061A00035223A7B2231223A22252E3266222C22B7
:1061B00032313130223A22252E3266222C223522EB
:1061C0003A222564227D2C002238333136223A7B54
:1061D0002235223A222564222C2231223A22252EEF
:1061E0003266222C2232223A22252E3166227D2C42
:1061F000000000002238333137223A7B2232223A23
:1062000022252E3166222C2232313136223A2225A5
:106210002E3166222C2235223A222564227D2C0042
:106220002238333138223A7B2235223A2225642221
:106230002C2231223A22252E3266222C2232223A78
:1062400022252E3166227D2C000000008BA1FBF759
:10625000A1F8B0E03768B7F902000BF06AFD002240
:1062600043460BF0E1FB8246894638880BF078FD07
:106270000022904B0BF0D8FB83460F462846FBF7D5
:106280009DFACDF800B0CDF80C90CDE9017A3168D7
:106290002844CA8A88A1FBF77DF88CE030688146E3
:1062A000B0F902000BF045FD002243460BF0BCFBA9
:1062B00082460F46B9F800000BF052FD00227D4BDC
:1062C0000BF0B2FB834689462846FBF777FA431961
:1062D0008448006801683068B0F86520B0F861C093
:1062E000CDF810C0CDE90521CDE902A7CDE900B96F
:1062F000C28A7D491846FBF74DF85CE0306881465C
:10630000B0F902000BF015FD002243460BF08CFBA8
:1063100007468B46B9F800000BF022FD0022654BC2
:106320000BF082FB81468A462846FBF747FA431961
:106330003068B0F8C211B0F84620CDF80090CDE931
:106340000421CDF80CB0CDE901A7C28A67A1FFF7FF
:106350006FBB30688146B0F902000BF0EAFC002206
:1063600043460BF061FB07468A46B9F800000BF084
:10637000F7FC00224F4B0BF057FB81468B4628461B
:10638000FBF71CFA43193068B0F8C411B0F8462086
:10639000CDE90421CDE9027ACDE9009BC28A63A14F
:1063A000D5E77248D0F80100012804D142F26C010F
:1063B000284601F04DFE6E494FF4167021F8140086
:1063C000641CE4B2202CFFF46BAA6848002114304E
:1063D000C0F8011065481430D0F80510F1B1002460
:1063E00062481430D0F805100120A04001420CD0C2
:1063F000012C1ED042F202102118284601F028FE7E
:106400005C494FF4167021F81400641CE4B2072CA8
:10641000E6D3564900201431C1F80500284602F0A1
:1064200001F92846FBF7CAF91699088017B0BDE8AC
:10643000F08F3768B7F8BE000BF092FC002243469D
:106440000BF0F2FA81468B46B7F902000BF071FCB3
:10645000002243460BF0E8FA07468A462846FBF737
:10646000ADF9316828445346C98ACDF80090CDE98A
:1064700001B13A4640A1FAF78DFFC1E72238333126
:1064800039223A7B2235223A222564222C223122DB
:106490003A22252E3266222C2232223A22252E3111
:1064A00066222C2232313137223A22252E316622C1
:1064B0007D2C0000000059402238333230223A7BD4
:1064C0002235223A222564222C2231223A22252EFC
:1064D0003266222C2232223A22252E3166227D2C4F
:1064E000000000003C000020103801082238333240
:1064F00032223A7B2235223A222564222C22312272
:106500003A22252E3266222C2232223A22252E31A0
:1065100066222C2234223A222564222C2232313265
:1065200038223A222564227D2C00000022383332A2
:1065300033223A7B2235223A222564222C22312230
:106540003A22252E3266222C2232223A22252E3160
:1065500066222C2234223A222564222C2232313225
:1065600039223A222564227D2C000000602F002071
:10657000D4010020040200202238343531223A7B35
:106580002232223A22252E3166222C223231313516
:10659000223A22252E3166222C2235223A222564E7
:1065A000227D2C000149016070470000CC280020AA
:1065B0002DE9F0413F4E0546002430680F4690F823
:1065C000480068280ED006DC65280BD0662809D064
:1065D00067280CD106E06F2806D0702804D0A028C8
:1065E00005D103E0012402E0022400E0042428464F
:1065F00002F012F8284602F029F830682EA190F82F
:106600004820284601F0F4FF01222CA1284601F081
:10661000EFFF2846FBF7D2F8294E284403223168C1
:106620008B8828A1FAF7B6FE2846FBF7C7F8316831
:1066300028440522CB8A23A1FAF7ACFE30684FF438
:10664000FA61B0F86120284601F050FC012C07D116
:10665000306840F2CE71B0F86320284601F046FC65
:10666000306840F2D271B0F86520284601F03EFC57
:10667000012C02D0042C06D013E0306840F2CF7118
:10668000B0F867200AE030682121B0F8772028466A
:1066900001F02CFC30682221B0F87920284601F066
:1066A00025FC284601F0BEFF2846FBF787F8388016
:1066B000BDE8F08138000020505300007273700074
:1066C00048000020222564223A222564222C000062
:1066D000064A10B55488064B03EBC4046488048052
:1066E000508803EBC0008079087010BDA80A002014
:1066F000AC2D0108064A10B55488064B03EBC404C0
:1067000064880480508803EBC0008079087010BD55
:10671000900A0020AC2D010810B5034601EB4102A0
:10672000114C002002EBC1022244012B0DD0022BA0
:1067300010D0032B08D1052906D892F8B210A1F188
:1067400033023F2A00D2084610BD0529FCD802F1C9
:10675000A80003E00529F7D802F1AD00022105F0F9
:106760000BFF80B210BD0000B81F00202DE9F041E2
:10677000504E514D8846044640F63807012804D053
:10678000032C2AD0012C28D049E028680023C821F6
:10679000D0F89820404601F09FFA28680023CA21CB
:1067A000D0F8C420404601F097FA28680023CC2195
:1067B000D0F89C20404601F08FFA28680023CE21B3
:1067C000D0F8C820404601F087FA28684FF4DA7103
:1067D000D0F85B20404601F089FB306840F6360176
:1067E0008288404601F082FB306840F63701C2885B
:1067F000404601F07BFB306839460289404601F093
:1068000075FB306840F639014289404601F06EFB65
:10681000306840F63A018289404601F067FB2868FB
:1068200040F2D671B0F86D20404601F05FFB286859
:1068300040F2D771B0F87120404601F057FB28684C
:106840004FF4FB61B0F87320404601F04FFB28681D
:1068500040F2D471B0F86920404601F047FB286847
:1068600040F2D571B0F86B20404601F03FFB022C9E
:1068700018D0042C1CD1306839460289404601F0FA
:1068800035FB306840F2DC71C289404601F02EFBD6
:10689000286840F2DA71B0F86F204046BDE8F04158
:1068A00001F024BB286840F2D971B0F87520F4E7F4
:1068B000BDE8F0813C0000204800002070B53C4C51
:1068C00005460023206840F63D01B0F8A020284688
:1068D00001F002FA2068002340F63C01428B284672
:1068E00001F0FAF92068002340F63B01828B28462C
:1068F00001F0F2F92068002340F64201B0F8CC2004
:10690000284601F0E9F92068002340F64101B0F87B
:10691000B820284601F0E0F9206800234FF4046114
:10692000B0F8BA20284601F0D7F92068002340F6D5
:106930004601028D284601F0CFF92068002340F679
:106940004701828C284601F0C7F92068002340F6F1
:106950004801C28D284601F0BFF92068002340F6A7
:106960004901C28C284601F0B7F92068002340F69F
:106970001811428D284601F0AFF92068002340F637
:106980001911428C284601F0A7F9206800234FF422
:106990001461828D284601F09FF92068002340F69B
:1069A0006E01B0F88A212846BDE8704001F094B924
:1069B0004800002070B505462348002340F6340106
:1069C00000680268284601F087F9204C002340F651
:1069D0003E012068C28B284601F07EF92068002322
:1069E00040F63F01028C284601F076F9206800232A
:1069F00040F64301B0F8BE20284601F06DF920684A
:106A0000002340F64401B0F8C020284601F064F9A4
:106A10002068002340F61611B0F89420284601F0B3
:106A20005BF92068002340F63E11B0F8BC202846F0
:106A300001F052F92068002340F61711028E284613
:106A4000BDE8704001F048B93C000020480000203B
:106A50002DE9FC410E46804601F0DEFD404601F086
:106A6000F5FD9E4D9EA1286890F84820404601F013
:106A7000BFFD40F6282440F655271F219948FAF714
:106A800054FF01AB6A469749204605F0A9FF954A95
:106A90002146404601F06AFA0F34A4B2BC42ECD958
:106AA00040F66424A71C01AB6A468E49204605F0D7
:106AB00097FF8C48FEF742FA02462146404601F015
:106AC00015FA641CA4B2BC42EDD987A240F6D111DC
:106AD000404601F04BFA87A240F6D611404601F03D
